:020000040800F2
:10000000980500200101000803220008971D000840
:1000100001220008A1060008652900080000000070
:10002000000000000000000000000000FD230008A8
:10003000D10B000800000000D523000801270008AC
:100040001B0100081B0100081B0100081B01000820
:100050001B0100081B0100081B0100081B01000810
:100060001B0100081B0100081B0100081B01000800
:100070001B0100081B0100081B0100081B010008F0
:100080001B0100081B0100081B0100081B010008E0
:100090001B0100081B0100081B0100081B010008D0
:1000A0001B010008652700081B0100081B01000850
:1000B0001B0100081B0100081B0100081B010008B0
:1000C0001B0100081B0100081B0100081B010008A0
:1000D0001B0100081B0100081B0100081B01000890
:1000E0001B0100081B0100081B010008DFF80CD0F1
:1000F00000F0C4FA004800470D34000898050020BD
:100100000648804706480047FEE7FEE7FEE7FEE7B1
:10011000FEE7FEE7FEE7FEE7FEE7FEE763270008EF
:10012000ED000008202A04DB203A21FA02F0002129
:10013000704721FA02F3D040C2F1200291400843F7
:1001400019467047D2B201E000F8012B491EFBD2DC
:1001500070470022F6E710B513460A4604461946D2
:10016000FFF7F0FF204610BD2DE9FE4F804681EAE3
:100170000300C00F0C46009021F0004123F0004521
:10018000B8EB0200A94105D24046214690461C46E4
:100190000B46024623F00040104347D0270DC7F31B
:1001A0000A00C3F30A510290401A019040286BDA0A
:1001B000C3F3130040F4801B0098924620B1002343
:1001C000D2EB030A63EB0B0B01985946C0F14002D6
:1001D000504600F04EF906460D4650465946019AE3
:1001E00000F056F910EB08006141002487EA115233
:1001F00084EAE7731A4340D0009A62B3019A012A55
:100200004FEA075215DC001B61EB02014FF0004280
:1002100002EA0752CDE90042001C41F58011324646
:100220002B4600F056F903B0BDE8F08F404621465A
:10023000F9E7001B61EB0201001C41F58013001877
:100240005B412018A2F5001747EB030140EAD57087
:10025000B6196D4111E06D084FEA360645EAC075E2
:100260004FEA0752001B61EB0201001C41F58011AF
:1002700049084FEA30000019514132462B4603B07D
:10028000BDE8F04F00F016B90098012240000023AD
:10029000D0EB020263EBE073009821464FEAE07472
:1002A000B8EB000061EB0401E9E783F000435BE792
:1002B00081F0004158E72DE9FE4F81EA030404F084
:1002C000004421F0004100944FF0000B23F0004364
:1002D00050EA01045ED052EA03045BD0C3F30A542F
:1002E000C1F30A552C44A4F2F3340194A0FB025448
:1002F000C1F3130141F48011C3F3130343F48013DA
:1003000001FB024400FB034E840A970A44EA81542D
:1003100047EA8357A4FB076802958D0A05FB07850A
:100320004FEA932C04FB0C542705029D4FEA065814
:1003300047EA1637B5EB08056EEB070C870E920EF1
:1003400047EA811742EA8312A7FB0201B6EB0B01D1
:1003500064EB00042B0D43EA0C335E1844EB1C5095
:10036000DA465146E7FB0201C5F313044FEA0B33AB
:1003700043EA14534FEA0432019C43EA0603A4F112
:100380000C040294009CCDE900B400F0A2F803B084
:10039000BDE8F08F00200146F9E70EB540F2334189
:1003A00002910021CDE900110A460B4600F091F8B8
:1003B00003B000BD30B5041E71F1000404DB4FF042
:1003C0000044404264EB0101141E73F1000405DB9C
:1003D0001C464FF00043524263EB0403994208BFAE
:1003E000904230BD30B50B4601460020202201244A
:1003F00009E021FA02F59D4205D303FA02F5491BF3
:1004000004FA02F52844151EA2F10102F1DC30BD08
:100410002DE9F05F0546002092469B468846064639
:10042000814640241BE02846414647462246FFF7C6
:1004300079FE53465A46C01A914110D311461846C8
:10044000224600F016F82D1A67EB01084F462246A7
:100450000120002100F00DF817EB00094E41201E8D
:10046000A4F10104DFDC484631462A464346BDE894
:10047000F09F202A04DB203A00FA02F100207047A6
:100480009140C2F1200320FA03F3194390407047D2
:10049000202A06DBCB17203A41FA02F043EAE07348
:1004A00006E041FA02F3D040C2F120029140084335
:1004B0001946704710B5141E73F1000408DA401C89
:1004C00041F1000192185B411A4301D120F0010073
:1004D00010BD2DE9F04D92469B4611B1B1FA81F263
:1004E00002E0B0FA80F220329046FFF7C2FF0446E5
:1004F0000F4640EA0A0041EA0B0153465A460843B8
:1005000013D0114653EA010019D0C8F140025046F9
:10051000FFF708FE05460E46504659464246FFF78D
:10052000A8FF084305D0012004E020463946BDE875
:10053000F08D0020054346EAE0762C4337430A98C5
:100540006305E40AA0EB08000022FD0A44EA4754D0
:100550000A3002D500200146E9E70105101969417A
:10056000DDE9084500196941BDE8F04DA2E72DE934
:10057000F04D81EA030404F0004B21F000451446DD
:100580004FF0000A23F0004150EA050220D054EA5F
:1005900001021DD0C5F30A570246C5F31303C1F388
:1005A0001300C1F30A5640F4801543F48013A7EBFF
:1005B0000608101BD64608F2FD3873EB050002D37F
:1005C00008F1010801E092185B41B8F1000F03DA6D
:1005D00000200146BDE8F08D00204FF48011064652
:1005E00084460EE0171B73EB050705D3121B63EB64
:1005F000050306434CEA010C49084FEA3000921803
:100600005B4150EA0107EDD152EA030012D082EAC1
:10061000040083EA0501084305D0101BAB4106D254
:100620000122002306E000224FF0004302E06FF0B9
:10063000010253101AEB06004CEB085110EB0A00B4
:1006400041EB0B01BDE8F04DFFF734BFC1F30A5297
:10065000C1F3130140F2FF3341F480119A4202DAF0
:1006600000200146704740F233439A42A2F23342DF
:1006700002DC5242FFF756BDFFF7FBBE064C074DAA
:1006800006E0E06840F0010394E807009847103462
:10069000AC42F6D3FFF72EFDB8420008D84200085E
:1006A000FEE7000010B5044600F094FE0349B0FBDD
:1006B000F1F06043401E411CFCD110BD00093D001B
:1006C00010B500F081F8012807D006A002F064F907
:1006D000BDE81040322000F07FBA0AA002F05CF9B9
:1006E000F6E700004448543131C3BBD3D0D3A6B49D
:1006F000F0A3ACC7EBBCECB2E9B4ABB8D0C6F72101
:100700000D0A0000CAFDBEDDD0A3D1E9B3C9B9A668
:10071000210D0A0010B52820FFF7C4FF4FF4007127
:10072000034800F063FB08B1002010BD012010BD9C
:10073000000C01401FB501210B4B4FF40072002843
:1007400008D000920020019002916946184600F0FE
:1007500055FA1FBD00920191029103200390694652
:10076000184600F04BFA1FBD000C014070B50D4D4E
:100770004FF400742146284600F038FB0028F9D0D9
:100780002820FFF78FFF2146284600F02FFB38B1C5
:100790002146284600F02AFB0028F9D1012070BD2F
:1007A000002070BD000C014070B5002400256006DB
:1007B000040EFFF7DBFF08B144F001046D1CEDB23D
:1007C000082DF4D3204670BDFEB5002001900290A4
:1007D00000F06CF8FFF79EFF002849D0254D4FF43C
:1007E00000742146284600F001FB0028F9D021467C
:1007F000284600F0FBFA0028F9D1002401ADFFF7EC
:10080000D3FF2855641CE4B2052CF8D39DF80400EE
:100810009DF805109DF8062001449DF8070002444C
:1008200011449DF80820914220D10646FFF7B5FDFE
:10083000114A124BFFF73FFD9DF8067004460D4626
:100840003846FFF7AAFD22462B46FFF78DFC0C4ADF
:10085000C2E904019DF80410516000969DF805203E
:100860003B4608A002F098F80120FEBD0020FEBD26
:100870000220FEBD000C01409A9999999999B93FBF
:1008800020000020B5B1C7B0CAAAB6C8A3BA256473
:100890002E256425252020B5B1C7B0CEC2B6C8A389
:1008A000BA25642E2564A1E3430D0A0010B500208B
:1008B000FFF740FF00224FF40071054800F09DFA59
:1008C000142000F089F9BDE810400120FFF732BF85
:1008D000000C01401FB50020019003900220009001
:1008E000012002906946024800F088F91FBD00000F
:1008F000000801401FB50020029002200090012155
:10090000019103906946024800F078F91FBD00008C
:10091000000801401CB5684600F0B0F89DF80000E2
:1009200000F00F01000900EB800001EB40012048BE
:1009300001F5FA6141609DF8021001F00F0209090A
:1009400001EB810102EB410181609DF8031001F090
:100950000F02090901EB810102EB4101C1609DF821
:10096000041001F00F02090901EB810102EB4101C2
:1009700001619DF8051001F00F02090901EB8101E9
:1009800002EB410141619DF8061001F00F020909D7
:1009900001EB810102EB410181619DF8011001F041
:1009A0000F02090901EB810102EB4101C1611CBD8C
:1009B0004000002070B5054600242F4E002204217F
:1009C000304600F01AFA012000F006F90022082152
:1009D000304600F012FA012000F0FEF80122042156
:1009E000304600F00AFA012000F0F6F8284600F040
:1009F0009FF8FFF76FFF002500220821304600F026
:100A0000FCF964080221304600F0F0F9012801D118
:100A100044F0800401220821304600F0EEF96D1CFC
:100A2000082DE9DB00220421304600F0E6F9012020
:100A300000F0D2F800220821304600F0DEF9012053
:100A400000F0CAF801220821304600F0D6F9012052
:100A500000F0C2F800220221304600F0CEF9012059
:100A600000F0BAF801220221304600F0C6F9012058
:100A700000F0B2F8204670BD000801401CB50446E5
:100A80008D20FFF797FF8DF800008B20FFF792FF76
:100A90008DF801008920FFF78DFF8DF80200872077
:100AA000FFF788FF8DF803008520FFF783FF8DF89F
:100AB00004008320FFF77EFF8DF805008120FFF7FB
:100AC00079FF00992160BDF80410A180A0711CBDC0
:100AD0002DE9F0478246DDE90989089F0E46144654
:100AE0001D4600218E2000F047F851468C2000F072
:100AF00043F831468A2000F03FF82146882000F074
:100B00003BF82946862000F037F83946842000F06B
:100B100033F84146822000F02FF84946802000F04B
:100B20002BF8BDE8F04780218E2000F025B80000AA
:100B300070B50546FFF7DEFE00240E4E00220821A8
:100B4000304600F05AF9E80705D00122022130466C
:100B500000F053F904E000220221304600F04DF984
:100B60006D0801220821304600F047F9641C082C6A
:100B7000E4DB70BD0008014070B506460D46134C1D
:100B800000220421204600F038F9012000F024F86A
:100B900000220821204600F030F9012000F01CF866
:100BA00001220421204600F028F9012000F014F869
:100BB0003046FFF7BDFF2846FFF7BAFF2046BDE8E5
:100BC00070400022042100F018B900000008014024
:100BD000704772B6FEE7000070B5044600F014F9E5
:100BE0000546601C02D004480078044400F00CF96B
:100BF000401BA042FAD370BDA40000202DE9F84F9D
:100C000000240023DFF8C4914FF00F0809F1040A13
:100C10000AF1040B0BF1040ED1E00127A7403A4082
:100C2000BA4275D1DFF8A8C14D68A5EB0C06654541
:100C30002BD00DDC032D34D005DC35B3012D19D0BC
:100C4000022D2FD11BE0112D16D0122D2AD119E023
:100C5000B6F5881F19D006DCB6F5803F15D0B6F57D
:100C6000801F1FD111E0B6F5001F0ED0B6F5041F8E
:100C700018D10AE0CB6815E0CB681B1D12E0CB68E9
:100C800008330FE0CB680C330CE08B6823B1012BE9
:100C900004D00823476105E0042303E0082307612B
:100CA00000E00023FF2A01D8054601E000F1040519
:100CB00002D84FEA840603E0A4F108064FEA86064C
:100CC0002F6808FA06FC27EA0C0703FA06F647EA3B
:100CD00006072F604D68ED0070D53E4DAE6946F0B9
:100CE0000106AE61AD6905F0010500953A4D24F0AD
:100CF00003067719BE68A5072D0F08FA05FC26EA3A
:100D00000C06DFF8D8C0604503D14FF0000C17E0A7
:100D100054E0DFF8CCC0604502D14FF0010C0FE089
:100D2000DFF8C0C0604502D14FF0020C08E0DFF8E8
:100D3000B8C0604502D14FF0030C01E04FF0040C45
:100D40000CFA05FC4CEA060CC7F808C04D68ED0328
:100D500005D5D9F800501543C9F8005004E0D9F87A
:100D600000509543C9F800504D68AD0305D5DAF839
:100D700000501543CAF8005004E0DAF800509543DB
:100D8000CAF800504D68ED0205D5DBF80050154358
:100D9000CBF8005004E0DBF800509543CBF800504E
:100DA0004D68AD0205D5DEF800501543CEF8005071
:100DB00004E0DEF800509543CEF80050641C0A6849
:100DC00032FA04F57FF429AFBDE8F88F0004014042
:100DD0000000111000100240000001400008014016
:100DE000000C0140001001400014014080680842DE
:100DF00001D00120704700207047002A01D0016116
:100E0000704709040161704701488068704700001D
:100E1000A400002070B50446002C04D094F83D00D6
:100E2000002510B106E0012070BD84F83C5020463A
:100E300000F05EF9242084F83D002068016821F06C
:100E4000010101602068016841F4004101602068EF
:100E5000016821F40041016000F0C2FA4F4B616863
:100E6000994203D84E49884203D304E04D49884251
:100E700001D2012070BD4C49B0FBF1F122685668E7
:100E800026F03F060E43566062689A4201D8491C1C
:100E900007E04FF4967251434FF47A72B1FBF2F1CE
:100EA000491C2268166A26F03F06314311626168C8
:100EB000994210D84900401EB0FBF1F2521CC2F317
:100EC0000B02042A01D2042022E0B0FBF1F0401C06
:100ED000C0F30B001CE0A268F2B301EBC10303EB0B
:100EE0000116431EB3FBF6F35B1C43F480431B0562
:100EF00049D092B301EBC10202EB0111401EB0FBDD
:100F0000F1F0401CC0F30B0040F4804040F400407E
:100F10002168CA694CF6FF739A431043C861D4E94B
:100F2000071001432068026822F0C00211430160EB
:100F3000D4E9030101432068826848F2FF339A43F1
:100F400011438160D4E9051001432068C26822F092
:100F5000FF021143C16001E00EE016E02068016865
:100F600041F0010101602564202084F83D002563E3
:100F700084F83E50002070BD01EB4106431EB3FBD8
:100F8000F6F35B1CB3E70120C2E701EB4101401E11
:100F9000B0FBF1F0401CC0F30B00B7E7A0860100E6
:100FA00080841E0000093D0040420F002DE9FF4FE4
:100FB00083B00446DDE911988A469346109DFFF7F9
:100FC00023FF064694F83D00202803D0022007B0F6
:100FD000BDE8F08F1923012243492046009600F016
:100FE0007CFF08B10220F2E794F83C00012807D00A
:100FF000012084F83C0020680168C90702D005E0A0
:101000000220E4E7016841F0010101602068016805
:1010100021F400610160212084F83D00402084F823
:101020003E00002727646562A4F82A90608D208521
:101030002E48E062CDE900865A4651462046069B7E
:1010400000F0C2FE80B30120C1E73246414620468F
:1010500000F0D4FF48B1206C042804D12068016856
:1010600041F4007101600120B1E7606A21680078F5
:101070000861656A6D1C6562208D401E80B2208506
:10108000618D491E618523685969C94349070BD49D
:1010900050B128781861606A401C6062208D401E43
:1010A0002085608D401E6085208D0028CDD1324680
:1010B0004146204600F0EAFE48B1206C042804D1E5
:1010C0002068016841F40071016001207FE71F344E
:1010D00054F81F0C016841F4007101602020A077D2
:1010E000E7776777002072E7020010000000FFFF3B
:1010F00010B586B00021029103910491059100681A
:101100000F4988421AD10F4CA06940F00800A06135
:10111000A06900F008000190C02002901220039006
:101120000320059002A90848FFF768FDE06940F434
:101130000010E061E06900F40010019006B010BDFD
:101140000054004000100240000C01400248816839
:101150000278114481607047A400002010B5074850
:10116000016841F010010160032000F077F80F20C2
:1011700000F006F800F026F8002010BD0020024024
:1011800070B504460D4D4FF47A712878B1FBF0F03C
:101190000B490968B1FBF0F000F03EFB08B10120FB
:1011A00070BD102C07D200222146501E00F036F8E8
:1011B0006C60002070BD012070BD0000A400002004
:1011C000B000002008B50C48816941F0010181613F
:1011D000816901F001010091C16941F08051C16153
:1011E000C06900F0805000900449486820F0E06039
:1011F00040F00070486008BD00100240000001404F
:10120000002809DB00F01F02012191404009800005
:1012100000F1E020C0F8001170470000F0B40D4666
:101220000D4B1B68C3F30223C3F10704042C00D940
:101230000424191D072901D2002300E0DB1E01262A
:1012400006FA04F1491E294099409E40761E164038
:101250003143F0BC01F0C4BB0CED00E000F007012D
:10126000054A10684FF6FF03184040EA0120034981
:1012700008431060704700000CED00E00000FA0524
:101280002DE9F04704460D46002C17D0DFF83081D9
:10129000D8F8000000F00700A84211D2D8F80000EA
:1012A00020F007002843C8F80000D8F8000000F03C
:1012B0000700A84204D00120BDE8F0870120FBE729
:1012C0002068404E810712D5400703D5706840F46E
:1012D000E06070602078000703D5706840F46050CB
:1012E00070607068A16820F0F0000843706020789A
:1012F000C0072CD06068012806D0022809D03168C8
:1013000089070BD40120D7E73168890306D401206F
:10131000D2E73168890101D40120CDE7716821F05D
:10132000030101437160FFF76FFD074641F2883901
:1013300006E0FFF769FDC01B484501D90320BBE764
:101340007068616800F00C00B0EB810FF1D1D8F843
:10135000000000F00700A8420ED9D8F8000020F0E5
:1013600007002843C8F80000D8F8000000F0070084
:10137000A84201D001209FE72078400705D570687A
:10138000E16820F4E060084370602078000706D52B
:101390007068216920F4605040EAC100706000F07C
:1013A0003FF87168084AC1F30311515CC84007490E
:1013B000086007480068FFF7E3FE00207CE70000B4
:1013C0000020024000100240A0420008B0000020AF
:1013D000A80000200148006870470000B00000200D
:1013E00000B5FFF7F7FF04494968044AC1F3022139
:1013F000515CC84000BD000000100240B04200082F
:1014000000B5FFF7E7FF04494968044AC1F3C22168
:10141000515CC84000BD000000100240B04200080E
:1014200085B014A090E80E00C068CDE902230191B8
:10143000049014A000680090134B5968134801F001
:101440000C02042A10D0082A0ED101A8C1F383424D
:10145000805CC9030AD55968C1F340411DF80110E9
:101460000A4A5043B0FBF1F005B0704708494843C1
:10147000FAE7000002030405060708090A0B0C0D31
:101480000E0F1010010200000010024000127A003E
:1014900000093D002DE9F84F0446002C0ED02078BD
:1014A000D94DC0075ED06868C0F3810001280BD019
:1014B0006868C0F38100022803D00CE00120BDE879
:1014C000F88F6868C00306D5286880034AD560682D
:1014D000A8BB0120F3E76068B0F5803F11D0A8B148
:1014E000B0F5A02F1BD0286820F480302860286831
:1014F00020F480202860606830B3FFF785FC064642
:101500001EE0286840F480302860F4E7286820F462
:1015100080302860286820F480202860EBE7286865
:1015200040F480202860286840F480302860E2E79A
:10153000FFF76AFC801B642802D90320BFE711E093
:1015400028688003F4D50DE0FFF75EFC064606E050
:10155000FFF75AFC801B642801D90320AFE72868F5
:101560008003F5D42078DFF8A48280074FF0010AC9
:101570004FF0000945D5686810F00C0F07D0686877
:10158000C0F38100022812D16868C0030FD4286814
:10159000800704D52069012801D001208FE7286841
:1015A000616920F0F80040EAC100286029E0206964
:1015B000B8B1C8F800A0FFF727FC064606E0FFF721
:1015C00023FC801B022801D9032078E728688007C4
:1015D000F5D52868616920F0F80040EAC10028606C
:1015E0000FE0C8F80090FFF70FFC064606E0FFF793
:1015F0000BFC801B022801D9032060E728688007C4
:10160000F5D42078000726D58148A16999B1C0F8A2
:1016100000A0FFF7F9FB064606E0FFF7F5FB801B8D
:10162000022801D903204AE7686A8007F5D501201E
:1016300000F0D2FE0FE0C0F80090FFF7E5FB064691
:1016400006E0FFF7E1FB801B022801D9032036E703
:10165000686A8007F5D42078400773D50026E869CA
:10166000C00008D4E86940F08050E861E86900F003
:10167000805000900126DFF89CB1DBF80000C00527
:1016800014D4DBF8000040F48070CBF80000FFF7C2
:10169000BBFB074606E0FFF7B7FBC01B642801D978
:1016A00003200CE7DBF80000C005F4D5E068012852
:1016B00012D0B0B105281DD0286A20F001002862A0
:1016C000286A20F004002862E06841F2883B28B3D1
:1016D000FFF79AFB07461DE0286A40F001002862E8
:1016E000F2E7286A20F001002862286A20F004004E
:1016F0002862E9E7286A40F004002862286A40F07E
:1017000001002862E0E7FFF77FFBC01B584501D9C5
:101710000320D4E6286A8007F5D50DE0FFF774FBB7
:10172000074606E0FFF770FBC01B584501D90320B0
:10173000C5E6286A8007F5D4012E03D1E86920F0B8
:101740008050E861E069A0B36968C1F381010229B2
:1017500046D0022805D0C8F86090FFF755FB044634
:101760003AE0C8F86090FFF74FFB064606E0FFF747
:101770004BFB801B022801D90320A0E628688001CA
:10178000F5D4206AB0F5803F05D16868A16820F4DF
:10179000003008436860D4E908010843696821F40F
:1017A000741108436860C8F860A0FFF72DFB044679
:1017B00007E026E0FFF728FB001B022801D90320E1
:1017C0007DE628688001F5D51BE0FFF71DFB001BB7
:1017D000022801D9032072E628688001F5D410E0C0
:1017E00001280CD06868226A00F48031914204D14B
:1017F000616A00F47010884203D001205FE6012086
:101800005DE600205BE6000000100240000042425E
:10181000800442420070004010B5401EB0F1807F4D
:1018200001D3012010BD4FF0E02460610F2160174B
:1018300001F0D6F80020A06107202061002010BD33
:101840007047704770B590F83C20012A25D00126DA
:1018500080F83C60022280F83D200268546893685A
:1018600024F070050C682C4354600D4C0268A242B1
:1018700008D0B2F1804F05D00A4CA24202D00A4CE7
:10188000A24204D123F080034968194391603C309F
:10189000467000210170002070BD022070BD000064
:1018A000002C0140000400400008004010B5044630
:1018B000002C03D094F83D0010B107E0012010BDCA
:1018C000002084F83C00204600F016F8022084F83E
:1018D0003D00211D206800F04BFF01203D34607267
:1018E0006070A070E07020716071A071E071207272
:1018F0002070002010BD000008B500680B49884228
:1019000012D10B48816941F400618161806900F462
:1019100000600090002211461920FFF77FFCBDE80F
:1019200008401920FFF76CBC08BD0000002C0140E6
:101930000010024090F83D10012901D001207047AD
:10194000022180F83D100168CA6842F00102CA60B5
:1019500000680E49884208D0B0F1804F05D00C498C
:10196000884202D00B49884209D1816801F0070101
:10197000062908D0016841F00101016003E0016817
:1019800041F001010160002070470000002C01407F
:10199000000400400008004070B5044694F83C0084
:1019A000012817D0012584F83C50022084F83D001E
:1019B0002068826822F0770222F47F428260086801
:1019C000502831D00DDC20284DD005DCB0B31028D4
:1019D0004ED148E0022070BD302844D0402847D185
:1019E00037E060282BD0702806D0B0F5805F3FD05C
:1019F000B0F5005F3CD10BE0CB68D1E90121206854
:101A000000F0ECFE2068816841F0770181602FE0F2
:101A1000CB68D1E90121206800F0E0FE20688168F0
:101A200041F48041816023E0CA684968206800F081
:101A3000E7FE5021206800F0DBFE19E013E0CA68E1
:101A40004968206800F0EDFE6021206800F0D0FEBB
:101A50000EE0CA684968206800F0D2FE4021206884
:101A600000F0C6FE04E022680146104600F0C0FE09
:101A70003C3465700020207070BD704770B504461E
:101A8000206801694FF00005C943890716D4C16871
:101A9000C943890712D4E91E01610120207720681B
:101AA0008069800703D02046FFF7E7FF05E0204666
:101AB00000F09BF8204600F099F82577206801692E
:101AC000C943490718D4C168C943490714D46FF002
:101AD00004010161022020772068806910F4407FB2
:101AE00003D02046FFF7C9FF05E0204600F07DF84F
:101AF000204600F07BF8257720680169C943090773
:101B000017D4C168C943090713D46FF008010161F4
:101B1000042020772068C069800703D02046FFF7A3
:101B2000ACFF05E0204600F060F8204600F05EF8CB
:101B3000257720680169C943C90618D4C168C9431B
:101B4000C90614D46FF010010161082020772068C5
:101B5000C06910F4407F03D02046FFF78EFF05E0F8
:101B6000204600F042F8204600F040F82577206833
:101B70000169C943C90708D1C168C943C90704D16C
:101B8000891E0161204600F033F820680169C943CD
:101B9000090609D4C168C943090605D46FF080015C
:101BA00001612046FFF74CFE20680169C9434906E0
:101BB00009D4C168C943490605D46FF040010161E9
:101BC000204600F01DF820680169C94389060BD43E
:101BD000C168C943890607D46FF02001016120461E
:101BE000BDE87040FFF72DBE70BD70477047000024
:101BF0000249884201D101F04FBC70470C0100201E
:101C0000704770B50446002C04D094F83D000025C0
:101C100010B106E0012070BD84F83C50204600F071
:101C200023F8242084F83D002068C16821F4005185
:101C3000C160204600F008FE2068016921F490414F
:101C400001612068416921F02A0141612068C16871
:101C500041F40051C1602564202084F83D0084F8DF
:101C60003E00002070BD000030B585B00024019416
:101C700002940394049400681449884224D11448BF
:101C8000816941F480418161816901F48041009161
:101C9000816941F004018161806900F004000090D5
:101CA0004FF4007001900220029003200490094D2F
:101CB00001A92846FEF7A2FF291501910294039479
:101CC00001A92846FEF79AFF05B030BD0038014053
:101CD00000100240000801402DE9F84304460E467A
:101CE00015461F4694F83D00202802D00220BDE88A
:101CF000F883C6B1BDB194F83C00012815D001208D
:101D000084F83C004FF00009C4F84090212084F88A
:101D10003D00FFF779F88046A584E584A068B0F51A
:101D2000805F04D005E00120E1E70220DFE72069C1
:101D300020B13546002684F83C9013E00025FAE7F0
:101D40004346002280212046009700F0D9FD08B1CB
:101D50000320CCE79DB1216815F8010B4860E08CA9
:101D6000401EE084E08C0028EAD143460022402156
:101D70002046009700F0C4FD40B10320B7E736F8D5
:101D8000020B2168C0F308004860E8E7202084F8CF
:101D90003D000020ABE7FEE701684A69D2435205E7
:101DA0000FD46FF480624A61002140F8301F202276
:101DB00042738173026942F00402026101730120DF
:101DC00070470020704700002DE9F8430446DDE924
:101DD00008970D46164698462068016841F48071C0
:101DE00001604B4600224FF001112046009700F0A1
:101DF00074F848B120680068C00502D54FF400703F
:101E000020640320BDE8F883216805F0FE00086126
:101E10003B464A461C49204600F09CF808B1012088
:101E2000F0E720684169806900903A4649462046BB
:101E300000F0E4F848B1206C042804D1206801685F
:101E400041F4007101600120DCE7F5B2B8F1010F47
:101E50000CD02168300A08613A464946204600F015
:101E6000CDF868B1206C042803D007E02068056134
:101E700008E02068016841F4007101600120C1E7B9
:101E8000206805610020BDE70200010070B504462E
:101E90000D4616460DE02046FFF77EFF08B10120F3
:101EA00070BD681C05D0FEF7AFFF801BA84207D8A5
:101EB00035B120684069C0434007ECD4002070BDB4
:101EC000002044F8300F20216173A073216941F094
:101ED000200121612073012070BD2DE9F0470446E7
:101EE000DDF820900E4690461D46C6F3074708E0F1
:101EF000681C06D0FEF788FFA0EB0900A8420FD8A7
:101F000075B1012F19D02068806926EA000000040D
:101F1000000C1DD000204045EAD00020BDE8F0872D
:101F2000002044F8300F20216173A073216941F033
:101F30002001216120730120F0E72068406926EA32
:101F400000000004000C01D00020E4E70120E2E7DB
:101F50000120E0E72DE9F04704460E461546984675
:101F60004FF000094FF0200AC6F3074725E020682C
:101F70004069C043400517D42068016841F40071EE
:101F8000016021686FF480604861C4F8309084F883
:101F90003DA084F83E90206C40F00400206484F85A
:101FA0003C900120BDE8F087681C06D0FEF72CFFAE
:101FB000A0EB0800A8420BD855B1012F16D020681D
:101FC000806926EA00000004000CD0D10020E9E777
:101FD000C4F8309084F83DA084F83E90206C40F026
:101FE0002000206484F83C900120DBE720684069F1
:101FF00026EA00000004000CE8D0B8E770B50446FB
:102000000D4616460DE02046FFF7C6FE08B101203A
:1020100070BD681C05D0FEF7F7FE801BA84207D8EC
:1020200035B120684069C0430006ECD4002070BD83
:10203000002044F8300F20216173A073216941F022
:10204000200121612073012070BD00002DE9F041C5
:1020500086B0002402940394049405942C4881696A
:1020600041F010018161816901F0100101918169E4
:1020700041F020018161816901F0200101918169B4
:1020800041F004018161816901F0040101918169DC
:1020900041F008018161806900F008000190DFF8DB
:1020A000748000220E214046FEF7A7FE1A4F01223F
:1020B0004FF420613846FEF7A0FE0E200290012565
:1020C000039504940226059602A94046FEF796FD64
:1020D000E802029003950494059602A93846FEF79B
:1020E0008DFD4FF4704002900394049502A9384688
:1020F000FEF784FD68020290039504950320059085
:1021000002A93846FEF77AFD06B0BDE8F08100006E
:102110000010024000080140000C014010B50D48BD
:102120000B4901600C49416000218160C1604FF49E
:102130008042026141618161C1610162FEF76AFE14
:10214000002803D0BDE81040FEF743BD10BD0000DD
:1021500000540040B8000020A086010010B586B0F1
:102160000024029403940494059400940194154867
:102170001349016041F61F414160846040F2F31150
:10218000C1600461446180218161FFF78FFB08B168
:10219000FEF71FFD4FF48050029002A90948FFF797
:1021A000FBFB08B1FEF715FD009401946946054854
:1021B000FFF748FB002801D0FEF70BFD06B010BD6D
:1021C000002C01400C01002010B50C480A490160A8
:1021D0004FF4E131416000218160C16001610C2256
:1021E00042618161C161FFF70CFD002803D0BDE8A9
:1021F0001040FEF7EEBC10BD003801405401002035
:10220000FEE7FEE770B5002505F1B000C0B200F0B2
:10221000B9F8002000F0B6F8102000F0B3F8002460
:10222000002000F0C3F8641CE4B2802CF8D36D1CCD
:10223000EDB2082DE8D370BD10B5C820FEF7CCFC78
:10224000BDE8104000F090BB10B50446B031C8B2F4
:1022500000F098F8102040EA141000F093F804F011
:102260000F00BDE8104000F08DB800002DE9F047E8
:1022700081468846174641464846FFF7E5FF002459
:102280000F4E06EB8715285D00F090F8641CE4B251
:10229000102CF8D308F1010808F0FF014846FFF7B9
:1022A000D3FF0024012000EB470006EB4015285D1A
:1022B00000F07CF8641CE4B2102CF8D3BDE8F08781
:1022C000203D00082DE9F04180460F460024203AC9
:1022D000D5B2B8F17F0F02D9A046BF1CFFB2102BB8
:1022E00011D039464046FFF7AFFF164905EB4500D0
:1022F00001EB4005285D00F059F8641CE4B2062C9F
:10230000F8D3BDE8F08139464046FFF79DFF0E4EF9
:1023100004EB0510305C00F049F8641CE4B2082CB2
:10232000F6D37F1CF9B24046FFF78EFF002404EB82
:1023300005103044007A00F039F8641CE4B2082C2F
:10234000F5D3DEE718350008403700082DE9F041E5
:1023500004460E461746984600250DE04346314692
:102360002046FFF7AFFF0834E4B2782C02D90024EE
:10237000B61CF6B26D1CEDB27A5D002AEED1BDE856
:10238000F081000001B584B0012104AACDE900214B
:102390004FF480700B460290002278210248FEF72D
:1023A00005FE05B000BD0000B800002001B584B0F6
:1023B000012104AACDE900214FF480700B46029060
:1023C000402278210248FEF7F1FD05B000BD000073
:1023D000B80000207047000008B507494FF4FA52D2
:1023E0000968B1FBF2F14143009100BF0098411E22
:1023F0000091FAD208BD0000B00000207047000034
:1024000070B5384D384E394CD4E90423D4E906016F
:10241000FDF74BFF2A463346FDF7CCFF11D904F1F7
:1024200010000FC8FDF741FF2A463346FDF7C2FFF3
:1024300007D9D4E90110421A012A02D8081A012842
:1024400001D9FFF7DFFED4E90401C4E906016068A1
:10245000A06000F0C9F80D2202210020FFF706FF5E
:102460000E2202211020FFF701FF07220221202067
:10247000FFF7FCFE0A2202213020FFF7F7FE0622BA
:1024800002214020FFF7F2FE184A10230C320221ED
:102490005020FFF75BFF102315A202217820FFF7E1
:1024A00055FF0D2205210020FFF7E0FE0E22052139
:1024B0001020FFF7DBFE092205212020FFF7D6FEC2
:1024C0000A2205213020FFF7D1FE062205214020F7
:1024D000FFF7CCFEBDE8704010230521034A5020D1
:1024E000FFF734BF9A9999999999B93F2000002034
:1024F0004300000010B5FEF70DFA00F097F80D222A
:1025000000212020FFF7B2FE0E2200213020FFF72D
:10251000ADFE0B2200214020FFF7A8FE0C22002177
:102520005020FFF7A3FE10232C4A03210020FFF7C1
:102530000DFF112203212020FFF798FE274A1023C8
:10254000143A03213820FFF701FF1022032148200D
:10255000FFF78CFE214922A0103900F01DFA1F4A16
:102560001023103A03216020FFF7F0FE0F22032111
:102570007020FFF77BFE194A10230C3A0621002039
:10258000FFF7E4FE122206211020FFF76FFE134A28
:102590001023083A06212020FFF7D8FE1322062137
:1025A0003020FFF763FE0D4A1023121F0621402042
:1025B000FFF7CCFE142206215020FFF757FE15220C
:1025C00006216020FFF752FE044A1023343A062108
:1025D000BDE810407020FFF7B9BE00007400002075
:1025E0002573C8D50D0A000010B50A4C0AA104F1E4
:1025F0000C00D4E9042300F0DFF909A12046626849
:1026000000F0DAF92246BDE8104006A1104600F0BD
:10261000D3B9000020000020252E31660000000004
:102620002564000025732525000000001FB5254CFA
:10263000D4E90423D4E90610CDE90210211DCDE927
:1026400000230EC920A000F0A7F90020606384F8E1
:10265000380020626062A062E06220632080A07087
:1026600020A104F13400626800F0A6F91EA104F173
:102670002000A26800F0A0F91BA104F12400E26888
:1026800000F09AF918A104F12800226900F094F9E9
:1026900016A104F12C00626900F08EF913A104F177
:1026A0003000A26900F088F90EA12046E26900F02E
:1026B00083F904B004F12001BDE810400DA000F042
:1026C0006BB900004000002025642D25642D256491
:1026D0002025643A25643A256420D0C7C6DA2564EB
:1026E0000D0A0000256400002532640025303264A4
:1026F000000000000D0A2573D4C20D0A000000007E
:10270000FEF724BD30B58FB0282105A8FDF721FDC7
:1027100014216846FDF71DFD01210591080406906E
:1027200000240794099102250C950D904FF4E010B8
:102730000E9005A8FEF7AEFE08B1FEF74AFA0F208C
:102740000090019502944FF480600390049402215C
:102750006846FEF795FD002801D0FEF73AFA0FB063
:1027600030BD70470148FFF789B900000C01002017
:10277000F0B50268164C174D174E4FF08047A04237
:1027800005D0B84203D0A84201D0B04203D122F014
:1027900070034A681A43A04205D0B84203D0A84249
:1027A00001D0B04203D122F44073CA681A434B6986
:1027B00022F080021A4302608A68C2620A6882625A
:1027C000A04201D10969016301214161F0BD00000E
:1027D000002C0140000400400008004010B584684F
:1027E00024F47F4442EA03220A432243826010BD5C
:1027F000826822F070020A4342F00701816070474C
:1028000010B5036A046A24F001040462846924F0A8
:10281000F00444EA021423F00A020A4384610262CB
:1028200010BD10B5036A23F0100303628469036AC4
:1028300024F4704444EA023223F0A00343EA011175
:102840008261016210BD000070B504462068016914
:10285000E26821F4405111430161A16820690143FC
:10286000606901432068C26841F20C639A430A43DD
:10287000C26020684169A26921F44071114341613D
:102880001E492068884202D1FEF7BAFD01E0FEF73A
:10289000A7FD00EBC00101EB001061686422890014
:1028A000B0FBF1F3B3FBF2F36FF018067343B0FB28
:1028B000F1F5B0FBF1F605EB8305322303EB0515CB
:1028C000B5FBF2F5B6FBF2F605F0F00505EB0615E3
:1028D000B0FBF1F6B0FBF1F0B0FBF2F06FF01801D5
:1028E000484306EB800003EB0010B0FBF2F02168D8
:1028F00000F00F002844886070BD000000380140DF
:102900002DE9F04104460E4617469846069D1DE007
:10291000681C1BD02DB1FEF777FAA0EB0800A84287
:1029200014D92068C16821F4D071C1602068416960
:1029300021F001014161202084F83D0084F83E002F
:10294000002084F83C000320BDE8F0812068006886
:1029500036EA000004D00020B842D9D00020F3E7C6
:102960000120F9E7FEE70000FEB50024084E4FF411
:102970008077012530198DE8A100012300227821FC
:102980000448FEF713FB641CE4B21B2CF2D3FEBD1B
:1029900000000020B80000200FB4054B10B503A9BB
:1029A000044A029800F0FEF810BC5DF814FB000029
:1029B000DD320008B40000200FB4084B10B504A9A4
:1029C00002AA039800F0EEF8044602A9002000F0E5
:1029D00080FC204610BC5DF814FB0000D3320008D8
:1029E0000907090E002804DB00F1E02080F800143C
:1029F000704700F00F0000F1E02080F8141D7047D0
:102A000002E008C8121F08C1002AFAD170477047B7
:102A1000002001E001C1121F002AFBD17047000015
:102A20002DE9FF5F82B00021DDE90430020DDDF801
:102A300040B0034318D044F61050A2F2FF32424394
:102A40001514119801281FD0A5EB0B00401C5FEA5C
:102A5000000A4FF000064E4FDFF83891B04650465E
:102A600015D5CAF1000413E0119801244AA30128E6
:102A700001D16FEA0B010298119AC0E90031C0E957
:102A8000024206B0BDE8F09FCBF10000DFE704464C
:102A90000021404A491842EB0450CDE9001012E0F1
:102AA000E00707D032463B4640464946FDF703FC67
:102AB0008046894632463B4610461946FDF7FBFBE9
:102AC00006460F466410002CEAD1DDE90401DDE979
:102AD0000023BAF1000F06DAFDF7EDFB42464B4644
:102AE000FDF7E9FB05E0FDF742FD42464B46FDF7E9
:102AF0003EFD04460E460022284BFDF75BFC03D842
:102B00004FF0FF30014607E00022254B20463146BA
:102B1000FDF72AFBFDF79AFD102409E0002C0ADBE3
:102B20000A220023FDF774FC039B30321A55641E01
:102B300050EA0102F2D1641C039AC4F11103144457
:102B4000119A012A03D0012208430DD10AE008435B
:102B500004D000204FF0110B119072E7A3EB0B058E
:102B60006D1E0DE05B4504DD4FF0000205F101052F
:102B700004E003DA4FF00002A5F10105002AECD0D1
:102B800002981199C0E90231C0E9004579E70000D7
:102B9000000014400000F03F300000000000F0434F
:102BA0000000E03F2DE9FF4F95B09B468946064661
:102BB00000250FE2252877D100242746F84A012175
:102BC000059400E0044316F8013F203B01FA03F0AE
:102BD0001042F7D130782A2811D06FF02F033078C7
:102BE000A0F13002092A16D8059A44F0020402EB3B
:102BF000820203EB42021044761C0590EFE759F87D
:102C0000042B0592002A03DA504244F40054059044
:102C100044F00204761C30782E2816D116F8010FE5
:102C200044F004042A280DD06FF02F023078A0F170
:102C30003003092B09D807EB870302EB4303C718BE
:102C4000761CF3E759F8047B761C30786C280FD09B
:102C500006DC4C2817D068280DD06A2814D104E06F
:102C6000742810D07A280FD10DE044F400140AE043
:102C700044F4801401E044F440147278824202D19A
:102C800004F58014761C761C307866280BD013DC93
:102C9000582877D009DC002875D04528F6D046287A
:102CA000F4D047281AD19DE118E0632835D0642874
:102CB00079D0652812D195E1702873D008DC672897
:102CC000F1D069286FD06E280DD06F2806D1B5E0FD
:102CD00073282CD0752875D0782874D05A46179947
:102CE00090476D1C75E1C4F30250022809D00328F7
:102CF0000DD0D9F8001004280DD00D6009F1040999
:102D000067E1D9F80010EA17C1E90052F6E7D9F8EF
:102D100000100D80F2E70D70F0E719F8041B8DF834
:102D2000001000208DF80100EA46012003E059F868
:102D300004AB4FF0FF3061074FF0000102D40DE00B
:102D400008F101018846B9420FDA8045F8DB1AF82C
:102D500008100029F4D108E008F1010188468142F9
:102D6000FADB1AF808100029F6D105985B46A0EBAB
:102D7000080721463846179A00F094FA284400EBD9
:102D8000080507E04DE029E10DE01AF8010B5A466D
:102D900017999047B8F10108F7D25B4621463846AB
:102DA000179A13E142E00A220092C4F302524FF054
:102DB000000A022A08D059F804CB032A4FEAEC7122
:102DC0000AD00DE029E02AE009F1070121F007020D
:102DD000F2E802C1914609E00FFA8CFC4FEAEC716F
:102DE000042A03D14FFA8CFC4FEAEC71002907DA70
:102DF0000A460021DCF1000C61EB02012D2202E009
:102E0000220504D52B228DF80420012203E0E207DD
:102E100001D02022F7E7904659E00A2102E0102273
:102E20000DE010214FF0000A00910BE010224FF04E
:102E3000000A44F004040827009203E008224FF03F
:102E4000000A0092C4F30252022A05D059F804CBBA
:102E50000021032A08D009E009F1070121F0070247
:102E6000F2E802C1914605E01FFA8CFC042A01D168
:102E70000CF0FF0C4FF00008220728D5702806D070
:102E8000009B83F0100353EA0A0305D00EE04022B2
:102E90008DF80420012208E05CEA010206D030220D
:102EA0008DF804208DF8050002229046009B83F0E7
:102EB000080353EA0A030AD15CEA010201D162075E
:102EC00005D530228DF804204FF001087F1E5828C8
:102ED00004D034A003900EA802900DE036A0F9E7CC
:102EE00053466046009AFDF793FA84460398825C45
:102EF0000298401E029002705CEA0100F0D1029834
:102F000006A9081A00F1200A600702D524F48034CB
:102F100000E00127574502DDA7EB0A0000E0002092
:102F200000EB0A01009005984144401A0590E00327
:102F300006D45B462146179A059800F0B3F905447C
:102F4000002706E001A85A46C05D179990476D1CFE
:102F50007F1C4745F6DBE0030CD55B462146179AFC
:102F6000059800F09FF9054404E030205A4617996F
:102F700090476D1C0099481E00900029F5DC08E080
:102F8000029802995A460078491C02911799904775
:102F90006D1CBAF10001AAF1010AF1DC65E1000043
:102FA000092801003031323334353637383961621F
:102FB00063646566000000003031323334353637E3
:102FC00038394142434445460000000000F058F9BA
:102FD0000544761C307800287FF4ECAD19B0284603
:102FE000BDE8F08F620700D4062709F1070222F03E
:102FF000070CFCE80223E14603F000485FEA080CF6
:1030000002D00FF2702C0DE05FEA045C02D50FF2E3
:10301000682C07E05FEAC47C02D00FF2602C01E06C
:10302000AFF2700C4FF0FF3823F00043CDF850C0E2
:1030300065280CD006DC452809D046281DD0472835
:103040003DD13DE0662818D067287ED138E00021C8
:10305000112F01DB112000E0781CCDE9000106A949
:103060000EA8FFF7DDFCDDE90F010E9A03910021A8
:10307000009207F1010A04914DE04FF000400097E3
:10308000CDE9011006A90EA8FFF7CAFCDDE90F0281
:1030900003920E9B11990022DDF80CA0009304927C
:1030A00011B9791C00EB010AB7EB0A0004D4C0F196
:1030B000FF3007F1010A0490AAEB0700019044E0F9
:1030C000012F00DA01270021112F01DD112000E07E
:1030D0003846CDE9000106A90EA8FFF7A1FCDDE9FD
:1030E0000F010E9A0391002104910092BA46210724
:1030F0000CD40399514500DA8A46BAF1010F05DD77
:10310000009AAAF10101515C302908D0B84202DAD4
:1031100010F1040F06DA0121CDE9011015E0AAF142
:103120000101E9E7002805DC049901440491AAEBB8
:10313000000102E0411C514500DD8A460499401A15
:10314000401C01904FF000400290200704D40198E9
:10315000504501DBCDF8048000208DF84F00029827
:103160000DF14F07B0F1004F25D02B200E900298A3
:103170004FF0020800280CDA404202902D200E90F9
:1031800007E00A210298FDF72DF93031029007F887
:10319000011DB8F10001A8F10108F2DC0298002835
:1031A000EFD1791E0E980870307800F0200040F0C2
:1031B000450007F8020D12A8C01B00F1070814987B
:1031C000007800B1012000EB0A01019801EBE071E9
:1031D00005984144401A401E0590E00306D45B4622
:1031E0002146179A059800F05DF805441498007878
:1031F00018B15A46179990476D1CE00324D55B46D9
:103200002146179A059800F04DF805441CE00498F3
:10321000002807DBDDE90301884203DD0098405CFC
:10322000179901E0179930205A469047049805F104
:103230000105401C04900198401E019004D12E20ED
:103240005A46179990476D1CBAF10001AAF1010A7C
:10325000DDDC05E017F8010B5A46179990476D1C05
:10326000B8F10001A8F10108F4DC5B462146179A89
:103270000598ABE62D0000002B00000020000000A8
:103280002DE9F041044600251E461746880404D463
:1032900005E039462020B0476D1C641EF9D528464C
:1032A000BDE8F0812DE9F041044600251E46904618
:1032B000C80301D5302700E02027880404D505E0A5
:1032C00041463846B0476D1C641EF9D52846BDE816
:1032D000F0810A68531C0B601070704713B54FF0F3
:1032E000FF33012269460248FEF7F6FC00981CBD38
:1032F0005401002070B5334C4FF4805529462046C8
:10330000FDF774FDC8B90220FDF766FC294620468A
:10331000FDF76CFD88B929462046FDF767FD0028BA
:10332000F9D0FEF76FFF284901220A704878401C47
:10333000C0B24870032800D94A704FF4005529469E
:103340002046FDF753FD68B91420FDF745FC2946DA
:103350002046FDF74BFD28B929462046FDF746FDDE
:103360000028F9D04FF4804529462046FDF73EFD60
:1033700068B91420FDF730FC29462046FDF736FDDC
:1033800028B929462046FDF731FD0028F9D04FF431
:103390000046254631462846FDF728FD00280FD176
:1033A0001420FDF719FC344621462846FDF71EFD82
:1033B000002805D121462846FDF718FD0028F9D040
:1033C00070BD0000000C0140A000002010B50D48A9
:1033D0000178012915D14078012807D0022810D1A1
:1033E000FDF76EF9BDE81040FFF70AB8064800681F
:1033F00018B9FEF707FFFFF77DF8BDE81040FFF7AB
:1034000079B810BDA0000020580000200EB5FDF7CF
:10341000A5FEFFF777F9FEF719FEFEF77FFEFEF730
:10342000D3FEFEF79BFE1548FEF784FAFEF704FF75
:10343000FEF7E8FEC020FDF7BDFA78B95021212241
:10344000CDE900210020029027230322012123201F
:10345000FDF73EFB0121C020FDF78EFB084C09A0C3
:1034600094E80E00FFF798FAFDF754FAFDF728F9F3
:10347000FFF740FFFFF7AAFFF1E700000C01002073
:103480007C000020616C61726D3A2025643A2564ED
:103490003A25640D0A0000002DE9F05F0024194F61
:1034A000DFF86480194DDFF86890DFF868B0012616
:1034B0004FF4006A04EB44003A6855F8201091423A
:1034C00012D105EB8000D8F8001042688A4212D170
:1034D0008168D9F8000081420DD10022514658463A
:1034E000FDF78BFC002606E0012E04D10122514697
:1034F0005846FDF782FC641CE4B2042CDAD9BDE81E
:10350000F09F000050000020540000207C000020AC
:1035100058000020000C01400000000000000000E6
:10352000002F000000000700070000147F147F1424
:1035300000242A7F2A1200626408132300364955AA
:10354000225000000503000000001C224100000082
:1035500041221C000014083E08140008083E080818
:10356000000000A060000008080808080000606073
:103570000000002010080402003E5149453E0000B2
:10358000427F4000004261514946002141454B3194
:10359000001814127F10002745454539003C4A4960
:1035A00049300001710905030036494949360006D2
:1035B0004949291E0000363600000000563600003A
:1035C00000081422410000141414141400004122B5
:1035D000140800020151090600324959513E007C8D
:1035E0001211127C007F49494936003E4141412277
:1035F000007F4141221C007F49494941007F090960
:103600000901003E4149497A007F0808087F00000F
:10361000417F4100002040413F01007F08142241CA
:10362000007F40404040007F020C027F007F040882
:10363000107F003E4141413E007F09090906003EDE
:103640004151215E007F0919294600464949493107
:103650000001017F0101003F4040403F001F20402A
:10366000201F003F4038403F0063140814630007E8
:103670000870080700615149454300007F4141003F
:1036800000552A552A55000041417F0000040201DF
:1036900002040040404040400000010204000020BD
:1036A00054545478007F48444438003844444420FB
:1036B00000384444487F00385454541800087E09A8
:1036C00001020018A4A4A47C007F08040478000070
:1036D000447D4000004080847D00007F102844002D
:1036E0000000417F4000007C04180478007C08043E
:1036F000047800384444443800FC2424241800187A
:10370000242418FC007C0804040800485454542065
:1037100000043F444020003C4040207C001C2040EE
:10372000201C003C4030403C004428102844001C31
:10373000A0A0A07C004464544C4414141414141429
:103740000000000000000000000000000000000079
:10375000000000F80000000000000033300000000E
:1037600000100C06100C0600000000000000000015
:1037700040C07840C0784000043F04043F04040087
:10378000007088FC08300000001820FF211E000097
:10379000F008F000E018000000211C031E211E00AC
:1037A00000F00888700000001E2123241927211032
:1037B00010160E00000000000000000000000000D5
:1037C000000000E01804020000000007182040007C
:1037D00000020418E000000000402018070000006C
:1037E000404080F0804040000202010F01020200D0
:1037F000000000F0000000000101011F01010100B4
:10380000000000000000000080B070000000000018
:1038100000000000000000000001010101010101A1
:103820000000000000000000003030000000000038
:10383000000000008060180400601806010000000D
:1038400000E010080810E000000F102020100F000A
:10385000001010F8000000000020203F2020000091
:1038600000700808088870000030282422213000E9
:1038700000300888884830000018202020110E00F1
:103880000000C02010F8000000070424243F24009A
:1038900000F80888880808000019212020110E006F
:1038A00000E0108888180000000F112020110E0081
:1038B00000380808C83808000000003F0000000079
:1038C0000070880808887000001C222121221C003A
:1038D00000E010080810E0000000312222110F0063
:1038E000000000C0C00000000000003030000000F8
:1038F0000000008000000000000080600000000068
:103900000000804020100800000102040810200080
:1039100040404040404040000404040404040400CB
:103920000008102040800000002010080402010060
:10393000007048080808F000000000303601000060
:10394000C030C828E810E0000718272423140B0013
:103950000000C038E0000000203C2302022738208D
:1039600008F8888888700000203F202020110E0071
:10397000C030080808083800071820202010080068
:1039800008F808080810E000203F202020100F0051
:1039900008F88888E8081000203F2020232018001D
:1039A00008F88888E8081000203F20000300000085
:1039B000C03008080838000007182020221E020026
:1039C00008F808000008F808203F210101213F20E5
:1039D000000808F8080800000020203F2020000010
:1039E00000000808F8080800C08080807F00000000
:1039F00008F888C028180800203F20012638200039
:103A000008F8080000000000203F2020202030009F
:103A100008F8F800F8F80800203F003F003F2000B9
:103A200008F830C00008F808203F200007183F00C1
:103A3000E01008080810E0000F10202020100F00F0
:103A400008F808080808F000203F210101010000E3
:103A5000E01008080810E0000F18242438504F0028
:103A600008F8888888887000203F2000030C3020E8
:103A700000708808080838000038202121221C0026
:103A8000180808F8080818000000203F200000006F
:103A900008F808000008F808001F202020201F0058
:103AA0000878880000C83808000007380E010000B8
:103AB000F80800F80008F800033C0700073C030082
:103AC000081868808068180820302C03032C3020E8
:103AD0000838C800C83808000000203F2000000057
:103AE00010080808C83808002038262120201800AF
:103AF000000000FE020202000000007F4040400083
:103B0000000C30C000000000000000010638C000BA
:103B100000020202FE000000004040407F00000062
:103B20000000040202020400000000000000000087
:103B30000000000000000000808080808080808085
:103B4000000202040000000000000000000000006D
:103B500000008080808000000019242222223F2063
:103B600008F8008080000000003F112020110E00A6
:103B70000000008080800000000E11202020110035
:103B8000000000808088F800000E112020103F20E7
:103B90000000808080800000001F2222222213006B
:103BA000008080F0888888180020203F20200000B6
:103BB0000000808080808000006B9494949360006B
:103BC00008F8008080800000203F210000203F2076
:103BD00000809898000000000020203F2020000076
:103BE000000000809898000000C08080807F000066
:103BF00008F8000080808000203F24022D30200043
:103C0000000808F8000000000020203F20200000ED
:103C10008080808080808000203F20003F20003F07
:103C20008080008080800000203F210000203F2015
:103C30000000808080800000001F202020201F00C6
:103C4000808000808000000080FFA12020110E00F5
:103C50000000008080808000000E112020A0FF80E6
:103C6000808080008080800020203F212000010093
:103C700000008080808080000033242424241900E8
:103C8000008080E0808000000000001F20200000F5
:103C90008080000000808000001F202020103F2036
:103CA000808080000080808000010E3008060100C6
:103CB00080800080008080800F300C030C300F006B
:103CC00000808000808080000020312E0E31200096
:103CD000808080000080808080818E7018060100C6
:103CE00000808080808080000021302C22213000E4
:103CF00000000000807C020200000000003F404005
:103D00000002027C800000000040403F00000000F4
:103D100000000000FF00000000000000FF000000A5
:103D20000000041464040CB40202423302000000D8
:103D30000000000000000000000000000000000083
:103D400040412111090503FF0305091121414000EC
:103D50000000000000000000000000000000000063
:103D60001010D0FF900010919690F0909493100056
:103D70000000000000000000000000000000000043
:103D8000040300FF000104040404FF04040404000D
:103D90000000000000000000000000000000000023
:103DA000008060F80704E4A4A4BFA4A4E404000015
:103DB0000000000000000000000000000000000003
:103DC000010000FF40407F4A4A4A4A4A7F40400083
:103DD00000000000000000000000000000000000E3
:103DE0000000F888888888FF88888888F8000000A4
:103DF00000000000000000000000000000000000C3
:103E000000001F080808087F888888889F80F000C5
:103E100000000000000000000000000000000000A2
:103E20000000FE0282828282FA8282828282020004
:103E30000000000000000000000000000000000082
:103E400080601F40404040407F4040445840400018
:103E50000000000000000000000000000000000062
:103E6000008060F80704E4A4A4BFA4A4E404000054
:103E70000000000000000000000000000000000042
:103E8000010000FF40407F4A4A4A4A4A7F404000C2
:103E90000000000000000000000000000000000022
:103EA0000000000000000000000000000000000012
:103EB0000000000000000000000000000000000002
:103EC0000000363600000000000000000000000086
:103ED00000000000000000000000000000000000E2
:103EE0001060028C0000FE9292929292FE000000FE
:103EF00000000000000000000000000000000000C2
:103F000004047E01407E42427E427E42427E400068
:103F100000000000000000000000000000000000A1
:103F20000000FC242424FC252624FC242424040052
:103F30000000000000000000000000000000000081
:103F400040308F80844C55252525554C808080003D
:103F50000000000000000000000000000000000061
:103F60001060028C00FE929292929292FE000000EB
:103F70000000000000000000000000000000000041
:103F800004047E014448507F40407F504844400034
:103F90000000000000000000000000000000000021
:103FA0000000FC242424FC252624FC2424240400D2
:103FB0000000000000000000000000000000000001
:103FC00040308F80844C55252525554C80808000BD
:103FD00000000000000000000000000000000000E1
:103FE00000FC848484FC001010101010FF101000DE
:103FF00000000000000000000000000000000000C1
:10400000003F1010103F0000010640807F000000BC
:1040100000000000000000000000000000000000A0
:1040200000F8010600F0121212F2020202FE000075
:104030000000000000000000000000000000000080
:1040400000FF0000001F1111111F0040807F0000C1
:104050000000000000000000000000000000000060
:10406000004042445840407F40405048C600000055
:104070000000000000000000000000000000000040
:10408000004044444444444444444444FF00000049
:104090000000000000000000000000000000000020
:1040A0000808E8292E28E80808C80C0BE8080800CA
:1040B0000000000000000000000000000000000000
:1040C0000000FF0949897F00000F40807F00000049
:1040D00000000000000000000000000000000000E0
:1040E000000000FE82828282828282FE0000000046
:1040F00000000000000000000000000000000000C0
:10410000000000FF40404040404040FF00000000F1
:10411000000000000000000000000000000000009F
:10412000000000FE2222222222222222FE00000083
:10413000000000000000000000000000000000007F
:104140008040300F02020202020242827F00000021
:10415000000000000000000000000000000000005F
:10416000002018C744444444FC4444444404000030
:10417000000000000000000000000000000000003F
:104180000404040704040404FF04040404040400F5
:10419000000000000000000000000000000000001F
:1041A00000FC848484FC001010101010FF1010001C
:1041B00000000000000000000000000000000000FF
:1041C000003F1010103F0000010640807F000000FB
:1041D00000000000000000000000000000000000DF
:1041E000804020908886808080838C1020408000D2
:1041F00000000000000000000000000000000000BF
:10420000008040201807004080403F000000000070
:10421000000000000000000000000000000000009E
:104220002424A4FE232200C03800FF0008106000F0
:10423000000000000000000000000000000000007E
:10424000080601FF01068180404027100C03000092
:10425000000000000000000000000000000000005E
:104260000000FE82929292FE92929282FE000000E4
:10427000000000000000000000000000000000003E
:1042800080601F00001E1212121E40807F0000007E
:10429000000000000000000000000000000000001E
:1042A00000000000000000000102030406070809E6
:1042B0000000000001020304D842000800000020B2
:1042C000B8000000002A000890430008B800002051
:1042D000E0040000102A0008AE001040B081FFA1E9
:1042E000A6A83FC8D300D580D805D9F1DA12D830B6
:1042F0008D14AF000000000000000000000000006E
:1043000000000000000000000000000000000000AD
:10431000000000000000000000000000000000009D
:10432000000000000000000000000000000000008D
:10433000000000000000000000000000000000007D
:10434000000000000000000000000000000000006D
:10435000000000001300000018000000140000001E
:1043600013000000180000001E0000000000000004
:10437000000000000000000001010000010000003A
:1043800010000000000000000024F4000000000005
:04000005080000ED02
:00000001FF
