:020000040800F2
:10000000080A002001010008632200081D1E0008E4
:1000100061220008D1060008A72C0008000000009B
:10002000000000000000000000000000AB250008F8
:10003000A10B00080000000085240008452A0008E4
:100040001B0100081B0100081B0100081B01000820
:100050001B0100081B0100081B0100081B01000810
:100060001B0100081B0100081B0100081B01000800
:100070001B0100081B0100081B0100081B010008F0
:100080001B0100081B0100081B0100081B010008E0
:100090001B0100081B0100081B0100081B010008D0
:1000A0001B010008A92A00081B0100081B01000809
:1000B0001B0100081B0100081B0100081B010008B0
:1000C0001B0100081B0100081B0100081B010008A0
:1000D0001B0100081B0100081B0100081B01000890
:1000E0001B0100081B0100081B010008DFF80CD0F1
:1000F00000F0DCFA0048004769380008080A0020D0
:100100000648804706480047FEE7FEE7FEE7FEE7B1
:10011000FEE7FEE7FEE7FEE7FEE7FEE7A52A0008AA
:10012000ED000008202A04DB203A21FA02F0002129
:10013000704721FA02F3D040C2F1200291400843F7
:1001400019467047D2B201E000F8012B491EFBD2DC
:1001500070470022F6E710B513460A4604461946D2
:10016000FFF7F0FF204610BD2DE9FE4F804681EAE3
:100170000300C00F0C46009021F0004123F0004521
:10018000B8EB0200A94105D24046214690461C46E4
:100190000B46024623F00040104347D0270DC7F31B
:1001A0000A00C3F30A510290401A019040286BDA0A
:1001B000C3F3130040F4801B0098924620B1002343
:1001C000D2EB030A63EB0B0B01985946C0F14002D6
:1001D000504600F066F906460D4650465946019ACB
:1001E00000F06EF910EB08006141002487EA11521B
:1001F00084EAE7731A4340D0009A62B3019A012A55
:100200004FEA075215DC001B61EB02014FF0004280
:1002100002EA0752CDE90042001C41F58011324646
:100220002B4600F06EF903B0BDE8F08F4046214642
:10023000F9E7001B61EB0201001C41F58013001877
:100240005B412018A2F5001747EB030140EAD57087
:10025000B6196D4111E06D084FEA360645EAC075E2
:100260004FEA0752001B61EB0201001C41F58011AF
:1002700049084FEA30000019514132462B4603B07D
:10028000BDE8F04F00F02EB9009801224000002395
:10029000D0EB020263EBE073009821464FEAE07472
:1002A000B8EB000061EB0401E9E783F000435BE792
:1002B00081F0004158E72DE9FE4F81EA030404F084
:1002C000004421F0004100944FF0000B23F0004364
:1002D00050EA01045ED052EA03045BD0C3F30A542F
:1002E000C1F30A552C44A4F2F3340194A0FB025448
:1002F000C1F3130141F48011C3F3130343F48013DA
:1003000001FB024400FB034E840A970A44EA81542D
:1003100047EA8357A4FB076802958D0A05FB07850A
:100320004FEA932C04FB0C542705029D4FEA065814
:1003300047EA1637B5EB08056EEB070C870E920EF1
:1003400047EA811742EA8312A7FB0201B6EB0B01D1
:1003500064EB00042B0D43EA0C335E1844EB1C5095
:10036000DA465146E7FB0201C5F313044FEA0B33AB
:1003700043EA14534FEA0432019C43EA0603A4F112
:100380000C040294009CCDE900B400F0BAF803B06C
:10039000BDE8F08F00200146F9E70EB540F2334189
:1003A00002910021CDE900110A460B4600F0A9F8A0
:1003B00003B000BD30B5041E71F1000404DB4FF042
:1003C0000044404264EB0101141E73F1000405DB9C
:1003D0001C464FF00043524263EB04038B4208BFBC
:1003E000824230BD30B5041E71F1000404DB4FF0D1
:1003F0000044404264EB0101141E73F1000405DB6C
:100400001C464FF00043524263EB0403994208BF7D
:10041000904230BD30B50B46014600202022012419
:1004200009E021FA02F59D4205D303FA02F5491BC2
:1004300004FA02F52844151EA2F10102F1DC30BDD8
:100440002DE9F05F0546002092469B468846064609
:10045000814640241BE02846414647462246FFF796
:1004600061FE53465A46C01A914110D311461846B0
:10047000224600F016F82D1A67EB01084F46224677
:100480000120002100F00DF817EB00094E41201E5D
:10049000A4F10104DFDC484631462A464346BDE864
:1004A000F09F202A04DB203A00FA02F10020704776
:1004B0009140C2F1200320FA03F3194390407047A2
:1004C000202A06DBCB17203A41FA02F043EAE07318
:1004D00006E041FA02F3D040C2F120029140084305
:1004E0001946704710B5141E73F1000408DA401C59
:1004F00041F1000192185B411A4301D120F0010043
:1005000010BD2DE9F04D92469B4611B1B1FA81F232
:1005100002E0B0FA80F220329046FFF7C2FF0446B4
:100520000F4640EA0A0041EA0B0153465A46084387
:1005300013D0114653EA010019D0C8F140025046C9
:10054000FFF7F0FD05460E46504659464246FFF776
:10055000A8FF084305D0012004E020463946BDE845
:10056000F08D0020054346EAE0762C4337430A9895
:100570006305E40AA0EB08000022FD0A44EA4754A0
:100580000A3002D500200146E9E70105101969414A
:10059000DDE9084500196941BDE8F04DA2E72DE904
:1005A000F04D81EA030404F0004B21F000451446AD
:1005B0004FF0000A23F0004150EA050220D054EA2F
:1005C00001021DD0C5F30A570246C5F31303C1F358
:1005D0001300C1F30A5640F4801543F48013A7EBCF
:1005E0000608101BD64608F2FD3873EB050002D34F
:1005F00008F1010801E092185B41B8F1000F03DA3D
:1006000000200146BDE8F08D00204FF48011064621
:1006100084460EE0171B73EB050705D3121B63EB33
:10062000050306434CEA010C49084FEA30009218D2
:100630005B4150EA0107EDD152EA030012D082EA91
:10064000040083EA0501084305D0101BAB4106D224
:100650000122002306E000224FF0004302E06FF089
:10066000010253101AEB06004CEB085110EB0A0084
:1006700041EB0B01BDE8F04DFFF734BFC1F30A5267
:10068000C1F3130140F2FF3341F480119A4202DAC0
:1006900000200146704740F233439A42A2F23342AF
:1006A00002DC5242FFF73EBDFFF7FBBE064C074D92
:1006B00006E0E06840F0010394E807009847103432
:1006C000AC42F6D3FFF716FD944C0008B44C00087A
:1006D000FEE7000010B5044600F004FF0349B0FB3C
:1006E000F1F06043401EFDD210BD000000093D0046
:1006F00010B500F07BF8012807D005A002F0EEFA53
:10070000BDE81040322000F0C7BA09A0F6E70000AB
:100710004448543131C3BBD3D0D3A6B4F0A3ACC743
:10072000EBBCECB2E9B4ABB8D0C6F7210D0A0000BF
:10073000CAFDBEDDD0A3D1E9B3C9B9A6210D0A0017
:1007400010B52820FFF7C6FF4FF40071034800F0F2
:10075000FBFB08B1002010BD012010BD000C0140C2
:100760001FB50A4B4FF40072012120B10020009206
:10077000CDE9010104E00320CDE90021CDE902101B
:100780006946184600F0FAFA1FBD0000000C01404F
:1007900070B50D4D4FF400742146284600F0D4FB8F
:1007A0000028F9D02820FFF795FF2146284600F0C1
:1007B000CBFB002806D02146284600F0C5FB0028C8
:1007C000F9D1012070BD0000000C014070B500247B
:1007D00025466006040EFFF7DBFF08B144F0010474
:1007E0006D1CEDB2082DF4D3204670BDFEB500207F
:1007F0000190029000F06CF8FFF7A2FF002849D0AA
:10080000254D4FF400742146284600F09DFB00283A
:10081000F9D02146284600F097FB0028F9D10024A2
:1008200001ADFFF7D3FF2855641CE4B2052CF8D3C3
:100830009DF804009DF805109DF8062001449DF8E0
:100840000700024411449DF80820914220D105463A
:10085000FFF7A3FD114A124BFFF72DFD9DF806404F
:1008600006460F462046FFF798FD32463B46FFF707
:100870007BFC0C4A2346C2E904019DF80410516038
:1008800000959DF8052008A002F028FA0120FEBD81
:100890000020FEBD0220FEBD000C01409A999999EE
:1008A0009999B93F20000020B5B1C7B0CAAAB6C80F
:1008B000A3BA25642E256425252020B5B1C7B0CE66
:1008C000C2B6C8A3BA25642E2564A1E3430D0A006D
:1008D00010B50020FFF744FF00224FF400710548D7
:1008E00000F037FB142000F0D7F9BDE810400120DC
:1008F000FFF736BF000C0140F0B587B004A800F048
:10090000CFF89DF8100000F00F01000900EB800007
:1009100001EB4001234801F5FA61C1609DF8122006
:1009200002F00F03120902EB820203EB42020261A2
:100930009DF8133003F00F041B0903EB830304EB52
:10094000430343619DF8144004F00F05240904EBB0
:10095000840405EB440484619DF8155005F00F06EE
:100960002D0905EB850506EB4505C5619DF816606B
:1009700006F00F07360906EB860607EB4606066209
:100980009DF8117007F00F0C3F0907EB87070CEB80
:10099000470747628DE8F00003A002F09FF907B017
:1009A000F0BD00005800002025642D25642D25642D
:1009B0002025643A25643A256420D0C7C6DA256428
:1009C0000D0A00007FB5354E05460024224604215D
:1009D000304600F0BEFA012000F05EF90022082146
:1009E000304600F0B6FA012000F056F90122042149
:1009F000304600F0AEFA012000F04EF9284600F033
:100A000079F80020019003900220009001200290CC
:100A10006946304600F0B2F9002500220821304630
:100A200000F097FA64080221304600F08DFA0128A0
:100A300001D144F0800401220821304600F089FAF7
:100A40006D1C082DE9DB00220421304600F081FAFC
:100A5000012000F021F900220821304600F079FA47
:100A6000012000F019F901220821304600F071FA46
:100A7000012000F011F900220221304600F069FA4D
:100A8000012000F009F901220221304600F061FA4C
:100A9000012000F001F904B0204670BD00080140BB
:100AA0001CB504468D20FFF78DFF8DF800008B20CC
:100AB000FFF788FF8DF801008920FFF783FF8DF88D
:100AC00002008720FFF77EFF8DF803008520FFF7E7
:100AD00079FF8DF804008320FFF774FF8DF805007F
:100AE0008120FFF76FFF00992160BDF80410A180FD
:100AF000A0711CBD7FB50546002002900220012197
:100B0000CDE900010F4E03906946304600F036F9FA
:100B1000002400220821304600F01BFAE80701D02B
:100B2000012200E000220221304600F012FA6D0896
:100B300001220821304600F00CFA641C082CE8DB86
:100B40007FBD00000008014070B5144C0E460546FC
:100B500000220421204600F0FCF9012000F09CF85E
:100B600000220821204600F0F4F9012000F094F85A
:100B700001220421204600F0ECF9012000F08CF85D
:100B80002846FFF7B7FF3046FFF7B4FF2046BDE821
:100B900070400022042100F0DCB900000008014090
:100BA000704772B6FEE70000044B0022DA61044A87
:100BB000136943F00103136101807047E8050020C9
:100BC0000020024014490020CA68D306134A04D505
:100BD000D06940F00200D0611020CB685B0705D5DA
:100BE000D36943F00103D36140F00400CB69DB0714
:100BF00007D0D36943F00403D361CA6922F001022C
:100C0000CA61A0F58072013A01D0C8607047C86916
:100C100020F00100C861704700200240E805002074
:100C200070B5044600F09AF90546114E09E0601CC3
:100C300007D024B100F092F9401BA04201D9032053
:100C400070BDF068C007F2D1F068800601D52020A1
:100C5000F060F068C00605D4F069C00702D1F06802
:100C6000400703D5FFF7AEFF012070BD002070BD27
:100C700000200240064A0021D16106490A6942F07B
:100C800002020A614861086940F04000086170474B
:100C9000E80000200020024070B5044600F05EF934
:100CA0000546601C02D004480078044400F056F960
:100CB000401BA042FAD370BDA40000200348016984
:100CC00041F08001016100207047000000200240D7
:100CD0002DE9F05F05461D4888460024017E164632
:100CE0001F46012909D00121814601764CF2503A74
:100CF0005046FFF795FF18B123E00220BDE8F09FB2
:100D0000012D02D0022D00D00425D346DFF840A0EB
:100D100015E0220130463946FFF704FA81B208EBAC
:100D20004400FFF741FF5846FFF77AFFDAF810203A
:100D300022F00102CAF8102018B9641CE4B2AC42D7
:100D4000E7D3002289F81820D8E70000E805002042
:100D500000200240064900200A69120607D5054A0C
:100D60004A60054A4A600969090600D501207047B2
:100D70000020024023016745AB89EFCD2DE9F84FF4
:100D8000DFF8A491002409F1040A0AF1040B2346B8
:100D90004FF00F080BF1040EBEE00127A7403A40C8
:100DA000BA4272D1DFF884C14D68A5EB0C066545E7
:100DB0002BD00DDC032D34D005DC35B3012D19D03B
:100DC000022D2FD11BE0112D16D0122D2AD119E0A2
:100DD000B6F5881F19D006DCB6F5803F15D0B6F5FC
:100DE000801F1FD111E0B6F5001F0ED0B6F5041F0D
:100DF00018D10AE0CB6815E0CB681B1D12E0CB6868
:100E000008330FE0CB680C330CE08B682BB1012B5F
:100E10004FF0080303D0476104E0042302E00761B8
:100E200000E00023FF2A01D8064601E000F1040695
:100E30004FEA840501D9A5F12005376808FA05FCB9
:100E400027EA0C0703FA05F547EA050737604D68FE
:100E5000ED0060D5364DAE6946F00106AE61AD6974
:100E600024F0030605F001050095324D7719BE68A0
:100E7000A5072D0F08FA05FC26EA0C06DFF8B8C016
:100E8000604503D14FF0000C17E044E0DFF8ACC040
:100E9000604502D14FF0010C0FE0DFF8A4C06045BF
:100EA00002D14FF0020C08E0DFF898C0604502D193
:100EB0004FF0030C01E04FF0040C0CFA05FC4CEA77
:100EC000060CC7F808C04D68D9F80060ED034D4620
:100ED00001D5164300E096432E604D68DAF80060B5
:100EE000AD03554601D5164300E096432E604D688C
:100EF000DBF80060ED025D4601D5164300E0964345
:100F00002E604D68DEF80060AD02754601D51643CF
:100F100000E096432E60641C0A6832FA04F57FF400
:100F20003CAFBDE8F88F0000000401400000111044
:100F3000001002400000014000080140000C014088
:100F400000100140001401408068084000D00120DA
:100F500070470AB1016170470904FBE701488068E6
:100F600070470000A400002070B5040025D094F85C
:100F70003D00002520B984F83C50204600F050F98F
:100F8000242084F83D002068016821F001010160FF
:100F90002068016841F4004101602068016821F483
:100FA0000041016000F0A4FA4D4B6168994201D8FC
:100FB0004C4900E04C49884201D2012070BD4B49A8
:100FC0002268B0FBF1F1566826F03F060E435660EA
:100FD00062689A4206D94FF4967251434FF47A727E
:100FE000B1FBF2F12268491C166A26F03F06314334
:100FF00011626168994210D84900401EB0FBF1F2BD
:10100000521CC2F30B02042A01D2042022E0B0FBDE
:10101000F1F0401CC0F30B001CE0A268F2B301EB3E
:10102000C10303EB0116431EB3FBF6F35B1C43F451
:1010300080431B0549D092B301EBC10202EB0111C1
:10104000401EB0FBF1F0401CC0F30B0040F48040A8
:1010500040F400402168CA694CF6FF739A4310437C
:10106000C861D4E9071001432068026822F0C00279
:1010700011430160D4E9030101432068826848F20A
:10108000FF339A4311438160D4E90510014320687E
:10109000C26822F0FF021143C16001E00EE016E0D9
:1010A0002068016841F0010101602564202084F876
:1010B0003D00256384F83E50002070BD01EB4106E1
:1010C000431EB3FBF6F35B1CB3E70120C2E701EB61
:1010D0004101401EB0FBF1F0401CC0F30B00B7E72C
:1010E000A086010080841E0000093D0040420F00E0
:1010F0002DE9FF4F83B09A46DDE9119793460446E8
:10110000DDF84080FFF72AFF054694F83D002028CF
:101110007FD11923012240492046009500F010FF9D
:10112000002876D194F83C00012872D0012084F880
:101130003C0020680168C90703D1016841F0010142
:1011400001602068016821F400610160212084F8B9
:101150003D00402084F83E0000262664C4F8248028
:10116000A4F82A90608D20852C48E062CDE90075B6
:1011700053465A462046049900F068FE70B930E0A4
:101180002A463946204600F05BFF58B1206C0428FF
:1011900004D12068016841F400710160012007B0AA
:1011A000BDE8F08F606A216800780861626A521CAD
:1011B0006262208D401E80B22085618D491E61854E
:1011C00021684B69DB435B070BD468B11078086179
:1011D000606A401C6062208D401E2085608D401E2C
:1011E0006085208D0028CBD12A463946204600F064
:1011F00081FE0028CAD154F83D0B016841F400710A
:101200000160202004F81E09E67766770020C6E713
:10121000FFE70220C3E70000020010000000FFFF0C
:1012200010B586B0002100910191029103910068F0
:101230000F4988421AD10F4CA06940F00800A06104
:10124000A069694600F008000490C02000901220B8
:101250000190032003900848FFF790FDE06940F4F7
:101260000010E061E06900F40010049006B010BDC9
:101270000054004000100240000C01400248816808
:101280000278114481607047A4000020074810B51F
:10129000016841F010010160032000F075F80F2093
:1012A00000F006F800F024F8002010BD00200240F5
:1012B00070B50D4D04464FF47A712878B1FBF0F00B
:1012C0000A490968B1FBF0F000F0F4FA48B9102CB3
:1012D00007D200222146501E00F036F800206C6034
:1012E00070BD012070BD0000A4000020B0000020EF
:1012F0000C4808B5816941F001018161816901F003
:1013000001010091C16941F08051C161C069064984
:1013100000F080500090486820F0E06040F00070DD
:10132000486008BD0010024000000140002809DBB1
:1013300000F01F02012191404009800000F1E020EF
:10134000C0F8001170470000F0B40E4B1B68C3F3E7
:101350000223C3F10704042C00D904241D1D072D0A
:1013600001D2002300E0DB1E012606FA04F56D1E03
:101370000D409D409E40761E164045EA0601F0BC99
:1013800001F0D0BC0CED00E0064A00F00701106847
:101390004FF6FF03184040EA01200349084310605C
:1013A000704700000CED00E00000FA052DE9F04761
:1013B0000D46040067D0DFF81881D8F8000000F06F
:1013C0000700A8420CD2D8F8001021F007012943E9
:1013D000C8F80010D8F8000000F00700A84252D169
:1013E00020683C4E810712D5400703D5706840F451
:1013F000E06070602078000703D5706840F46050AA
:1014000070607068A16820F0F00008437060207878
:10141000C00727D06068012810D03168022810D09A
:10142000890700292FDA716821F0030101437160F7
:10143000FFF794FD074641F288390CE031688903D3
:10144000EFE78901EDE7FFF789FDC11B494502D9A7
:101450000320BDE8F0877068616800F00C00B0EB15
:10146000810FF0D1D8F80010404601F00701A942E1
:101470000BD9016821F0070129430160006800F0E1
:101480000700A84201D00120E3E72078400705D5F6
:101490007068E16820F4E06008437060207800071D
:1014A00006D57068216920F4605040EAC100706080
:1014B00000F03EF87168084AC1F30311515CC8405E
:1014C0000649086006480068FFF7F2FE0020C0E702
:1014D00000200240001002407C4C0008B0000020B8
:1014E000A80000200148006870470000B0000020FC
:1014F0000448054900684968044AC1F30221515C67
:10150000C8407047B0000020001002408C4C00081A
:101510000448054900684968044AC1F3C221515C86
:10152000C8407047B0000020001002408C4C0008FA
:1015300012A085B00FC88DE80F0014A0144B0068EE
:1015400004905968134801F00C02042A10D0082AAC
:101550000ED1C1F38342C9031DF802000AD55968B0
:1015600004AAC1F34041515C0A4A5043B0FBF1F078
:1015700005B0704708494843FAE700000203040534
:10158000060708090A0B0C0D0E0F101001020000CF
:101590000010024000127A0000093D002DE9F84FCA
:1015A00004006FD02078BE4DC00747D06868C0F3F4
:1015B0008100012807D06868C0F38100022809D1A2
:1015C0006868C00306D52868800337D5606800289E
:1015D000E7D033E06068B0F5803F0BD010B1B0F5D4
:1015E000A02F11D0286820F480302860286820F4CB
:1015F000802002E0286840F480302860606888B16C
:10160000FFF7ACFC064609E0286840F4802028601B
:10161000F0E7FFF7A3FC801B642873D828688003D9
:10162000F7D50BE0FFF79AFC064604E0FFF796FCBF
:10163000801B6428F1D828688003F7D42078DFF86D
:10164000648280074FF0010A4FF0000939D56868BD
:1016500010F00C0F07D06868C0F38100022809D190
:101660006868C00306D42868800714D5206901285B
:1016700008D110E02069B0B1C8F800A0FFF76EFCF7
:10168000064605E007E1FFF769FC801B0228C4D885
:1016900028688007F7D52868616920F0F80040EADB
:1016A000C10028600DE0C8F80090FFF757FC06461F
:1016B00004E0FFF753FC801B022823D8286880072A
:1016C000F7D4207800072CD57748A169D9B1C0F8A4
:1016D00000A0FFF743FC064604E0FFF73FFC801B39
:1016E00002280FD8686A8007F7D570484FF4FA517E
:1016F0000068B0FBF1F0009000BF0098411E00911F
:10170000FAD20EE07CE0C0F80090FFF727FC064616
:1017100004E0FFF723FC801B022871D8686A800769
:10172000F7D4207840075BD5E8690027C00008D4CB
:10173000E86940F08050E861E869012700F08050D6
:1017400000905B480168C90511D40168834641F4E3
:1017500080710160FFF702FC064604E0FFF7FEFB24
:10176000801B64284CD8DBF80000C005F6D5E06883
:1017700001280AD008B1052813D0286A20F00100FA
:101780002862286A20F0040002E0286A40F0010084
:101790002862E06841F2883B88B1FFF7DFFB06462C
:1017A00009E0286A40F004002862EEE7FFF7D6FB64
:1017B000811B59455BD8286A8007F7D50BE0FFF7F6
:1017C000CDFB064604E0FFF7C9FB811B59454ED807
:1017D000286A8007F7D41FB1E86920F08050E861DB
:1017E000E069A8B36968C1F38101022946D00228E3
:1017F000484606D0C8F86000FFF7B0FB044639E061
:1018000035E04746C8F86000FFF7A8FB064604E04D
:10181000FFF7A4FB801B022829D828688001F7D491
:10182000206AB0F5803F05D16868A16820F40030D7
:1018300008436860D4E908010843696821F4741119
:1018400008436860C7F860A0FFF788FB044605E01E
:1018500023E0FFF783FB001B022808D828688001DB
:10186000F7D51AE0FFF77AFB001B022802D9032004
:10187000BDE8F88F28688001F4D40EE00128F7D085
:101880006868226A00F48031914204D1616A00F4F0
:101890007010884201D00120EAE70020E8E700004C
:1018A000001002400000424280044242B00000208A
:1018B0000070004010B5401EB0F1807F01D30120C0
:1018C00010BD4FF0E02460610F21601701F02AFA8B
:1018D0000020A06107202061002010BD70477047E4
:1018E00070B590F83C20012A26D0012580F83C50A4
:1018F000022280F83D2002685368946823F0700645
:101900000B68334353600D4B02689A4208D0B2F122
:10191000804F05D00A4B9A4202D00A4B9A4204D11A
:10192000496824F080031943916080F83D500021FC
:1019300080F83C10084670BD022070BD002C0140AC
:10194000000400400008004010B5040003D094F8E3
:101950003D0010B107E0012010BD002084F83C00DC
:10196000204600F01FF8022084F83D00211D206869
:1019700001F0A0F8012084F8460084F83E0084F8C5
:101980003F0084F8400084F8410084F8420084F865
:10199000430084F8440084F8450084F83D000020AA
:1019A00010BD000008B500680B49884212D10B48F1
:1019B000816941F4006181618069002200F4006066
:1019C000009011461920FFF7BFFCBDE80840192020
:1019D000FFF7ACBC08BD0000002C01400010024025
:1019E00090F83D10012901D001207047022180F8B4
:1019F0003D100168CA6842F00102CA6000680B49E4
:101A0000884208D0B0F1804F05D00949884202D001
:101A10000849884204D1816801F00701062903D0F2
:101A2000016841F00101016000207047002C014075
:101A3000000400400008004070B5044690F83C00E7
:101A4000012817D0012584F83C50022084F83D007D
:101A50002068826822F0770222F47F428260086860
:101A6000502830D00DDC20284DD005DC98B310284C
:101A70003BD148E0022070BD302844D0402834D10A
:101A800039E0602828D0702806D0B0F5805F2CD0CF
:101A9000B0F5005F29D10AE0CB68D1E901212068C7
:101AA00001F03EF82068816841F0770109E0CB68D9
:101AB000D1E90121206801F033F82068816841F400
:101AC0008041816011E0CA684968206801F03AF8F5
:101AD0005021206807E016E0CA684968206801F0D4
:101AE00042F86021206801F025F884F83D5000207C
:101AF00084F83C0070BDCA684968206801F022F88B
:101B000040212068EFE7226801461046EBE7704766
:101B100070B50446006801694FF00005C9438907A4
:101B200015D4C168C943890711D4E91E0161012098
:101B30002077206880698007204602D0FFF7E7FF02
:101B400004E000F098F8204600F096F82577206829
:101B50000169C943490717D4C168C943490713D468
:101B60006FF004010161022020772068806910F481
:101B7000407F204602D0FFF7CAFF04E000F07BF868
:101B8000204600F079F8257720680169C9430907E4
:101B900016D4C168C943090712D46FF00801016166
:101BA000042020772068C0698007204602D0FFF714
:101BB000AEFF04E000F05FF8204600F05DF8257706
:101BC00020680169C943C90617D4C168C943C90659
:101BD00013D46FF010010161082020772068C069DC
:101BE00010F4407F204602D0FFF791FF04E000F0A0
:101BF00042F8204600F040F8257720680169C94383
:101C0000C90708D1C168C943C90704D1891E016148
:101C1000204600F033F820680169C943090609D459
:101C2000C168C943090605D46FF0800101612046EF
:101C3000FFF754FE20680169C943490609D4C16809
:101C4000C943490605D46FF040010161204600F008
:101C500023F820680169C94389060BD4C168C943C8
:101C6000890607D46FF0200101612046BDE870406D
:101C7000FFF735BE70BD704770470000054910B5CD
:101C8000884205D101F0AAFFBDE8104002F006B875
:101C900010BD00005C050020704770B5040004D042
:101CA00094F83D00002510B106E0012070BD84F8D5
:101CB0003C50204600F022F8242084F83D002068A3
:101CC000C16821F40051C160204600F05FFF206828
:101CD000016921F4904101612068416921F02A01E4
:101CE00041612068C16841F40051C1602564202031
:101CF00084F83D0084F83E00002070BD30B585B00A
:101D000000240094019402940394006814498842CA
:101D100024D11448816941F480418161816901F4D1
:101D200080410491816941F00401816180690E4D17
:101D300000F0040004904FF4007000900220019025
:101D40000320039069462846FFF718F82815CDE9C7
:101D50000004694628460294FFF710F805B030BD2C
:101D60000038014000100240000801402DE9F8430E
:101D7000044690F83D001F4615460E4620284BD1DC
:101D8000C6B1BDB194F83C00012845D0012084F8CB
:101D90003C004FF00008C4F84080212084F83D004A
:101DA000FFF7DCF8A5848146E584A068B0F5805F84
:101DB00003D004E00120BDE8F883206920B1354656
:101DC000002684F83C800EE00025FAE780212046BA
:101DD00000F038FFA0B9ADB115F8010B21684860DB
:101DE000E08C401EE084E08C4B464FF000020097F0
:101DF0000028EBD14FF04001204600F023FF30B126
:101E00000320D8E736F8020BC0F30800E6E72020ED
:101E100084F83D000020CEE70220CCE7FEE7016811
:101E20004A69D24352050FD46FF480624A6100219F
:101E300040F8301F202242738173026942F004028D
:101E40000261017301207047002070472DE9F843BB
:101E5000044600680D46DDE9089701689846164675
:101E600041F4807101604B4600224FF00111204681
:101E7000009700F065F848B120680068C00502D5F9
:101E80004FF4007020640320BDE8F883216805F05A
:101E9000FE0008613B464A461549204600F084F89A
:101EA00088B920684169806900903A4649462046D1
:101EB00000F0C6F848B1206C042804D120680168FD
:101EC00041F4007101600120DEE7F5B2B8F1010FC5
:101ED00009D02168300A08613A464946204600F098
:101EE000AFF80028E7D1206805610020CCE70000AA
:101EF0000200010070B516460D4604460DE020466E
:101F0000FFF78DFF08B1012070BD681C05D0FFF7F9
:101F100025F8801BA84207D835B120684069C04326
:101F20004007ECD4002070BD002044F8300F202181
:101F30006173A073216941F0200121612073E2E700
:101F40002DE9F0471D4690460E460446C1F307476B
:101F5000DDF8209008E0681C06D0FEF7FFFFA0EB3C
:101F60000900A8420FD875B12068012F18D08069E8
:101F700026EA00000004000C14D000204045EAD0FE
:101F80000020BDE8F087002044F8300F2021617365
:101F9000A073216941F02001216120730120F0E745
:101FA0004069E5E70120E9E72DE9F0479846154645
:101FB0000E4604464FF000094FF0200AC1F30747D0
:101FC00023E020684069C043400515D420680168BB
:101FD00041F40071016021686FF480604861C4F8C9
:101FE000309084F83DA084F83E90216C41F00401CB
:101FF000216484F83C901EE0681C06D0FEF7AEFF1A
:10200000A0EB0800A8420AD84DB12068012F15D0D6
:10201000806926EA00000004000C0DD0D1E744F8E6
:10202000309F84F80DA084F80E90216941F02001C2
:10203000216184F80C900120BDE8F0874069E8E751
:1020400070B516460D4604460DE02046FFF7E7FE44
:1020500008B1012070BD681C05D0FEF77FFF801B12
:10206000A84207D835B120684069C0430006ECD4C7
:10207000002070BD002044F8300F20216173A07350
:10208000216941F0200121612073E2E72DE9F0434D
:1020900085B0002436480094019402940394816929
:1020A00041F010018161816901F0100104918169A1
:1020B00041F020018161816901F020010491816971
:1020C00041F004018161816901F004010491816999
:1020D00041F0080181618069DFF8988000F0080014
:1020E0000490002240F60E014046FEF732FFDFF872
:1020F000889001224FF420614846FEF72AFF0E2007
:1021000001250226CDE90005CDE902466946404693
:10211000FEF734FEEF0200970396CDE901546946BD
:102120004846FEF72BFE4FF238008DE83100694635
:102130004846FEF723FE0097CDE901566946404622
:102140000396FEF71BFE28038DE8310069464046E2
:10215000FEF714FE6802CDE900050320CDE9025028
:1021600069464846FEF70AFE05B0BDE8F083000068
:102170000010024000080140000C01400D4810B55D
:102180000B4901600C49416000214FF4804281609D
:10219000C0E9031241618161C1610162FEF7E4FEA1
:1021A000002803D0BDE81040FEF7FBBC10BD0000C6
:1021B0000054004008050020A086010010B586B03C
:1021C0000024184800940194029403940494144940
:1021D0000594016041F61F41C0E9011440F2F3117A
:1021E000C0E903148021C0E90541FFF7ADFB08B148
:1021F000FEF7D7FC4FF48050009069460948FFF77E
:102200001BFC08B1FEF7CDFC049404A90548059415
:10221000FFF766FB002801D0FEF7C3FC06B010BD37
:10222000002C01405C0500200C4810B50A490160F3
:102230004FF4E1314160002181600C22C160C0E9AE
:1022400004128161C161FFF728FD002803D0BDE8B9
:102250001040FEF7A6BC10BD00380140A4050020C8
:10226000FEE7FEE770B5002505F1B000C0B200F052
:10227000E5F8002000F0E2F8102000F0DFF800247C
:10228000002000F0EDF8641CE4B2802CF8D36D1C43
:10229000EDB2082DE8D370BD10B5C820FEF7FCFCE8
:1022A000BDE8104000F000BD10B50446B031C8B222
:1022B00000F0C4F8102040EA141000F0BFF804F059
:1022C0000F00BDE8104000F0B9B800002DE9F04162
:1022D00015460E460746FFF7E7FF0E48002400EBC1
:1022E0008515285D00F0BCF8641CE4B2102CF8D30E
:1022F000761CF1B23846FFF7D7FF0024281990F872
:10230000200000F0ADF8641CE4B2102CF6D3BDE858
:10231000F0810000FC4400082DE9F041203A00243F
:102320000F468046D5B27F2803D900208F1C8046F7
:10233000FFB2102B39460FD0FFF7B6FF154905EB5A
:10234000450001EB4005285D00F08AF8641CE4B20A
:10235000062CF8D3BDE8F081FFF7A6FF0E4E04EB84
:102360000510305C00F07CF8641CE4B2082CF6D355
:102370007F1CF9B24046FFF797FF002404EB0510DD
:102380003044007A00F06CF8641CE4B2082CF5D3F9
:10239000E0E70000F43C00081C3F00082DE9F05F76
:1023A0000027DDF828A01D4691468B4680463C4616
:1023B0004FEA5A0623E0281B401EC1B20A2001F052
:1023C00095FAB9FBF0F00A21B0FBF1F201FB120023
:1023D00027B9691E8C4201DA38B101273030C2B208
:1023E00006FB0480C0B2534604E006FB0480C0B282
:1023F000534620225946FFF78FFF641CE4B2AC42DB
:10240000D9D3BDE8F09F2DE9F041984617460E4616
:10241000044600250DE0434631462046FFF77CFF89
:102420000834E4B2782C02D90024B61CF6B26D1C34
:10243000EDB27A5D002AEED1BDE8F08101B584B03D
:1024400001214FF4807204A88DE807000B4600229A
:1024500078210248FEF74CFE05B000BD08050020BB
:1024600001B584B001214FF4807204A88DE8070003
:102470000B46402278210248FEF73AFE05B000BD27
:1024800008050020704710B5002305E030F8024B26
:1024900021F813405B1C9BB29342F7D310BD0000A0
:1024A0002DE9F05FA0F10064154688468246B4F538
:1024B000803F5ED2FEF74EFCA70AC4F34806C6F57D
:1024C0000074A54200D82C46DFF8ACB04FF0006095
:1024D00000EB872081464FF400722749FFF7D3FFB6
:1024E00000204FF6FF7206E033183BF813109142BC
:1024F00003D1401C80B2A042F6D3A0422DD2484660
:10250000FEF7B8FB4CF25030FEF78AFB1B4801691E
:1025100021F0020101610020594606E038F8102040
:102520008319401C21F8132080B2A042F6D34846FC
:102530004FF40072104900F023F8A54215D0281B73
:1025400008EB44080AEB440A002685B24FF40074F5
:102550007F1CA542BAD82C46B8E74CF25030FEF7A3
:102560005FFB224641465046E5E7BDE8F05FFEF7D7
:10257000A5BBBDE8F09F000008010020002002403C
:102580002DE9F04116460F460546002409E037F8CC
:102590001420002329460120FEF79AFB641CA4B2F4
:1025A000AD1CB442F3D3BDE8F08170472DE9F84F7C
:1025B0004448102700970024027801232146204632
:1025C000521CFFF7EBFE40480097012302780021E0
:1025D0001020521CFFF7E2FE0D2200212020FFF701
:1025E00075FE0E2200213020FFF770FE162200211A
:1025F0004020FFF76BFE172200215020FFF766FEF8
:10260000DFF8C880DFF8C890A3464FF0020A2F48D1
:1026100009EB0416801F5D46C0F803B02DA1C01C55
:10262000726800F06BFBC8F800502AA12748B26816
:1026300000F064FB0AEB4405E9B20223621C0020AF
:102640000097FFF7ABFE0097E9B20223182032682B
:10265000FFF7A4FEE9B2102320A22820FFF7D3FE43
:102660001A4AE9B21023D21E3020FFF7CCFEE9B29D
:1026700010231AA24020FFF7C6FEE9B21023134A26
:102680004820FFF7C0FEF06810B1012808D011E023
:10269000E9B21A226020FFF719FEE9B21B2206E018
:1026A000E9B218226020FFF711FEE9B2192270206A
:1026B000FFF70CFE641CE4B2032CA8D3BDE8F84F6E
:1026C00000F00EB89E0000209F0000205E00002059
:1026D000B800002025303264000000003A000000FD
:1026E00030B52D4C2E4B2F4925782C481B780022D5
:1026F000097800EB0310012D20D150F821305B1C2C
:1027000040F8213031B1012909D002290CD0032928
:102710000FD012E00368182B0FDB02600DE0436856
:102720003C2B0ADB426008E083683C2B05DB8260BF
:1027300003E0C368022B00DBC26022701A4B1C78D6
:10274000012C28D139B13B2401290CD0022912D007
:10275000032918D01EE00168002901DC172100E0E0
:10276000491E016016E04168002901DC446011E067
:10277000491E41600EE08168002901DC846009E0A7
:10278000491E816006E0C168002901DC012100E0EA
:10279000491EC1601A7030BD9C000020B8000020A6
:1027A0009E0000209F0000209D00002070B53A4C44
:1027B000374D384ED4E90601D4E90423FDF775FD01
:1027C0002A463346FDF70EFE11D904F110000FC85A
:1027D000FDF76BFD2A463346FDF704FE07D9D4E921
:1027E0000110421A012A02D8081A012801D9FFF75C
:1027F00039FDD4E90401C4E906016068A06000F075
:10280000BDF80D2202210020FFF760FD0E220221FB
:102810001020FFF75BFD072202212020FFF756FD65
:102820000A2202213020FFF751FD0622022140201A
:10283000FFF74CFD184A10230C3202215020FFF7FD
:10284000E2FD102315A202217820FFF7DCFD0D2206
:1028500005210020FFF73AFD0E2205211020FFF789
:1028600035FD092205212020FFF730FD0A22052130
:102870003020FFF72BFD062205214020FFF726FD23
:10288000BDE8704010230521034A5020FFF7BBBD6F
:102890009A9999999999B93F200000204300000026
:1028A00010B500F08DF80D2200212020FFF70EFD5D
:1028B0000E2200213020FFF709FD0B2200214020CD
:1028C000FFF704FD0C2200215020FFF7FFFC10232E
:1028D000294A03210020FFF796FD11220321202021
:1028E000FFF7F4FC244A1023143A03213820FFF7A1
:1028F0008AFD102203214820FFF7E8FC1E4A10231E
:10290000103A03216020FFF77EFD0F220321702083
:10291000FFF7DCFC184A10230C3A06210020FFF7D1
:1029200072FD122206211020FFF7D0FC124A10235C
:10293000083A06212020FFF766FD132206213020E9
:10294000FFF7C4FC0C4A1023121F06214020FFF79A
:102950005AFD142206215020FFF7B8FC152206214B
:102960006020FFF7B3FC044A10233C3A0621BDE87F
:1029700010407020FFF747BD9400002010B50A4CAE
:102980000AA104F10C00D4E9042300F0B7F909A16D
:102990002046626800F0B2F92246BDE8104006A168
:1029A000104600F0ABB9000020000020252E316653
:1029B00000000000256400002573252500000000AC
:1029C00010B51B490020A1F13C0408600871A06209
:1029D000E06220636063A0632080A07015A11448AA
:1029E000E26800F08BF914A104F12800226900F0DC
:1029F00085F911A104F12C00626900F07FF90EA1A4
:102A000004F13000A26900F079F90CA104F134005E
:102A1000E26900F073F909A104F13800226A00F0BC
:102A20006DF92046626ABDE8104002A100F066B967
:102A300094000020256400002532640025303264B3
:102A400000000000FEF71ABC30B58FB028216846A0
:102A5000FDF77FFB14210AA8FDF77BFB0120010491
:102A600000248DE8130004904FF4E010CDE9081025
:102A7000022507956846FEF791FD08B172B6FEE79C
:102A80000F20CDE90A054FF48060CDE90C4002210A
:102A90000AA80E94FEF78AFC002801D072B6FEE761
:102AA0000FB030BD704700000148FFF731B800009B
:102AB0005C050020F0B50268164C174D174E4FF01C
:102AC0008047A04205D0B84203D0A84201D0B0420E
:102AD00003D122F070034A681A43A04205D0B842DD
:102AE00003D0A84201D0B04203D122F44073CA6897
:102AF0001A434B6922F080021A4302608A68C2625C
:102B00000A688262A04201D1096901630121416121
:102B1000F0BD0000002C014000040040000800400F
:102B200010B5846842EA032224F47F440A43224316
:102B3000826010BD826822F070020A4342F00701F1
:102B40008160704710B5046A036A23F001030362D1
:102B5000836923F0F00343EA021324F00A020A43D4
:102B60008361026210BD10B5036A23F01003036293
:102B70008469036A24F4704444EA023223F0A00317
:102B800043EA01118261016210BD000070B5044684
:102B900000680169E26821F4405111430161A168B4
:102BA00020690143606901432068C26841F20C63F7
:102BB0009A430A43C26020684169A26921F44071C6
:102BC000114341611E492068884202D1FEF7A0FCF2
:102BD00001E0FEF78DFC00EBC00101EB0011606825
:102BE00064228000B1FBF0F3B3FBF2F36FF0180640
:102BF0007343B1FBF0F5B1FBF0F605EB830532232F
:102C000003EB0515B5FBF2F5B6FBF2F605F0F005A2
:102C100005EB0615B1FBF0F6B1FBF0F0B0FBF2F0FE
:102C20006FF01801484306EB800003EB0010B0FB87
:102C3000F2F0216800F00F002844886070BD0000A9
:102C4000003801402DE9F0411E46174688460446EB
:102C5000069D1CE0681C1AD025B1FEF77FF9801B89
:102C6000A84214D92068C16821F4D071C1602068DD
:102C7000416921F001014161202084F83D0084F880
:102C80003E00002084F83C000320BDE8F08120686D
:102C9000016838EA010004D00020B842DAD00020F0
:102CA000F3E70120F9E7FEE7FEB50024094F4FF4F2
:102CB000807501263819CDE900060123002278210C
:102CC00002950548FEF714FA641CE4B21B2CF1D3FC
:102CD000FEBD000000000020080500200FB4054BD9
:102CE00010B503A9044A029800F0FEF810BC5DF884
:102CF00014FB000021360008B40000200FB4084B7C
:102D000010B504A902AA039800F0EEF8044602A93F
:102D1000002000F080FC204610BC5DF814FB000091
:102D2000173600080907090E002804DB00F1E0202F
:102D300080F80014704700F00F0000F1E02080F8E8
:102D4000141D704702E008C8121F08C1002AFAD1FA
:102D500070477047002001E001C1121F002AFBD11B
:102D6000704700002DE9FF5F82B00021DDE90430EB
:102D7000020DDDF840B0034318D044F61050A2F223
:102D8000FF3242431514119801281FD0A5EB0B0008
:102D9000401C5FEA000A4FF000064E4FDFF8389102
:102DA000B046504615D5CAF1000413E0119801242D
:102DB0004AA3012801D16FEA0B010298119AC0E9D8
:102DC0000031C0E9024206B0BDE8F09FCBF100003F
:102DD000DFE704460021404A491842EB0450CDE9A0
:102DE000001012E0E00707D032463B464046494615
:102DF000FDF761FA8046894632463B461046194641
:102E0000FDF759FA06460F466410002CEAD1DDE9B9
:102E10000401DDE90023BAF1000F06DAFDF74BFAF1
:102E200042464B46FDF747FA05E0FDF7B8FB424640
:102E30004B46FDF7B4FB04460E460022284BFDF737
:102E4000D1FA03D84FF0FF30014607E00022254BAE
:102E500020463146FDF788F9FDF710FC102409E003
:102E6000002C0ADB0A220023FDF7EAFA039B30322A
:102E70001A55641E50EA0102F2D1641C039AC4F18F
:102E800011031444119A012A03D0012208430DD1E1
:102E90000AE0084304D000204FF0110B119072E7B4
:102EA000A3EB0B056D1E0DE05B4504DD4FF000024A
:102EB00005F1010504E003DA4FF00002A5F1010578
:102EC000002AECD002981199C0E90231C0E900450E
:102ED00079E70000000014400000F03F30000000DF
:102EE0000000F0430000E03F2DE9FF4F95B09B4606
:102EF0008946064600250FE2252877D1002427467B
:102F0000F84A0121059400E0044316F8013F203BF4
:102F100001FA03F01042F7D130782A2811D06FF06F
:102F20002F033078A0F13002092A16D8059A44F010
:102F3000020402EB820203EB42021044761C05906D
:102F4000EFE759F8042B0592002A03DA504244F4C3
:102F50000054059044F00204761C30782E2816D1D7
:102F600016F8010F44F004042A280DD06FF02F0248
:102F70003078A0F13003092B09D807EB870302EB67
:102F80004303C718761CF3E759F8047B761C3078A6
:102F90006C280FD006DC4C2817D068280DD06A2882
:102FA00014D104E0742810D07A280FD10DE044F435
:102FB00000140AE044F4801401E044F440147278F0
:102FC000824202D104F58014761C761C3078662883
:102FD0000BD013DC582877D009DC002875D04528A1
:102FE000F6D04628F4D047281AD19DE118E063288E
:102FF00035D0642879D0652812D195E1702873D036
:1030000008DC6728F1D069286FD06E280DD06F28B2
:1030100006D1B5E073282CD0752875D0782874D0E7
:103020005A46179990476D1C75E1C4F30250022867
:1030300009D003280DD0D9F8001004280DD00D6058
:1030400009F1040967E1D9F80010EA17C1E9005253
:10305000F6E7D9F800100D80F2E70D70F0E719F8E7
:10306000041B8DF8001000208DF80100EA460120B5
:1030700003E059F804AB4FF0FF3061074FF0000157
:1030800002D40DE008F101018846B9420FDA80450B
:10309000F8DB1AF808100029F4D108E008F1010162
:1030A00088468142FADB1AF808100029F6D1059803
:1030B0005B46A0EB080721463846179A00F094FAC1
:1030C000284400EB080507E04DE029E10DE01AF87F
:1030D000010B5A4617999047B8F10108F7D25B46A1
:1030E00021463846179A13E142E00A220092C4F3BF
:1030F00002524FF0000A022A08D059F804CB032AE2
:103100004FEAEC710AD00DE029E02AE009F107014D
:1031100021F00702F2E802C1914609E00FFA8CFCA7
:103120004FEAEC71042A03D14FFA8CFC4FEAEC71A0
:10313000002907DA0A460021DCF1000C61EB0201EC
:103140002D2202E0220504D52B228DF80420012235
:1031500003E0E20701D02022F7E7904659E00A2178
:1031600002E010220DE010214FF0000A00910BE068
:1031700010224FF0000A44F004040827009203E0F4
:1031800008224FF0000A0092C4F30252022A05D02E
:1031900059F804CB0021032A08D009E009F10701FE
:1031A00021F00702F2E802C1914605E01FFA8CFC0B
:1031B000042A01D10CF0FF0C4FF00008220728D59B
:1031C000702806D0009B83F0100353EA0A0305D051
:1031D0000EE040228DF80420012208E05CEA0102A2
:1031E00006D030228DF804208DF80500022290468A
:1031F000009B83F0080353EA0A030AD15CEA010248
:1032000001D1620705D530228DF804204FF0010866
:103210007F1E582804D034A003900EA802900DE021
:1032200036A0F9E753466046009AFDF709F984464F
:103230000398825C0298401E029002705CEA0100D2
:10324000F0D1029806A9081A00F1200A600702D5F9
:1032500024F4803400E00127574502DDA7EB0A0083
:1032600000E0002000EB0A01009005984144401A5C
:103270000590E00306D45B462146179A059800F0B6
:10328000B3F90544002706E001A85A46C05D179926
:1032900090476D1C7F1C4745F6DBE0030CD55B4671
:1032A0002146179A059800F09FF9054404E0302064
:1032B0005A46179990476D1C0099481E00900029A6
:1032C000F5DC08E0029802995A460078491C029100
:1032D000179990476D1CBAF10001AAF1010AF1DCBF
:1032E00065E10000092801003031323334353637CA
:1032F0003839616263646566000000003031323342
:1033000034353637383941424344454600000000E1
:1033100000F058F90544761C307800287FF4ECADB5
:1033200019B02846BDE8F08F620700D4062709F1DE
:10333000070222F0070CFCE80223E14603F00048F4
:103340005FEA080C02D00FF2702C0DE05FEA045C1B
:1033500002D50FF2682C07E05FEAC47C02D00FF2BE
:10336000602C01E0AFF2700C4FF0FF3823F0004307
:10337000CDF850C065280CD006DC452809D0462879
:103380001DD047283DD13DE0662818D067287ED162
:1033900038E00021112F01DB112000E0781CCDE97D
:1033A000000106A90EA8FFF7DDFCDDE90F010E9A6A
:1033B00003910021009207F1010A04914DE04FF0C2
:1033C00000400097CDE9011006A90EA8FFF7CAFC3E
:1033D000DDE90F0203920E9B11990022DDF80CA08B
:1033E0000093049211B9791C00EB010AB7EB0A00B3
:1033F00004D4C0F1FF3007F1010A0490AAEB0700E2
:10340000019044E0012F00DA01270021112F01DD96
:10341000112000E03846CDE9000106A90EA8FFF70B
:10342000A1FCDDE90F010E9A0391002104910092A5
:10343000BA4621070CD40399514500DA8A46BAF1FD
:10344000010F05DD009AAAF10101515C302908D075
:10345000B84202DA10F1040F06DA0121CDE90110B9
:1034600015E0AAF10101E9E7002805DC049901440F
:103470000491AAEB000102E0411C514500DD8A469F
:103480000499401A401C01904FF000400290200720
:1034900004D40198504501DBCDF8048000208DF85C
:1034A0004F0002980DF14F07B0F1004F25D02B20AF
:1034B0000E9002984FF0020800280CDA4042029069
:1034C0002D200E9007E00A210298FCF7A3FF30316F
:1034D000029007F8011DB8F10001A8F10108F2DC23
:1034E00002980028EFD1791E0E980870307800F00D
:1034F000200040F0450007F8020D12A8C01B00F1A3
:1035000007081498007800B1012000EB0A01019827
:1035100001EBE07105984144401A401E0590E0031C
:1035200006D45B462146179A059800F05DF80544DD
:103530001498007818B15A46179990476D1CE0030B
:1035400024D55B462146179A059800F04DF80544AE
:103550001CE00498002807DBDDE90301884203DD55
:103560000098405C179901E0179930205A4690471F
:10357000049805F10105401C04900198401E01903B
:1035800004D12E205A46179990476D1CBAF10001BC
:10359000AAF1010ADDDC05E017F8010B5A4617997C
:1035A00090476D1CB8F10001A8F10108F4DC5B46FE
:1035B0002146179A0598ABE62D0000002B0000006D
:1035C000200000002DE9F041044600251E46174664
:1035D000880404D405E039462020B0476D1C641EE1
:1035E000F9D52846BDE8F0812DE9F04104460025D3
:1035F0001E469046C80301D5302700E020278804E6
:1036000004D505E041463846B0476D1C641EF9D527
:103610002846BDE8F0810A68531C0B6010707047A3
:1036200013B54FF0FF33012269460248FEF79EFBB7
:1036300000981CBDA40500202DE9F041624E4FF416
:10364000805739463046FDF77FFC604C0125A0B914
:1036500039463046FDF778FC78B939463046FDF7F3
:1036600073FC0028F9D0FEF7FDFD25706078401C42
:10367000C0B26070032800D965704FF4005841460D
:1036800037463046FDF760FC0026C0B94146384653
:10369000FDF75AFC98B941463846FDF755FC00281D
:1036A000F9D0FEF7DFFD6078032808D16671A671B6
:1036B000A078401CC0B2A070022800D3A6704FF4BE
:1036C000804841463846FDF73FFC70B941463846D0
:1036D000FDF73AFC48B941463846FDF735FC00286D
:1036E000F9D06078032800D1E5704FF400484146D6
:1036F0003846FDF729FC70B941463846FDF724FCF1
:1037000048B941463846FDF71FFC0028F9D06078DB
:10371000032800D1257108213846FDF715FCE0B9D2
:1037200008213846FDF710FCB8B908213846FDF7E6
:103730000BFC0028F9D0607803280ED16079401C7A
:10374000C0B26071A17811B1012903D005E003284E
:1037500002D202E0022800D3667110213846FDF73C
:10376000F3FBE0B910213846FDF7EEFBB8B91021A4
:103770003846FDF7E9FB0028F9D0607803280ED120
:10378000A079401CC0B2A071A17811B1012903D069
:1037900005E0042802D202E0032800D3A67120210C
:1037A0003846FDF7D1FB00280CD120213846FDF723
:1037B000CBFB002806D120213846FDF7C5FB0028A9
:1037C000F9D0E571BDE8F081000C014099000020BE
:1037D00038B5214C207801283DD1607801280BD0E4
:1037E000022814D0032836D1A078A0B1012832D104
:1037F000BDE8384000F082B81848006818B9FEF7F4
:1038000031FDFFF74DF8BDE83840FFF749B8BDE896
:103810003840FEF7CBBFE0791025012810D10020F9
:10382000E071207A0323401CC2B22272002168207A
:103830000095FEF7B3FD302209490A48FEF730FE35
:1038400000950323227A00216820FEF7A7FDBDE83A
:103850003840FEF7ABBE38BD99000020780000204C
:10386000B800002000F80008FDF710FDFFF7ECF8A5
:10387000FEF70CFCFEF782FCFEF7D6FCFEF79EFC82
:10388000164D4FF40064002221462846FDF761FBE7
:103890004FF4C870FDF700FA012221462846FDF7D3
:1038A00058FBFEF7F9FCFEF7DDFC0D48FEF798F833
:1038B000C020FDF787F818B90121C020FDF744F9B1
:1038C000302208490848FEF7DEFDFDF715F8FCF741
:1038D0000FFFFFF7B1FEFFF77BFFF6E7000C01409B
:1038E0005C050020B800002000F800080346012015
:1038F00000E05843491EC9B2FBD270472DE9F84396
:1039000054481026009600240278012321462046C0
:10391000521CFEF743FD5048009601230278002117
:103920001020521CFEF73AFD0D2200212020FEF748
:10393000CDFC0E2200213020FEF7C8FC1C22002105
:103940004020FEF7C3FC1D2200215020FEF7BEFCE4
:10395000DFF808814FF0030909EB44054F46E9B24F
:103960000123621C00200096FEF718FD14B1012C03
:1039700025D04BE0B946072239461020FEF7A6FCB9
:10398000082249462020FEF7A1FC00964746022364
:1039900049463020D8F80020FEF700FD102330A261
:1039A00049464020FEF72FFD009602234946482055
:1039B0007A68FEF7F3FC10232AA2494623E0052784
:1039C000092239461020FEF781FC0A2239462020C0
:1039D000FEF77CFC0096022339463020D8F80C20F4
:1039E000FEF7DCFC10231EA239464020FEF70BFD3B
:1039F0001A4800960223026939464820FEF7CEFC99
:103A0000102319A239465820FEF7FDFC04EB4401AF
:103A100008EB8100806810B1012808D011E0E9B2FC
:103A20001A226020FEF752FCE9B21B2206E0E9B23E
:103A300018226020FEF74AFCE9B219227020FEF736
:103A400045FC641CE4B2022C86D3BDE8F84300F0C8
:103A50000DB800009E0000209F00002040000020C4
:103A60002D0000004300000025000000F0B5564E78
:103A70005748DFF860E13578544B0278322700244C
:103A80009EF800004FF05A0C03F10C01012D4AD1B1
:103A900012B1012A1ED045E053F820506D1C43F8A6
:103AA000205020B1012809D002280ED03AE0D3E9F5
:103AB000005EAD1C754535D31C6033E0D3F804E0DF
:103AC000BEF1320F2ED95F602CE09D68022D29D304
:103AD0009C6027E051F82050AD1C41F8205020B1E7
:103AE00001280FD0022815D01CE0384DD3F810E083
:103AF000ED682D1D754515D3DFF8D0E01425CEF8FF
:103B00000C500FE0314D2D695A2D0BD92F4DC5F8B2
:103B100010C007E02D4D6D696D1E8D60022D01D323
:103B20002A4D6C6134702C4D2E78012E47D112B184
:103B3000012A1FD042E020B101280AD0022812D069
:103B40003CE0186810B1401E186037E05868801ECD
:103B5000FAE7D3E90010891C884201D15F602DE0AB
:103B6000401E58602AE0986810B1401E986025E019
:103B70009E6023E020B101280ED0022819D01DE05C
:103B80001248C068142802D0801E086016E00F4951
:103B90001869001FC86011E00C48DA680069121D3E
:103BA000904203D10948C0F810C007E0801E486069
:103BB00004E00648406918B1401E88602C70F0BDD2
:103BC00002484661FAE700009C0000204000002007
:103BD0009E0000209F0000209D0000202DE9F04164
:103BE00026490020DFF89CC00F68254904460B6871
:103BF00025490A680CEB0011244ED1F80CE0244D45
:103C0000BEF1010F0CD1D1F800E0BE4508D1D1F8CA
:103C100004E09E4504D18968914201D1012403E06A
:103C2000401CC0B20328E5D36868FCF7B6FBD6E9B0
:103C30000023FCF7BFFB07D32868FCF7AEFBD6E9EF
:103C40000023FCF7CFFB03D2A868012800D1012490
:103C500010482B694FF4006102680F48934202D369
:103C6000EB68934202D96A69012A00D00CB10022A4
:103C700000E00122BDE8F041FDF76BB970000020C3
:103C800074000020B80000207800002030000020E0
:103C90004000002024000020000C01402DE9F041EC
:103CA000124C134E4FF4805720783946401C207038
:103CB0003046FDF749F9F51488B139463046FDF72D
:103CC00043F9002809D02078502806D1002229463F
:103CD0003046FDF73EF900202070BDE8F08129460E
:103CE0003046BDE8F0410122FDF733B9A2000020C3
:103CF000000801400000000000000000002F00004C
:103D000000000700070000147F147F1400242A7F9E
:103D10002A1200626408132300364955225000001D
:103D20000503000000001C224100000041221C008D
:103D30000014083E08140008083E0808000000A00F
:103D4000600000080808080800006060000000200B
:103D500010080402003E5149453E0000427F4000E9
:103D6000004261514946002141454B31001814126F
:103D70007F10002745454539003C4A49493000013C
:103D80007109050300364949493600064949291E8B
:103D900000003636000000005636000000081422ED
:103DA00041000014141414140000412214080002ED
:103DB0000151090600324959513E007C1211127C12
:103DC000007F49494936003E41414122007F41413F
:103DD000221C007F49494941007F09090901003E31
:103DE0004149497A007F0808087F0000417F41006F
:103DF000002040413F01007F08142241007F4040E5
:103E00004040007F020C027F007F0408107F003ECC
:103E10004141413E007F09090906003E4151215EB2
:103E2000007F091929460046494949310001017FAF
:103E30000101003F4040403F001F2040201F003F45
:103E40004038403F006314081463000708700807F7
:103E500000615149454300007F41410000552A550A
:103E60002A55000041417F00000402010204004085
:103E700040404040000001020400002054545478A7
:103E8000007F4844443800384444442000384444C7
:103E9000487F00385454541800087E090102001865
:103EA000A4A4A47C007F080404780000447D4000A2
:103EB000004080847D00007F102844000000417F86
:103EC0004000007C04180478007C08040478003862
:103ED0004444443800FC242424180018242418FCEA
:103EE000007C0804040800485454542000043F4453
:103EF0004020003C4040207C001C2040201C003C16
:103F00004030403C004428102844001CA0A0A07C65
:103F1000004464544C44141414141414000000009D
:103F2000000000000000000000000000000000F899
:103F300000000000000000333000000000100C06FC
:103F4000100C0600000000000000000040C0784097
:103F5000C0784000043F04043F040400007088FC63
:103F600008300000001820FF211E0000F008F000BB
:103F7000E018000000211C031E211E0000F008882C
:103F8000700000001E2123241927211010160E0096
:103F9000000000000000000000000000000000E041
:103FA0001804020000000007182040000002041856
:103FB000E00000000040201807000000404080F0B2
:103FC000804040000202010F01020200000000F0E8
:103FD000000000000101011F0101010000000000BC
:103FE0000000000080B07000000000000000000031
:103FF00000000000000101010101010100000000BA
:104000000000000000303000000000000000000050
:1040100080601804006018060100000000E010082D
:104020000810E000000F102020100F00001010F802
:10403000000000000020203F202000000070080841
:1040400008887000003028242221300000300888C1
:10405000884830000018202020110E000000C020E9
:1040600010F8000000070424243F240000F808880A
:10407000880808000019212020110E0000E0108897
:1040800088180000000F112020110E0000380808C9
:10409000C83808000000003F0000000000708808D9
:1040A00008887000001C222121221C0000E010085A
:1040B0000810E0000000312222110F00000000C0B3
:1040C000C000000000000030300000000000008050
:1040D0000000000000008060000000000000804040
:1040E0002010080000010204081020004040404059
:1040F00040404000040404040404040000081020AC
:1041000040800000002010080402010000704808F0
:104110000808F0000000003036010000C030C82858
:10412000E810E0000718272423140B000000C03813
:10413000E0000000203C23020227382008F888888D
:1041400088700000203F202020110E00C030080899
:1041500008083800071820202010080008F8080870
:104160000810E000203F202020100F0008F8888869
:10417000E8081000203F20202320180008F8888835
:10418000E8081000203F200003000000C0300808AD
:104190000838000007182020221E020008F8080036
:1041A0000008F808203F210101213F20000808F8FD
:1041B000080800000020203F202000000000080820
:1041C000F8080800C08080807F00000008F888C0E0
:1041D00028180800203F20012638200008F8080091
:1041E00000000000203F20202020300008F8F800C8
:1041F000F8F80800203F003F003F200008F830C0DA
:104200000008F808203F200007183F00E0100808C9
:104210000810E0000F10202020100F0008F80808F8
:104220000808F000203F210101010000E01008080B
:104230000810E0000F18242438504F0008F8888830
:1042400088887000203F2000030C30200070880810
:10425000080838000038202121221C00180808F81E
:10426000080818000000203F2000000008F808009F
:104270000008F808001F202020201F000878880070
:1042800000C83808000007380E010000F80800F8E0
:104290000008F800033C0700073C0300081868808A
:1042A0008068180820302C03032C30200838C80000
:1042B000C83808000000203F20000000100808084F
:1042C000C83808002038262120201800000000FEF1
:1042D000020202000000007F40404000000C30C09D
:1042E00000000000000000010638C00000020202C9
:1042F000FE000000004040407F000000000004027B
:1043000002020400000000000000000000000000A5
:104310000000000080808080808080800002020495
:10432000000000000000000000000000000080808D
:10433000808000000019242222223F2008F80080FB
:1043400080000000003F112020110E0000000080BE
:1043500080800000000E112020201100000000804D
:104360008088F800000E112020103F20000080807F
:1043700080800000001F222222221300008080F093
:10438000888888180020203F2020000000008080BE
:1043900080808000006B94949493600008F8008003
:1043A00080800000203F210000203F20008098985E
:1043B000000000000020203F2020000000000080BE
:1043C0009898000000C08080807F000008F80000FE
:1043D00080808000203F24022D302000000808F853
:1043E000000000000020203F20200000808080800E
:1043F00080808000203F20003F20003F80800080A0
:1044000080800000203F210000203F2000008080AD
:1044100080800000001F202020201F00808000805E
:104420008000000080FFA12020110E00000000800D
:1044300080808000000E112020A0FF8080808000FE
:104440008080800020203F2120000100000080802B
:10445000808080000033242424241900008080E020
:10446000808000000000001F2020000080800000ED
:1044700000808000001F202020103F2080808000CE
:104480000080808000010E300806010080800080DE
:10449000008080800F300C030C300F000080800003
:1044A000808080000020312E0E312000808080002E
:1044B0000080808080818E701806010000808080DE
:1044C000808080000021302C22213000000000007C
:1044D000807C020200000000003F40400002027C9D
:1044E000800000000040403F00000000000000008D
:1044F000FF00000000000000FF00000000000414A6
:1045000064040CB402024233020000000000000008
:1045100000000000000000000000000040412111E8
:10452000090503FF030509112141400000000000B7
:104530000000000000000000000000001010D0FF8C
:10454000900010919690F09094931000000000005D
:10455000000000000000000000000000040300FF55
:10456000000104040404FF0404040400000000002B
:10457000000000000000000000000000008060F863
:104580000704E4A4A4BFA4A4E40400000000000005
:10459000000000000000000000000000010000FF1B
:1045A00040407F4A4A4A4A4A7F404000000000009B
:1045B0000000000000000000000000000000F8887B
:1045C000888888FF88888888F8000000000000003C
:1045D00000000000000000000000000000001F08B4
:1045E0000808087F888888889F80F0000000000005
:1045F0000000000000000000000000000000FE02BB
:1046000082828282FA82828282820200000000001C
:1046100000000000000000000000000080601F405B
:10462000404040407F40404458404000000000006F
:10463000000000000000000000000000008060F8A2
:104640000704E4A4A4BFA4A4E40400000000000044
:10465000000000000000000000000000010000FF5A
:1046600040407F4A4A4A4A4A7F40400000000000DA
:10467000000000000000000000000000000000003A
:10468000000000000000000000000000000000002A
:1046900000000000000000000000000000003636AE
:1046A000000000000000000000000000000000000A
:1046B0000000000000000000000000001060028CFC
:1046C0000000FE9292929292FE0000000000000014
:1046D00000000000000000000000000004047E0153
:1046E000407E42427E427E42427E40000000000008
:1046F0000000000000000000000000000000FC249A
:104700002424FC252624FC2424240400000000008A
:1047100000000000000000000000000040308F801A
:10472000844C55252525554C8080800000000000D4
:104730000000000000000000000000001060028C7B
:1047400000FE929292929292FE0000000000000001
:1047500000000000000000000000000004047E01D2
:104760004448507F40407F504844400000000000D3
:104770000000000000000000000000000000FC2419
:104780002424FC252624FC2424240400000000000A
:1047900000000000000000000000000040308F809A
:1047A000844C55252525554C808080000000000054
:1047B00000000000000000000000000000FC8484F5
:1047C00084FC001010101010FF10100000000000FA
:1047D000000000000000000000000000003F10107A
:1047E000103F0000010640807F0000000000000034
:1047F00000000000000000000000000000F80106BA
:1048000000F0121212F2020202FE0000000000008C
:1048100000000000000000000000000000FF000099
:10482000001F1111111F0040807F000000000000D8
:1048300000000000000000000000000000404244B2
:104840005840407F40405048C60000000000000033
:104850000000000000000000000000000040444490
:104860004444444444444444FF0000000000000029
:104870000000000000000000000000000808E82917
:104880002E28E80808C80C0BE80808000000000003
:104890000000000000000000000000000000FF0910
:1048A00049897F00000F40807F0000000000000069
:1048B000000000000000000000000000000000FEFA
:1048C00082828282828282FE00000000000000005C
:1048D000000000000000000000000000000000FFD9
:1048E00040404040404040FF000000000000000009
:1048F000000000000000000000000000000000FEBA
:104900002222222222222222FE0000000000000099
:104910000000000000000000000000008040300F98
:1049200002020202020242827F0000000000000038
:10493000000000000000000000000000002018C778
:1049400044444444FC444444440400000000000047
:104950000000000000000000000000000404040744
:1049600004040404FF040404040404000000000020
:1049700000000000000000000000000000FC848433
:1049800084FC001010101010FF1010000000000038
:10499000000000000000000000000000003F1010B8
:1049A000103F0000010640807F0000000000000072
:1049B0000000000000000000000000008040209087
:1049C0008886808080838C1020408000000000005A
:1049D00000000000000000000000000000804020F7
:1049E0001807004080403F00000000000000000069
:1049F0000000000000000000000000002424A4FECD
:104A0000232200C03800FF000810600000000000F2
:104A1000000000000000000000000000080601FF88
:104A200001068180404027100C03000000000000B8
:104A30000000000000000000000000000000FE82F6
:104A4000929292FE92929282FE000000000000007C
:104A500000000000000000000000000080601F0057
:104A6000001E1212121E40807F0000000000000095
:104A700000000000000000000000000000F801221B
:104A800020222AF22222222202FE00000000000040
:104A900000000000000000000000000000FF000017
:104AA0001F01017F09110F40807F000000000000FE
:104AB00000000000000000000000000020102CE7B3
:104AC000242400F01010FF1010F00000000000007F
:104AD0000000000000000000000000000101017F54
:104AE000211100070202FF0202070000000000007F
:104AF00000000000000000000000000080828282B0
:104B0000FE8282828282FE82828280000000000019
:104B100000000000000000000000000000804030A5
:104B20000F0000000000FF00000000000000000077
:104B3000000000000000000000000000000000FC79
:104B40004444444546444444447C00000000000082
:104B500000000000000000000000000040201807D6
:104B600000FC44444444444444FC00000000000071
:104B70000000000000000000000000000000101114
:104B8000161010F0101014131000000000000000A8
:104B90000000000000000000000000008181414191
:104BA00021110D030D112141418181000000000000
:104BB00000000000000000000000000000F80122DA
:104BC000202222A2FA22222202FE0000000000007F
:104BD00000000000000000000000000000FF0008CE
:104BE000040211201F000040807F00000000000030
:104BF00000000000000000000000000000F801229A
:104C0000A0A2A222FE22AA3202FE000000000000A2
:104C100000000000000000000000000000FF001085
:104C2000130A4B20170C133880FF0000000000000F
:104C3000000000000000000000000000008060F89C
:104C40000704E4A4A4BFA4A4E4040000000000003E
:104C5000000000000000000000000000010000FF54
:104C600040407F4A4A4A4A4A7F40400000000000D4
:104C70000000000000000000000000000000000034
:104C800000000000010203040607080900000000FC
:104C900001020304B44C000800000020B80000002A
:104CA000442D00086C4D0008B80000205009000099
:104CB000542D0008AE001040B081FFA1A6A83FC847
:104CC000D300D580D805D9F1DA12D8308D14AF00D1
:104CD00000000000000000000000000000000000D4
:104CE00000000000000000000000000000000000C4
:104CF0000000000000000000320000000000000082
:104D0000140000005A000000000000000000000035
:104D10000000000000000000000000000000000093
:104D20000000000000000000000000000000000083
:104D30000000000000000000000000000000000073
:104D40000000000000000000000000000001010061
:104D50000000000000000000010000001000000042
:0C4D6000000000000024F400000000002F
:04000005080000ED02
:00000001FF
