:020000040800F2
:10000000C804002001010008EF1300088310000855
:10001000ED13000899010008E51600080000000033
:100020000000000000000000000000006315000850
:100030007D03000800000000611500086515000838
:100040001B0100081B0100081B0100081B01000820
:100050001B0100081B0100081B0100081B01000810
:100060001B0100081B0100081B0100081B01000800
:100070001B0100081B0100081B0100081B010008F0
:100080001B0100081B0100081B0100081B010008E0
:100090001B0100081B0100081B0100081B010008D0
:1000A0001B0100081B0100081B0100081B010008C0
:1000B0001B0100081B0100081B0100081B010008B0
:1000C0001B0100081B0100081B0100081B010008A0
:1000D0001B0100081B0100081B0100081B01000890
:1000E0001B0100081B0100081B010008DFF80CD0F1
:1000F00000F040F800480047E9180008C804002054
:100100000648804706480047FEE7FEE7FEE7FEE7B1
:10011000FEE7FEE7FEE7FEE7FEE7FEE7C71500089D
:10012000ED000008D2B201E000F8012B491EFBD21D
:1001300070470022F6E710B513460A4604461946F2
:10014000FFF7F0FF204610BD30B50B4601460020FA
:100150002022012409E021FA02F59D4205D303FA89
:1001600002F5491B04FA02F52844151EA2F101020A
:10017000F1DC30BD064C074D06E0E06840F00103BD
:1001800094E8070098471034AC42F6D3FFF7B2FF6B
:100190004C2300086C230008FEE7000010B504465D
:1001A00000F0ACFC0349B0FBF1F16143491EFDD204
:1001B00010BD000000093D0010B500F07BF80128DB
:1001C00008D005A001F0AAFABDE810404FF47A70FB
:1001D00000F0D8B808A0F5E74448543131C3BBD388
:1001E000D0D3A6B4F0A3ACC7EBBCECB2E9B4ABB8C7
:1001F000D0C6F7210D0A0000CAFDBEDDD0A3D1E9AB
:10020000B3C9B9A6210D0A0010B52820FFF7C6FF13
:100210004FF40071034800F0B7F908B1002010BD99
:10022000012010BD000C01401FB50A4B4FF40072B5
:10023000012120B100200092CDE9010104E003205A
:10024000CDE90021CDE902106946184600F0ACF86E
:100250001FBD0000000C014070B50D4D4FF400743F
:100260002146284600F090F90028F9D02820FFF711
:1002700095FF2146284600F087F9002806D0214640
:10028000284600F081F90028F9D1012070BD000056
:10029000000C014070B5002425466006040EFFF7EF
:1002A000DBFF08B144F001046D1CEDB2082DF4D35E
:1002B000204670BD3EB500200190029000F04AF843
:1002C000FFF7A2FF70B3184D4FF400742146284683
:1002D00000F05AF90028F9D02146284600F054F9D8
:1002E0000028F9D1002401ADFFF7D4FF2855641C84
:1002F000E4B2052CF8D39DF804109DF805209DF874
:1003000006309DF807008C181D182C449DF80850E5
:10031000AC4205D1009005A001F000FA01203EBDDD
:1003200000203EBD02203EBD000C0140B5B1C7B06B
:10033000CAAAB6C8A3BA25642E256425255248B595
:10034000B1C7B0CEC2B6C8A3BA25642E2564A1E356
:10035000432D2D0010B50020FFF766FF00224FF45B
:100360000071054800F015F9142000F00BF8BDE805
:1003700010400120FFF758BF000C0140704772B6D3
:10038000FEE7000070B5044600F008F90546601C61
:1003900002D004480078044400F000F9401BA04259
:1003A000FAD370BD1C0000202DE9F84FDFF8B8919A
:1003B000002409F1040A0AF1040B23460F270BF16C
:1003C000040EC9E00125A5402A40AA427DD1674E0E
:1003D000D1F804C0ACEB0608B44532D014DCBCF153
:1003E000030F3AD009DCBCF1000F2AD0BCF1010F99
:1003F0001CD0BCF1020F31D11DE0BCF1110F17D0A0
:10040000BCF1120F2AD119E0B8F5881F19D006DC0B
:10041000B8F5803F15D0B8F5801F1FD111E0B8F5B1
:10042000001F0ED0B8F5041F18D10AE0CB6815E004
:10043000CB681B1D12E0CB6808330FE0CB680C3390
:100440000CE08B682BB1012B4FF0080303D0456102
:1004500004E0042302E0056100E00023FF2A01D844
:10046000064601E000F104064FEA840501D9A5F132
:100470002005D6F8008007FA05FC28EA0C0803FAE4
:1004800005F548EA0508C6F800804D68ED0062D51C
:10049000374DAE6946F00106AE61AD6924F0030642
:1004A00005F001050095334D06EB050CDCF808500E
:1004B000A607360F07FA06F825EA0805DFF8B88020
:1004C000404503D14FF0000817E044E0DFF8AC806E
:1004D000404502D14FF001080FE0DFF8A48040450D
:1004E00002D14FF0020808E0DFF89880404502D1C1
:1004F0004FF0030801E04FF0040808FA06F848EA54
:100500000508CCF808804D68D9F80060ED034D4629
:1005100001D5164300E096432E604D68DAF800607E
:10052000AD03554601D5164300E096432E604D6855
:10053000DBF80060ED025D4601D5164300E096430E
:100540002E604D68DEF80060AD02754601D5164399
:1005500000E096432E60641C0D682A46E5407FF457
:1005600031AFBDE8F88F0000000401400000111019
:10057000001002400000014000080140000C014052
:1005800000100140001401408068084000D00120A4
:1005900070470AB1016170470904FBE701488068B0
:1005A000704700001C00002070B5040025D094F8AE
:1005B0003D00002520B984F83C50204600F050F959
:1005C000242084F83D002068016821F001010160C9
:1005D0002068016841F4004101602068016821F44D
:1005E0000041016000F090FA4D4A6168914201D8E3
:1005F0004C4900E04C49884201D2012070BD4B4972
:100600002368B0FBF1F15E6826F03F060E435E60A2
:100610006368934206D94FF4967359434FF47A7343
:10062000B1FBF3F12368491C1E6A26F03F063143F3
:1006300019626168914210D84900401EB0FBF1F286
:10064000521CC2F30B02042A01D2042022E0B0FBA8
:10065000F1F0401CC0F30B001CE0A268F2B301EB08
:10066000C10303EB0116431EB3FBF6F35B1C43F41B
:1006700080431B0549D092B301EBC10202EB01118B
:10068000401EB0FBF1F0401CC0F30B0040F4804072
:1006900040F400402168CA694CF6FF739A43104346
:1006A000C861D4E9071001432068026822F0C00243
:1006B00011430160D4E9030101432068826848F2D4
:1006C000FF339A4311438160D4E90501084321684F
:1006D000CA6822F0FF021043C86001E00EE016E095
:1006E0002068016841F0010101602564202084F840
:1006F0003D00256384F83E50002070BD01EB4106AB
:10070000431EB3FBF6F35B1CB3E70120C2E701EB2A
:100710004101401EB0FBF1F0401CC0F30B00B7E7F5
:10072000A086010080841E0000093D0040420F00A9
:100730002DE9FF4F83B09A46DDE9119793460446B1
:10074000DDF84080FFF72AFF054694F83D00202899
:100750007FD11923012240492046009500F024FD55
:10076000002876D194F83C00012872D0012084F84A
:100770003C0020680168C90703D1016841F001010C
:1007800001602068016821F400610160212084F883
:100790003D00402084F83E0000262664C4F82480F2
:1007A000A4F82A90608D20852C48E062CDE9007580
:1007B00053465A462046049900F07CFC70B930E05C
:1007C0002A463946204600F06EFD58B1206C0428B8
:1007D00004D12068016841F400710160012007B074
:1007E000BDE8F08F606A216800780861606A401C8B
:1007F0006062218D491E89B22185628D521E6285FB
:1008000022685369DB435B070BD469B10078106140
:10081000606A401C6062208D401E2085608D401EF5
:100820006085208D0028CBD12A463946204600F02D
:1008300095FC0028CAD154F83D0B016841F40071C1
:100840000160202004F81E09E67766770020C6E7DD
:10085000FFE70220C3E70000020010000000FFFFD6
:1008600010B586B0002100910191029103910068BA
:100870000F4988421AD10F4CA06940F00800A061CE
:10088000A069694600F008000490C0200090122082
:100890000190032003900848FFF786FDE06940F4CB
:1008A0000010E061E06900F40010049006B010BD93
:1008B0000054004000100240000C014002488168D2
:1008C00002781144816070471C000020074810B571
:1008D000016841F010010160032000F067F80F206B
:1008E00000F006F800F024F8002010BD00200240BF
:1008F00070B50D4D04464FF47A712878B1FBF0F0D5
:100900000A490968B1FBF0F000F0E4FA48B9102C8C
:1009100007D200222146501E00F028F800206C600B
:1009200070BD012070BD00001C00002028000020C8
:100930000C4808B5816941F001018161816901F0CC
:1009400001010091C16941F08051C161C06900F0AD
:10095000805000900448416821F0E06141F000714E
:10096000416008BD0010024000000140F0B40E4B91
:100970001B680C46C3F30223C3F10705042D00D9FD
:100980000425191D072901D2002300E0DB1E0126E2
:1009900006FA05F1491E214099409E40761E1640F8
:1009A0003143F0BC00F0CABE0CED00E0064900F097
:1009B000070208684FF6FF03184040EA0220034A86
:1009C00010430860704700000CED00E00000FA05DD
:1009D0002DE9F0470F46050061D0434E306800F026
:1009E0000700B84209D2306820F007003843306071
:1009F000306800F00700B84251D128683B4C8107AD
:100A000012D5400703D5606840F4E0606060287844
:100A1000000703D5606840F4605060606068A968B2
:100A200020F0F000084360602878C00728D068688C
:100A3000012810D02168022810D0890700292EDA59
:100A4000616821F0030101436160FFF7A7FD804663
:100A500041F288390DE021688903EFE78901EDE76C
:100A6000FFF79CFDA0EB0801494502D90320BDE832
:100A7000F0876068696800F00C00B0EB810FEFD17F
:100A8000306800F00700B8420BD9306820F007004A
:100A900038433060306800F00700B84201D00120D0
:100AA000E5E72878400705D56068E96820F4E0604C
:100AB000084360602878000706D56068296920F43B
:100AC000605040EAC100606000F03EF86168084A8A
:100AD000C1F30311515CC84006490860064800682C
:100AE000FFF706FF0020C2E700200240001002408E
:100AF000342300082800002020000020014800685E
:100B00007047000028000020044805490068496833
:100B1000044AC1F30221515CC840704728000020FC
:100B20000010024044230008044805490068496851
:100B3000044AC1F3C221515CC8407047280000201C
:100B4000001002404423000812A185B00FC98DE8AF
:100B50000F0014A0144A006804905168134801F073
:100B60000C03042B10D0082B0ED1C1F38343C9030F
:100B70001DF803000AD5516804AAC1F34041515C35
:100B80000A4A5043B0FBF1F005B0704708494843AA
:100B9000FAE7000002030405060708090A0B0C0D1A
:100BA0000E0F1010010200000010024000127A0027
:100BB00000093D002DE9F84F040070D02078C04DA9
:100BC000C00749D06868C0F38100012807D0686871
:100BD000C0F38100022809D16868C00306D52868DF
:100BE000800339D560680028E7D035E06068B0F54B
:100BF000803F0BD010B1B0F5A02F11D0286820F4A1
:100C000080302860286820F4802002E0286840F4C2
:100C100080302860606890B1FFF7C0FC06460AE0AB
:100C2000286840F480202860F0E700BFFFF7B6FC9A
:100C3000801B642873D828688003F7D50CE0FFF781
:100C4000ADFC064605E000BFFFF7A8FC801B64284A
:100C5000F0D828688003F7D420789A4E80074FF0A8
:100C600001094FF0000839D5686810F00C0F07D063
:100C70006868C0F38100022809D16868C00306D4FF
:100C80002868800714D52069012808D110E0206960
:100C9000B0B1C6F80090FFF781FC074605E00AE115
:100CA000FFF77CFCC01B0228C4D828688007F7D552
:100CB0002868616920F0F80040EAC10028600DE072
:100CC000C6F80080FFF76AFC074604E0FFF766FC01
:100CD000C01B022823D828688007F7D42078000793
:100CE0002CD57948A169D9B1C0F80090FFF756FC1E
:100CF000074604E0FFF752FCC01B02280FD8686AC1
:100D00008007F7D571484FF4FA510068B0FBF1F055
:100D1000009000BF0098411E0091FAD20EE080E0E2
:100D2000C0F80080FFF73AFC074604E0FFF736FC06
:100D3000C01B022875D8686A8007F7D4207840075E
:100D400060D5E8690027C00008D4E86940F0805009
:100D5000E861E869012700F0805000905C48016874
:100D6000C90513D40168834641F480710160FFF71F
:100D700015FC824606E000BFFFF710FCA0EB0A005E
:100D800064284ED8DBF80000C005F5D5E0680128DE
:100D90000AD008B1052813D0286A20F00100286283
:100DA000286A20F0040002E0286A40F0010028626E
:100DB000E06841F2883B98B1FFF7F0FB82460BE018
:100DC000286A40F004002862EEE700BFFFF7E6FB68
:100DD000A0EB0A0159455AD8286A8007F6D50CE0DD
:100DE000FFF7DCFB824605E0FFF7D8FBA0EB0A012A
:100DF00059454CD8286A8007F6D41FB1E86920F01D
:100E00008050E861E06988B36968C1F38101022913
:100E100044D00228C6F8608004D0FFF7BFFB044628
:100E200038E034E0FFF7BAFB074604E0FFF7B6FB13
:100E3000C01B02282BD828688001F7D4206AB0F59F
:100E4000803F05D16868A16820F4003008436860DD
:100E5000D4E908010843696821F474110843686003
:100E6000C6F86090FFF79AFB044606E025E000BF55
:100E7000FFF794FB001B022809D828688001F7D5EA
:100E80001BE000BFFFF78AFB001B022802D90320EA
:100E9000BDE8F88F28688001F4D40EE00128F7D06F
:100EA0006868226A00F48031914204D1616A00F4DA
:100EB0007010884201D00120EAE70020E8E7000036
:100EC00000100240000042428004424228000020FC
:100ED0000070004010B5401EB0F1807F01D30120AA
:100EE00010BD4FF0E02460610F21601700F026FC78
:100EF0000020A06107202061002010BD70B5040013
:100F000004D094F83D00002510B106E0012070BD2A
:100F100084F83C50204600F023F8242084F83D005B
:100F20002068C16821F40051C160204600F04CFBEC
:100F30002068016921F4904101612068416921F034
:100F40002A0141612068C16841F40051C1602564F3
:100F5000202084F83D0084F83E00002070BD000091
:100F600030B585B000240094019402940394006885
:100F70001449884224D11448816941F48041816137
:100F8000816901F480410491816941F0040181612A
:100F900080690E4D00F0040004904FF40070009042
:100FA000022001900320039069462846FFF7FCF9D0
:100FB0002815CDE90004694628460294FFF7F4F9A4
:100FC00005B030BD0038014000100240000801406B
:100FD0002DE9F843044690F83D001F4616460D469D
:100FE00020284CD1C5B1BEB194F83C00012846D0B0
:100FF000012084F83C004FF00008C4F84080212014
:1010000084F83D00FFF7CAFAA6848146E684A0680A
:10101000B0F5805F03D004E00120BDE8F8832069CB
:1010200028B12E465FF0000584F83C800EE00026D3
:10103000FAE78021204600F023FBA0B9AEB116F8F4
:10104000010B21684860E08C401EE084E08C4B4638
:101050004FF0000200970028EBD14FF040012046EE
:1010600000F00EFB30B10320D7E735F8020BC0F3D8
:101070000800E6E7202084F83D000020CDE70220AC
:10108000CBE7FEE701684A69D24352050FD46FF4FB
:1010900080624A61002140F8301F20224273817330
:1010A000026942F0040202610173012070470020CE
:1010B000704700002DE9F843044600680D46DDE95D
:1010C000089701689846164641F4807101604B46C6
:1010D00000224FF001112046009700F065F848B15A
:1010E00020680068C00502D54FF40070206403201A
:1010F000BDE8F883216805F0FE0008613B464A46DA
:101100001549204600F084F888B920684169806953
:1011100000903A464946204600F0C5F848B1206C98
:10112000042804D12068016841F4007101600120A5
:10113000DEE7F5B2B8F1010F09D02168300A086185
:101140003A464946204600F0AEF80028E7D120682C
:1011500005610020CCE700000200010070B51646D2
:101160000D4604460DE02046FFF78CFF08B1012034
:1011700070BD681C05D0FFF711FA801BA84207D884
:1011800035B120684069C0434007ECD4002070BDF1
:10119000002044F8300F20216173A073216941F0D1
:1011A000200121612073E2E72DE9F0471E469046B9
:1011B0000D460446C1F30747DDF8209008E0701C97
:1011C00006D0FFF7EBF9A0EB0900B0420FD876B1DB
:1011D0002068012F18D0806925EA00000004000C67
:1011E00014D000214145EAD00020BDE8F08700205E
:1011F00044F8300F20216173A073216941F0200170
:10120000216120730120F0E74069E5E70121E9E76A
:101210002DE9F0479A4691460E46044600254FF0C8
:101220002008C1F3074725E020684069C043400516
:1012300014D42068016841F40071016021686FF4E2
:1012400080604861256384F83D8084F83E50206CBE
:1012500040F00400206484F83C501FE0B9F1FF3FE7
:1012600008D0FFF79BF9A0EB0A0149450CD8B9F16A
:10127000000F09D02068012F13D0806926EA0000F2
:101280000004000C0BD0CFE744F8305F84F80D80E9
:10129000A573206940F02000206125730120BDE87E
:1012A000F0874069EAE770B516460D4604460DE042
:1012B0002046FFF7E7FE08B1012070BD681C05D08D
:1012C000FFF76CF9801BA84207D835B12068406948
:1012D000C0430006ECD4002070BD002044F8300F5D
:1012E00020216173A073216941F0200121612073E5
:1012F000E2E7000030B585B0002000900190029038
:1013000003901A48816941F010018161816901F0FF
:1013100010010491816941F020018161816901F02E
:1013200020010491816941F004018161816901F02A
:1013300004010491816941F0080181618069012201
:1013400000F008000A4D5402049021462846FFF799
:1013500020F901210320CDE90210CDE900416946C1
:101360002846FFF721F805B030BD0000001002400C
:10137000000C01400D4810B50B4901600C4941605B
:1013800000214FF480428160C0E903124161816114
:10139000C1610162FFF708F9002803D0BDE81040E1
:1013A000FEF7EDBF10BD00000054004030000020EB
:1013B000A08601000C4810B50A4901604FF4E131E4
:1013C0004160002181600C22C160C0E9041281618A
:1013D000C161FFF793FD002803D0BDE81040FEF780
:1013E000CEBF10BD0038014084000020FEE7FEE7BC
:1013F00070B5002404F1B000C0B200F08DF80020F8
:1014000000F08AF8102000F087F80025002000F096
:1014100095F86D1CEDB2802DF8D3641CE4B2082C55
:10142000E8D370BD10B5C820FEF7ACFFBDE8104092
:1014300000F05AB910B50446B031C8B200F06CF8EB
:10144000102040EA141000F067F804F00F00BDE827
:10145000104000F061B800002DE9F041203A00246E
:101460000D468046D6B27F2803D900208D1C8046C9
:10147000EDB2102B29460FD0FFF7DCFF164906EB23
:10148000460001EB4005285D00F058F8641CE4B20A
:10149000062CF8D3BDE8F081FFF7CCFF0F4F00BF5B
:1014A00004EB0610385C00F049F8641CE4B2082C28
:1014B000F6D36D1CE9B24046FFF7BCFF5FF00004B5
:1014C00004EB06103844007A00F038F8641CE4B2EB
:1014D000082CF5D3DEE700006C190008941B000807
:1014E0002DE9F041984617460E46044600250DE0CA
:1014F000434631462046FFF7AFFF0834E4B2782C6C
:1015000002D90024B61CF6B26D1CEDB27A5D002A39
:10151000EED1BDE8F081000001B584B001214FF4A7
:10152000807204A88DE807000B460022782102484B
:10153000FFF7FEF805B000BD3000002001B584B013
:1015400001214FF4807204A88DE807000B46402269
:1015500078210248FFF7ECF805B000BD300000200C
:1015600070477047FFF7AAB930B58FB02821684699
:10157000FEF7DFFD14210AA8FEF7DBFD01210804B8
:10158000CDE900100024029402250491CDE9075012
:101590004FF4E01009906846FFF70CFB08B172B6F3
:1015A000FEE70F20CDE90A054FF48060CDE90C403D
:1015B00002210AA80E94FFF70BFA002801D072B698
:1015C000FEE70FB030BD704770B504460068016992
:1015D000E26821F44051114301612169A068084388
:1015E000616908432168CA6841F20C639A43024367
:1015F000CA6020684169A26921F4407111434161C8
:101600001E492068884202D1FFF78EFA01E0FFF7F9
:101610007BFA00EBC00101EB0012606864218000DE
:10162000B2FBF0F3B3FBF1F36FF018067343B2FBB8
:10163000F0F5B2FBF0F605EB8305322303EB05155D
:10164000B5FBF1F5B6FBF1F605F0F00505EB061577
:10165000B2FBF0F6B2FBF0F0B0FBF1F06FF0180265
:10166000504306EB800003EB0010B0FBF1F0216863
:1016700000F00F002844886070BD00000038014071
:101680002DE9F041984617460E460446069D1DE09A
:10169000681C1BD02DB1FEF781FFA0EB0800A8420B
:1016A00014D92068C16821F4D071C16020684169F3
:1016B00021F001014161202084F83D0084F83E00C2
:1016C000002084F83C000320BDE8F0812068006819
:1016D00036EA000004D00020B842D9D00020F3E759
:1016E0000120F9E7FEE70000FEB50024094F4FF4A2
:1016F000807501263819CDE90006012300227821E2
:1017000002950548FFF714F8641CE4B21B2CF1D3D2
:10171000FEBD000000000020300000200FB4054B8B
:1017200010B503A9044A029800F028F810BC5DF82F
:1017300014FB0000D11800082C0000200907090E36
:10174000002804DB00F1E02080F80014704700F06E
:101750000F0000F1E02080F8141D704702E008C877
:10176000121F08C1002AFAD170477047002001E01B
:1017700001C1121F002AFBD1704700002DE9FF4F65
:1017800089B09B460446002506E025280BD05A4622
:101790000B999047641C6D1C20780028F5D10DB082
:1017A0002846BDE8F08F0027B8460122474900E0EF
:1017B000074314F8013F203B02FA03F00842F7D137
:1017C00020782E2819D114F8010F47F004072A2891
:1017D0000ED06FF02F022078A0F1300109290CD82B
:1017E00008EB880102EB410100EB0108641CF2E701
:1017F0000A98641C50F8048B0A9020780028CED0F8
:10180000642808D0692806D075281ED05A460B993E
:1018100090476D1C58E00A994FF00A0901C90A91D6
:10182000002802DA40422D2102E0390504D52B219F
:101830008DF82010012103E0F90704D02021F7E7FB
:101840008A4608AE0DE00021FAE70A994FF00A092E
:1018500001C90A91F7E74946FEF776FC303106F8F0
:10186000011D0028F7D1ADEB060000F12009780733
:1018700001D44FF00108C84502DDA8EB090000E0E3
:1018800000208046002706E008A85A46C05D0B9954
:1018900090476D1C7F1C5745F6DB04E030205A460C
:1018A0000B9990476D1CB8F10001A8F10108F5DC17
:1018B00005E016F8010B5A460B9990476D1CB9F1DB
:1018C0000001A9F10109F4DC641C65E709280100A5
:1018D00013B54FF0FF33012269460248FFF778FB4A
:1018E00000981CBD84000020FEF7F0FFFFF73CFECF
:1018F000FFF700FDFFF73EFDFFF794FDFFF778FDD2
:10190000FFF758FD4FF47A70FEF73CFD00211023DD
:101910000CA20846FFF7E4FD10230EA202210020CE
:10192000FFF7DEFD10230EA202217820FFF7D8FD7D
:1019300010230CA204210020FFF7D2FDFEF73CFC8F
:10194000FCE700006469706C6F6D612070726F6AF3
:101950006563740054656D707261747572653A00E8
:101960004300000054696D653A000000000000006B
:1019700000000000002F0000000007000700001416
:101980007F147F1400242A7F2A1200626408132324
:1019900000364955225000000503000000001C22BB
:1019A0004100000041221C000014083E08140008F9
:1019B000083E0808000000A06000000808080808A9
:1019C000000060600000002010080402003E514941
:1019D000453E0000427F40000042615149460021DF
:1019E00041454B31001814127F10002745454539F9
:1019F000003C4A4949300001710905030036494954
:101A0000493600064949291E00003636000000000C
:101A10005636000000081422410000141414141457
:101A20000000412214080002015109060032495900
:101A3000513E007C1211127C007F49494936003E1C
:101A400041414122007F4141221C007F49494941D7
:101A5000007F09090901003E4149497A007F0808D1
:101A6000087F0000417F4100002040413F01007F8E
:101A700008142241007F40404040007F020C027F5A
:101A8000007F0408107F003E4141413E007F09096C
:101A90000906003E4151215E007F09192946004692
:101AA000494949310001017F0101003F4040403F69
:101AB000001F2040201F003F4038403F00631408B3
:101AC000146300070870080700615149454300008E
:101AD0007F41410000552A552A55000041417F00B1
:101AE00000040201020400404040404000000102A6
:101AF0000400002054545478007F4844443800388F
:101B00004444442000384444487F00385454541816
:101B100000087E0901020018A4A4A47C007F080428
:101B200004780000447D4000004080847D00007FF8
:101B3000102844000000417F4000007C0418047815
:101B4000007C0804047800384444443800FC242411
:101B500024180018242418FC007C080404080048F9
:101B60005454542000043F444020003C4040207C1A
:101B7000001C2040201C003C4030403C0044281009
:101B80002844001CA0A0A07C004464544C441414BD
:101B900014141414000000000000000000000000F5
:101BA00000000000000000F800000000000000330A
:101BB0003000000000100C06100C060000000000B1
:101BC0000000000040C07840C0784000043F04049A
:101BD0003F040400007088FC08300000001820FF5B
:101BE000211E0000F008F000E018000000211C0396
:101BF0001E211E0000F00888700000001E21232412
:101C00001927211010160E0000000000000000002F
:101C100000000000000000E01804020000000007BF
:101C20001820400000020418E000000000402018C6
:101C300007000000404080F0804040000202010F99
:101C400001020200000000F0000000000101011F7D
:101C500001010100000000000000000080B07000E1
:101C60000000000000000000000000000001010171
:101C70000101010100000000000000000030300000
:101C800000000000000000008060180400601806DA
:101C90000100000000E010080810E000000F102014
:101CA00020100F00001010F8000000000020203F5E
:101CB00020200000007008080888700000302824E8
:101CC0002221300000300888884830000018202089
:101CD00020110E000000C02010F8000000070424AE
:101CE000243F240000F808888808080000192120F3
:101CF00020110E0000E0108888180000000F11204D
:101D000020110E0000380808C83808000000003F05
:101D1000000000000070880808887000001C222164
:101D200021221C0000E010080810E0000000312211
:101D300022110F00000000C0C000000000000030B1
:101D40003000000000000080000000000000806003
:101D50000000000000008040201008000001020484
:101D6000081020004040404040404000040404046B
:101D70000404040000081020408000000020100827
:101D800004020100007048080808F000000000305C
:101D900036010000C030C828E810E00007182724EA
:101DA00023140B000000C038E0000000203C230298
:101DB0000227382008F8888888700000203F2020FB
:101DC00020110E00C030080808083800071820202D
:101DD0002010080008F808080810E000203F202024
:101DE00020100F0008F88888E8081000203F202005
:101DF0002320180008F88888E8081000203F2000F9
:101E000003000000C0300808083800000718202030
:101E1000221E020008F808000008F808203F2101EF
:101E200001213F20000808F8080800000020203F9A
:101E30002020000000000808F8080800C08080800A
:101E40007F00000008F888C028180800203F200103
:101E50002638200008F8080000000000203F20205D
:101E60002020300008F8F800F8F80800203F003F74
:101E7000003F200008F830C00008F808203F20008C
:101E800007183F00E01008080810E0000F1020209D
:101E900020100F0008F808080808F000203F210172
:101EA00001010000E01008080810E0000F182424C9
:101EB00038504F0008F8888888887000203F20003C
:101EC000030C3020007088080808380000382021F2
:101ED00021221C00180808F8080818000000203FFC
:101EE0002000000008F808000008F808001F202063
:101EF00020201F000878880000C838080000073834
:101F00000E010000F80800F80008F800033C070084
:101F1000073C0300081868808068180820302C03EC
:101F2000032C30200838C800C83808000000203FC3
:101F30002000000010080808C838080020382621B2
:101F400020201800000000FE020202000000007FB6
:101F500040404000000C30C00000000000000001C4
:101F60000638C00000020202FE00000000404040AF
:101F70007F000000000004020202040000000000D4
:101F80000000000000000000000000008080808051
:101F90008080808000020204000000000000000039
:101FA00000000000000080808080000000192422D2
:101FB00022223F2008F8008080000000003F11200E
:101FC00020110E000000008080800000000E112013
:101FD00020201100000000808088F800000E1120F1
:101FE00020103F200000808080800000001F2222FF
:101FF00022221300008080F0888888180020203F6B
:10200000202000000000808080808000006B94947D
:102010009493600008F8008080800000203F210039
:1020200000203F2000809898000000000020203F02
:1020300020200000000000809898000000C08080F0
:10204000807F000008F8000080808000203F24028C
:102050002D302000000808F8000000000020203F7C
:10206000202000008080808080808000203F200031
:102070003F20003F8080008080800000203F2100C2
:1020800000203F200000808080800000001F202072
:1020900020201F00808000808000000080FFA120A1
:1020A00020110E000000008080808000000E1120B2
:1020B00020A0FF80808080008080800020203F2141
:1020C00020000100000080808080800000332424F4
:1020D00024241900008080E0808000000000001FA0
:1020E000202000008080000000808000001F202051
:1020F00020103F20808080000080808000010E3012
:102100000806010080800080008080800F300C0372
:102110000C300F0000808000808080000020312E75
:102120000E312000808080000080808080818E7051
:102130001806010000808080808080000021302C03
:102140002221300000000000807C0202000000001C
:10215000003F40400002027C800000000040403F01
:102160000000000000000000FF0000000000000070
:10217000FF0000000000041464040CB402024233A7
:10218000020000000000000000000000000000004D
:102190000000000040412111090503FF030509115A
:1021A000214140000000000000000000000000008D
:1021B000000000001010D0FF900010919690F09059
:1021C00094931000000000000000000000000000D8
:1021D00000000000040300FF000104040404FF04E5
:1021E00004040400000000000000000000000000E3
:1021F00000000000008060F80704E4A4A4BFA4A4C9
:10220000E4040000000000000000000000000000E6
:1022100000000000010000FF40407F4A4A4A4A4A4D
:102220007F404000000000000000000000000000AF
:10223000000000000000F888888888FF8888888867
:10224000F800000000000000000000000000000096
:102250000000000000001F080808087F88888888A0
:102260009F80F0000000000000000000000000005F
:10227000000000000000FE0282828282FA828282D6
:102280008282020000000000000000000000000048
:102290000000000080601F40404040407F404044BC
:1022A0005840400000000000000000000000000056
:1022B00000000000008060F80704E4A4A4BFA4A408
:1022C000E404000000000000000000000000000026
:1022D00000000000010000FF40407F4A4A4A4A4A8D
:1022E0007F404000000000000000000000000000EF
:1022F00000000000000000000000000000000000DE
:1023000000000000000000000000000000000000CD
:102310000000000000003636000000000000000051
:1023200000000000000000000000000000000000AD
:102330000000000000000000000000000102030493
:102340000607080900000000010203046C230008CE
:1023500000000020300000005C1700089C230008EB
:1023600030000020980400006C170008AE001040F8
:10237000B081FFA1A6A83FC8D300D580D805D9F168
:10238000DA12D8308D14AF000100000010000000F8
:0C239000000000000024F4000000000029
:04000005080000ED02
:00000001FF
