:020000040800F2
:1000000020050020010100083B1C0008A71800087B
:10001000391C0008A1060008752100080000000036
:10002000000000000000000000000000FB1D0008B0
:10003000A10B000800000000F91D0008F51F0008D2
:100040001B0100081B0100081B0100081B01000820
:100050001B0100081B0100081B0100081B01000810
:100060001B0100081B0100081B0100081B01000800
:100070001B0100081B0100081B0100081B010008F0
:100080001B0100081B0100081B0100081B010008E0
:100090001B0100081B0100081B0100081B010008D0
:1000A0001B0100081B0100081B0100081B010008C0
:1000B0001B0100081B0100081B0100081B010008B0
:1000C0001B0100081B0100081B0100081B010008A0
:1000D0001B0100081B0100081B0100081B01000890
:1000E0001B0100081B0100081B010008DFF80CD0F1
:1000F00000F0C4FA00480047092B00082005002042
:100100000648804706480047FEE7FEE7FEE7FEE7B1
:10011000FEE7FEE7FEE7FEE7FEE7FEE75720000802
:10012000ED000008202A04DB203A21FA02F0002129
:10013000704721FA02F3D040C2F1200291400843F7
:1001400019467047D2B201E000F8012B491EFBD2DC
:1001500070470022F6E710B513460A4604461946D2
:10016000FFF7F0FF204610BD2DE9FE4F804681EAE3
:100170000300C00F0C46009021F0004123F0004521
:10018000B8EB0200A94105D24046214690461C46E4
:100190000B46024623F00040104347D0270DC7F31B
:1001A0000A00C3F30A510290401A019040286BDA0A
:1001B000C3F3130040F4801B0098924620B1002343
:1001C000D2EB030A63EB0B0B01985946C0F14002D6
:1001D000504600F036F906460D4650465946019AFB
:1001E00000F03EF910EB08006141002487EA11524B
:1001F00084EAE7731A4340D0009A62B3019A012A55
:100200004FEA075215DC001B61EB02014FF0004280
:1002100002EA0752CDE90042001C41F58011324646
:100220002B4600F03EF903B0BDE8F08F4046214672
:10023000F9E7001B61EB0201001C41F58013001877
:100240005B412018A2F5001747EB030140EAD57087
:10025000B6196D4111E06D084FEA360645EAC075E2
:100260004FEA0752001B61EB0201001C41F58011AF
:1002700049084FEA30000019514132462B4603B07D
:10028000BDE8F04F00F0FEB80098012240000023C6
:10029000D0EB020263EBE073009821464FEAE07472
:1002A000B8EB000061EB0401E9E783F000435BE792
:1002B00081F0004158E72DE9FE4F81EA030404F084
:1002C000004421F0004100944FF0000B23F0004364
:1002D00050EA01045ED052EA03045BD0C3F30A542F
:1002E000C1F30A552C44A4F2F3340194A0FB025448
:1002F000C1F3130141F48011C3F3130343F48013DA
:1003000001FB024400FB034E840A970A44EA81542D
:1003100047EA8357A4FB076802958D0A05FB07850A
:100320004FEA932C04FB0C542705029D4FEA065814
:1003300047EA1637B5EB08056EEB070C870E920EF1
:1003400047EA811742EA8312A7FB0201B6EB0B01D1
:1003500064EB00042B0D43EA0C335E1844EB1C5095
:10036000DA465146E7FB0201C5F313044FEA0B33AB
:1003700043EA14534FEA0432019C43EA0603A4F112
:100380000C040294009CCDE900B400F08AF803B09C
:10039000BDE8F08F00200146F9E70EB540F2334189
:1003A00002910021CDE900110A460B4600F079F8D0
:1003B00003B000BD30B50B460146002020220124C9
:1003C00009E021FA02F59D4205D303FA02F5491B23
:1003D00004FA02F52844151EA2F10102F1DC30BD39
:1003E0002DE9F05F0546002092469B46884606466A
:1003F000814640241BE02846414647462246FFF7F7
:1004000091FE53465A46C01A914110D311461846E0
:10041000224600F016F82D1A67EB01084F462246D7
:100420000120002100F00DF817EB00094E41201EBD
:10043000A4F10104DFDC484631462A464346BDE8C4
:10044000F09F202A04DB203A00FA02F100207047D6
:100450009140C2F1200320FA03F319439040704702
:10046000202A06DBCB17203A41FA02F043EAE07378
:1004700006E041FA02F3D040C2F120029140084365
:100480001946704710B5141E73F1000408DA401CB9
:1004900041F1000192185B411A4301D120F00100A3
:1004A00010BD2DE9F04D92469B4611B1B1FA81F293
:1004B00002E0B0FA80F220329046FFF7C2FF044615
:1004C0000F4640EA0A0041EA0B0153465A460843E8
:1004D00013D0114653EA010019D0C8F1400250462A
:1004E000FFF720FE05460E46504659464246FFF7A6
:1004F000A8FF084305D0012004E020463946BDE8A6
:10050000F08D0020054346EAE0762C4337430A98F5
:100510006305E40AA0EB08000022FD0A44EA475400
:100520000A3002D500200146E9E7010510196941AA
:10053000DDE9084500196941BDE8F04DA2E72DE964
:10054000F04D81EA030404F0004B21F0004514460D
:100550004FF0000A23F0004150EA050220D054EA8F
:1005600001021DD0C5F30A570246C5F31303C1F3B8
:100570001300C1F30A5640F4801543F48013A7EB2F
:100580000608101BD64608F2FD3873EB050002D3AF
:1005900008F1010801E092185B41B8F1000F03DA9D
:1005A00000200146BDE8F08D00204FF48011064682
:1005B00084460EE0171B73EB050705D3121B63EB94
:1005C000050306434CEA010C49084FEA3000921833
:1005D0005B4150EA0107EDD152EA030012D082EAF2
:1005E000040083EA0501084305D0101BAB4106D285
:1005F0000122002306E000224FF0004302E06FF0EA
:10060000010253101AEB06004CEB085110EB0A00E4
:1006100041EB0B01BDE8F04DFFF734BFC1F30A52C7
:10062000C1F3130140F2FF3341F480119A4202DA20
:1006300000200146704740F233439A42A2F233420F
:1006400002DC5242FFF76EBDFFF7FBBE30B5041E61
:1006500071F1000404DB4FF00044404264EB0101FF
:10066000141E73F1000405DB1C464FF00043524298
:1006700063EB0403994208BF904230BD064C074D1E
:1006800006E0E06840F0010394E807009847103462
:10069000AC42F6D3FFF72EFDE83600080837000815
:1006A000FEE7000010B5044600F03AFE0349B0FB37
:1006B000F1F16143491EFDD210BD000000093D006B
:1006C00010B500F077F8012804D003A0BDE8104071
:1006D00001F06CBD08A0F9E74448543131C3BBD3E5
:1006E000D0D3A6B4F0A3ACC7EBBCECB2E9B4ABB8C2
:1006F000D0C6F7210D0A0000CAFDBEDDD0A3D1E9A6
:10070000B3C9B9A6210D0A0010B52820FFF7CAFF0A
:100710004FF40071034800F049FB08B1002010BD00
:10072000012010BD000C01401FB50A4B4FF40072B0
:10073000012120B100200092CDE9010104E0032055
:10074000CDE90021CDE902106946184600F03EFAD5
:100750001FBD0000000C014070B50D4D4FF400743A
:100760002146284600F022FB0028F9D02820FFF778
:1007700099FF2146284600F019FB002806D02146A3
:10078000284600F013FB0028F9D1012070BD0000BD
:10079000000C014070B5002425466006040EFFF7EA
:1007A000DBFF08B144F001046D1CEDB2082DF4D359
:1007B000204670BDFEB500200190029000F06EF85A
:1007C000FFF7A2FF00284AD0264D4FF400742146BF
:1007D000284600F0EBFA0028F9D02146284600F020
:1007E000E5FA0028F9D100240DF10405FFF7D2FF46
:1007F0002855641CE4B2052CF8D39DF804009DF83C
:1008000005109DF8062001449DF80700024411449C
:100810009DF80820914220D10546FFF7BEFD124AFF
:10082000124BFFF748FD9DF8066004460F46304620
:10083000FFF7B3FD22463B46FFF796FC0C4A3346D2
:10084000C2E904019DF80410516000959DF805204F
:1008500008A001F0ABFC0120FEBD0020FEBD02207F
:10086000FEBD0000000C01409A9999999999B93FF1
:1008700020000020B5B1C7B0CAAAB6C8A3BA256483
:100880002E256425252020B5B1C7B0CEC2B6C8A399
:10089000BA25642E2564A1E3432D2D0010B5002058
:1008A000FFF742FF00224FF40071054800F083FA81
:1008B000142000F079F9BDE810400120FFF734BFA3
:1008C000000C01401CB5684600F0BAF89DF8000025
:1008D00000F00F01000900EB800001EB400120480F
:1008E00001F5FA6141619DF8021001F00F0209095A
:1008F00001EB810102EB410181619DF8031001F0E0
:100900000F02090901EB810102EB4101C1619DF870
:10091000041001F00F02090901EB810102EB410112
:1009200001629DF8051001F00F02090901EB810138
:1009300002EB410141629DF8061001F00F02090926
:1009400001EB810102EB410181629DF8011001F090
:100950000F02090901EB810102EB4101C1621CBDDB
:10096000380000207FB5354D06460024224604217C
:10097000284600F020FA012000F016F90022082194
:10098000284600F018FA012000F00EF90122042197
:10099000284600F010FA012000F006F9304600F079
:1009A000A9F80020019003900220009001200290FD
:1009B0006946284600F00AF9002600220821284648
:1009C00000F0F9F964080221284600F0EFF9012847
:1009D00001D144F0800401220821284600F0EBF9FF
:1009E000761C082EE9DB00220421284600F0E3F9FA
:1009F000012000F0D9F800220821284600F0DBF998
:100A0000012000F0D1F801220821284600F0D3F996
:100A1000012000F0C9F800220221284600F0CBF99D
:100A2000012000F0C1F801220221284600F0C3F99C
:100A3000012000F0B9F804B0204670BD0008014064
:100A40001CB504468D20FFF78DFF8DF800008B202C
:100A5000FFF788FF8DF801008920FFF783FF8DF8ED
:100A600002008720FFF77EFF8DF803008520FFF747
:100A700079FF8DF804008320FFF774FF8DF80500DF
:100A80008120FFF76FFF00992160BDF80410A1805D
:100A9000A0711CBD2DE9F047044608A8884690E8DF
:100AA000E0009946924600218E2000F04DF8214644
:100AB0008C2000F049F841468A2000F045F8514664
:100AC000882000F041F84946862000F03DF829468C
:100AD000842000F039F83146822000F035F839469C
:100AE000802000F031F8BDE8F04780218E2000F032
:100AF0002BB800007FB5054600200290022001219E
:100B0000CDE900010F4E03906946304600F05EF8D3
:100B1000002400220821304600F04DF9E80701D0FA
:100B2000012200E000220221304600F044F96D0865
:100B300001220821304600F03EF9641C082CE8DB55
:100B40007FBD00000008014070B5144C0E460546FC
:100B500000220421204600F02EF9012000F024F8A4
:100B600000220821204600F026F9012000F01CF8A0
:100B700001220421204600F01EF9012000F014F8A3
:100B80002846FFF7B7FF3046FFF7B4FF2046BDE821
:100B900070400022042100F00EB90000000801405E
:100BA000704772B6FEE7000070B5044600F008F921
:100BB0000546601C02D004480078044400F000F9A7
:100BC000401BA042FAD370BD700000202DE9F84F01
:100BD000DFF8B891002409F1040A0AF1040B234656
:100BE0000F270BF1040EC9E00125A5402A40AA42B7
:100BF0007DD1674ED1F804C0ACEB0608B44532D0C5
:100C000014DCBCF1030F3AD009DCBCF1000F2AD090
:100C1000BCF1010F1CD0BCF1020F31D11DE0BCF1C1
:100C2000110F17D0BCF1120F2AD119E0B8F5881FA7
:100C300019D006DCB8F5803F15D0B8F5801F1FD15C
:100C400011E0B8F5001F0ED0B8F5041F18D10AE066
:100C5000CB6815E0CB681B1D12E0CB6808330FE0B2
:100C6000CB680C330CE08B682BB1012B4FF00803E1
:100C700003D0456104E0042302E0056100E00023A5
:100C8000FF2A01D8064601E000F104064FEA840578
:100C900001D9A5F12005D6F8008007FA05FC28EA5D
:100CA0000C0803FA05F548EA0508C6F800804D6807
:100CB000ED0062D5374DAE6946F00106AE61AD6913
:100CC00024F0030605F001050095334D06EB050CF5
:100CD000DCF80850A607360F07FA06F825EA0805DB
:100CE000DFF8B880404503D14FF0000817E044E03A
:100CF000DFF8AC80404502D14FF001080FE0DFF88B
:100D0000A480404502D14FF0020808E0DFF8988047
:100D1000404502D14FF0030801E04FF0040808FA03
:100D200006F848EA0508CCF808804D68D9F8006054
:100D3000ED034D4601D5164300E096432E604D6805
:100D4000DAF80060AD03554601D5164300E096433E
:100D50002E604D68DBF80060ED025D4601D516435C
:100D600000E096432E604D68DEF80060AD027546E7
:100D700001D5164300E096432E60641C0D682A4698
:100D8000E5407FF431AFBDE8F88F0000000401407A
:100D90000000111000100240000001400008014056
:100DA000000C014000100140001401408068084020
:100DB00000D0012070470AB1016170470904FBE7C8
:100DC00001488068704700007000002070B5040082
:100DD00025D094F83D00002520B984F83C502046E9
:100DE00000F050F9242084F83D002068016821F0CB
:100DF000010101602068016841F400410160206840
:100E0000016821F40041016000F090FA4D4A6168E8
:100E1000914201D84C4900E04C49884201D201205E
:100E200070BD4B492368B0FBF1F15E6826F03F06C8
:100E30000E435E606368934206D94FF4967359433C
:100E40004FF47A73B1FBF3F12368491C1E6A26F054
:100E50003F06314319626168914210D84900401E33
:100E6000B0FBF1F2521CC2F30B02042A01D204209F
:100E700022E0B0FBF1F0401CC0F30B001CE0A268C4
:100E8000F2B301EBC10303EB0116431EB3FBF6F310
:100E90005B1C43F480431B0549D092B301EBC102B4
:100EA00002EB0111401EB0FBF1F0401CC0F30B003F
:100EB00040F4804040F400402168CA694CF6FF735A
:100EC0009A431043C861D4E90710014320680268BF
:100ED00022F0C00211430160D4E9030101432068FC
:100EE000826848F2FF339A4311438160D4E90501D7
:100EF00008432168CA6822F0FF021043C86001E07D
:100F00000EE016E02068016841F0010101602564EF
:100F1000202084F83D00256384F83E50002070BDF9
:100F200001EB4106431EB3FBF6F35B1CB3E7012064
:100F3000C2E701EB4101401EB0FBF1F0401CC0F3E1
:100F40000B00B7E7A086010080841E0000093D0069
:100F500040420F002DE9FF4F83B09A46DDE911971B
:100F600093460446DDF84080FFF72AFF054694F8D3
:100F70003D0020287FD119230122404920460095B9
:100F800000F024FD002876D194F83C00012872D0AE
:100F9000012084F83C0020680168C90703D101687A
:100FA00041F0010101602068016821F400610160E5
:100FB000212084F83D00402084F83E00002626646D
:100FC000C4F82480A4F82A90608D20852C48E06223
:100FD000CDE9007553465A462046049900F07CFC42
:100FE00070B930E02A463946204600F06EFD58B10F
:100FF000206C042804D12068016841F4007101606C
:10100000012007B0BDE8F08F606A216800780861B0
:10101000606A401C6062218D491E89B22185628D03
:10102000521E628522685369DB435B070BD469B1AA
:1010300000781061606A401C6062208D401E20852F
:10104000608D401E6085208D0028CBD12A46394610
:10105000204600F095FC0028CAD154F83D0B0168E9
:1010600041F400710160202004F81E09E6776677DC
:101070000020C6E7FFE70220C3E7000002001000DF
:101080000000FFFF10B586B0002100910191029190
:10109000039100680F4988421AD10F4CA06940F0B3
:1010A0000800A061A069694600F008000490C02013
:1010B000009012200190032003900848FFF786FD5E
:1010C000E06940F40010E061E06900F40010049071
:1010D00006B010BD0054004000100240000C01405A
:1010E00002488168027811448160704770000020D6
:1010F000074810B5016841F010010160032000F0BD
:1011000067F80F2000F006F800F024F8002010BD6A
:101110000020024070B50D4D04464FF47A712878D6
:10112000B1FBF0F00A490968B1FBF0F000F0E4FA15
:1011300048B9102C07D200222146501E00F028F892
:1011400000206C6070BD012070BD000070000020A8
:101150007C0000200C4808B5816941F001018161E3
:10116000816901F001010091C16941F08051C161C3
:10117000C06900F0805000900448416821F0E061AF
:1011800041F00071416008BD0010024000000140C4
:10119000F0B40E4B1B680C46C3F30223C3F10705E2
:1011A000042D00D90425191D072901D2002300E0D0
:1011B000DB1E012606FA05F1491E214099409E409A
:1011C000761E16403143F0BC01F014B80CED00E07F
:1011D000064900F0070208684FF6FF03184040EA8E
:1011E0000220034A10430860704700000CED00E045
:1011F0000000FA052DE9F0470F46050061D0434E87
:10120000306800F00700B84209D2306820F00700CB
:1012100038433060306800F00700B84251D1286888
:101220003B4C810712D5400703D5606840F4E0606D
:1012300060602878000703D5606840F46050606003
:101240006068A96820F0F000084360602878C00753
:1012500028D06868012810D02168022810D089079A
:1012600000292EDA616821F0030101436160FFF774
:10127000A7FD804641F288390DE021688903EFE738
:101280008901EDE7FFF79CFDA0EB0801494502D974
:101290000320BDE8F0876068696800F00C00B0EBDF
:1012A000810FEFD1306800F00700B8420BD93068E9
:1012B00020F0070038433060306800F00700B84283
:1012C00001D00120E5E72878400705D56068E96886
:1012D00020F4E060084360602878000706D5606865
:1012E000296920F4605040EAC100606000F03EF8D7
:1012F0006168084AC1F30311515CC840064908609F
:1013000006480068FFF706FF0020C2E70020024001
:1013100000100240D03600087C000020740000203D
:1013200001480068704700007C000020044805491F
:1013300000684968044AC1F30221515CC840704703
:101340007C00002000100240E036000804480549F7
:1013500000684968044AC1F3C221515CC840704723
:101360007C00002000100240E036000812A185B089
:101370000FC98DE80F0014A0144A0068049051684A
:10138000134801F00C03042B10D0082B0ED1C1F32D
:101390008343C9031DF803000AD5516804AAC1F3A9
:1013A0004041515C0A4A5043B0FBF1F005B0704730
:1013B00008494843FAE70000020304050607080944
:1013C0000A0B0C0D0E0F101001020000001002405D
:1013D00000127A0000093D002DE9F84F040070D09A
:1013E0002078C04DC00749D06868C0F3810001284B
:1013F00007D06868C0F38100022809D16868C0037B
:1014000006D52868800339D560680028E7D035E024
:101410006068B0F5803F0BD010B1B0F5A02F11D0AF
:10142000286820F480302860286820F4802002E0BA
:10143000286840F480302860606890B1FFF7C0FCF5
:1014400006460AE0286840F480202860F0E700BFE4
:10145000FFF7B6FC801B642873D828688003F7D593
:101460000CE0FFF7ADFC064605E000BFFFF7A8FC67
:10147000801B6428F0D828688003F7D420789A4E1F
:1014800080074FF001094FF0000839D5686810F067
:101490000C0F07D06868C0F38100022809D1686882
:1014A000C00306D42868800714D52069012808D114
:1014B00010E02069B0B1C6F80090FFF781FC074644
:1014C00005E00AE1FFF77CFCC01B0228C4D82868AD
:1014D0008007F7D52868616920F0F80040EAC1006C
:1014E00028600DE0C6F80080FFF76AFC074604E0BC
:1014F000FFF766FCC01B022823D828688007F7D4B2
:10150000207800072CD57948A169D9B1C0F800909E
:10151000FFF756FC074604E0FFF752FCC01B022809
:101520000FD8686A8007F7D571484FF4FA51006800
:10153000B0FBF1F0009000BF0098411E0091FAD27C
:101540000EE080E0C0F80080FFF73AFC074604E0B8
:10155000FFF736FCC01B022875D8686A8007F7D4ED
:101560002078400760D5E8690027C00008D4E86902
:1015700040F08050E861E869012700F08050009059
:101580005C480168C90513D40168834641F4807141
:101590000160FFF715FC824606E000BFFFF710FC74
:1015A000A0EB0A0064284ED8DBF80000C005F5D592
:1015B000E06801280AD008B1052813D0286A20F075
:1015C00001002862286A20F0040002E0286A40F046
:1015D00001002862E06841F2883B98B1FFF7F0FB18
:1015E00082460BE0286A40F004002862EEE700BF64
:1015F000FFF7E6FBA0EB0A0159455AD8286A800795
:10160000F6D50CE0FFF7DCFB824605E0FFF7D8FBE0
:10161000A0EB0A0159454CD8286A8007F6D41FB1BF
:10162000E86920F08050E861E06988B36968C1F337
:101630008101022944D00228C6F8608004D0FFF757
:10164000BFFB044638E034E0FFF7BAFB074604E08E
:10165000FFF7B6FBC01B02282BD828688001F7D4FF
:10166000206AB0F5803F05D16868A16820F4003099
:1016700008436860D4E908010843696821F47411DB
:1016800008436860C6F86090FFF79AFB044606E0DE
:1016900025E000BFFFF794FB001B022809D828684B
:1016A0008001F7D51BE000BFFFF78AFB001B022873
:1016B00002D90320BDE8F88F28688001F4D40EE039
:1016C0000128F7D06868226A00F48031914204D181
:1016D000616A00F47010884201D00120EAE700201E
:1016E000E8E700000010024000004242800442424D
:1016F0007C0000200070004010B5401EB0F1807FDB
:1017000001D3012010BD4FF0E02460610F2160176C
:1017100000F070FD0020A06107202061002010BDB6
:1017200070B5040004D094F83D00002510B106E027
:10173000012070BD84F83C50204600F023F824209E
:1017400084F83D002068C16821F40051C160204642
:1017500000F082FC2068016921F490410161206859
:10176000416921F02A0141612068C16841F40051BA
:10177000C1602564202084F83D0084F83E000020EC
:1017800070BD000030B585B000240094019402942F
:10179000039400681449884224D11448816941F4B3
:1017A00080418161816901F480410491816941F046
:1017B0000401816180690E4D00F0040004904FF433
:1017C0000070009002200190032003906946284693
:1017D000FFF7FCF92815CDE9000469462846029474
:1017E000FFF7F4F905B030BD0038014000100240A9
:1017F000000801402DE9F843044690F83D001F46DB
:1018000016460D4620284CD1C5B1BEB194F83C0017
:10181000012846D0012084F83C004FF00008C4F8AD
:101820004080212084F83D00FFF7CAFAA684814653
:10183000E684A068B0F5805F03D004E00120BDE835
:10184000F883206928B12E465FF0000584F83C80BB
:101850000EE00026FAE78021204600F059FCA0B9EE
:10186000AEB116F8010B21684860E08C401EE084A0
:10187000E08C4B464FF0000200970028EBD14FF070
:101880004001204600F044FC30B10320D7E735F892
:10189000020BC0F30800E6E7202084F83D0000209A
:1018A000CDE70220CBE7FEE701684A69D243520543
:1018B0000FD46FF480624A61002140F8301F20226B
:1018C00042738173026942F00402026101730120D4
:1018D00070470020704700002DE9F8430446006877
:1018E0000D46DDE9089701689846164641F4807177
:1018F00001604B4600224FF001112046009700F096
:1019000065F848B120680068C00502D54FF4007042
:1019100020640320BDE8F883216805F0FE0008611B
:101920003B464A461549204600F084F888B92068AD
:101930004169806900903A464946204600F0C5F862
:1019400048B1206C042804D12068016841F400717A
:1019500001600120DEE7F5B2B8F1010F09D021687E
:10196000300A08613A464946204600F0AEF80028A1
:10197000E7D1206805610020CCE7000002000100EB
:1019800070B516460D4604460DE02046FFF78CFF65
:1019900008B1012070BD681C05D0FFF711FA801B4B
:1019A000A84207D835B120684069C0434007ECD44D
:1019B000002070BD002044F8300F20216173A07317
:1019C000216941F0200121612073E2E72DE9F04710
:1019D0001E4690460D460446C1F30747DDF82090A9
:1019E00008E0701C06D0FFF7EBF9A0EB0900B0424D
:1019F0000FD876B12068012F18D0806925EA000041
:101A00000004000C14D000214145EAD00020BDE8BC
:101A1000F087002044F8300F20216173A073216902
:101A200041F02001216120730120F0E74069E5E7E2
:101A30000121E9E72DE9F0479A4691460E46044612
:101A400000254FF02008C1F3074725E020684069D2
:101A5000C043400514D42068016841F4007101605E
:101A600021686FF480604861256384F83D8084F8C4
:101A70003E50206C40F00400206484F83C501FE08D
:101A8000B9F1FF3F08D0FFF79BF9A0EB0A014945E8
:101A90000CD8B9F1000F09D02068012F13D080694C
:101AA00026EA00000004000C0BD0CFE744F8305FBA
:101AB00084F80D80A573206940F020002061257313
:101AC0000120BDE8F0874069EAE770B516460D468B
:101AD00004460DE02046FFF7E7FE08B1012070BD87
:101AE000681C05D0FFF76CF9801BA84207D835B1F8
:101AF00020684069C0430006ECD4002070BD00207F
:101B000044F8300F20216173A073216941F0200156
:101B100021612073E2E700002DE9F04186B0002545
:101B200024480095019502950395816941F01001C3
:101B30008161816901F010010491816941F0200106
:101B40008161816901F020010491816941F0040102
:101B50008161816901F004010491816941F008010A
:101B600081618069144F00F00800049000220E216A
:101B70003846FFF720F90122DFF84080560231464F
:101B80004046FFF718F90E2001248DE831000220AD
:101B9000039069463846FFF719F80320CDE9024063
:101BA000CDE9006469464046FFF710F806B0BDE88D
:101BB000F08100000010024000080140000C0140CC
:101BC0000D4810B50B4901600C49416000214FF4EC
:101BD00080428160C0E9031241618161C16101629B
:101BE000FFF7F4F8002803D0BDE81040FEF7D9BF96
:101BF00010BD00000054004084000020A0860100B9
:101C00000C4810B50A4901604FF4E13141600021F0
:101C100081600C22C160C0E904128161C161FFF7DB
:101C20007FFD002803D0BDE81040FEF7BABF10BD0D
:101C300000380140D8000020FEE7FEE770B5002420
:101C400004F1B000C0B200F0B3F8002000F0B0F82A
:101C5000102000F0ADF80025002000F0BBF86D1C4E
:101C6000EDB2802DF8D3641CE4B2082CE8D370BD2B
:101C700010B5C820FEF798FFBDE8104000F07CBA10
:101C800010B50446B031C8B200F092F8102040EA16
:101C9000141000F08DF804F00F00BDE8104000F0C3
:101CA00087B800002DE9F04115460E460746FFF7BC
:101CB000E7FF0E48002400EB8515285D00F08AF848
:101CC000641CE4B2102CF8D3761CF1B23846FFF74E
:101CD000D7FF0024281990F8200000F07BF8641C3E
:101CE000E4B2102CF6D3BDE8F08100009033000878
:101CF0002DE9F041203A00240D468046D6B27F28D7
:101D000003D900208D1C8046EDB2102B29460FD040
:101D1000FFF7B6FF164906EB460001EB4005285DCC
:101D200000F058F8641CE4B2062CF8D3BDE8F0814A
:101D3000FFF7A6FF0F4F00BF04EB0610385C00F062
:101D400049F8641CE4B2082CF6D36D1CE9B2404695
:101D5000FFF796FF5FF0000404EB06103844007AAA
:101D600000F038F8641CE4B2082CF5D3DEE700007C
:101D7000882B0008B02D00082DE9F0419846174641
:101D80000E46044600250DE0434631462046FFF747
:101D9000AFFF0834E4B2782C02D90024B61CF6B2A6
:101DA0006D1CEDB27A5D002AEED1BDE8F081000035
:101DB00001B584B001214FF4807204A88DE80700BA
:101DC0000B46002278210248FFF7C4F805B000BD99
:101DD0008400002001B584B001214FF4807204A872
:101DE0008DE807000B46402278210248FFF7B2F841
:101DF00005B000BD840000207047704710B500F0AA
:101E000071F8072202210020FFF74CFF082202216F
:101E10001020FFF747FF062202212020FFF742FF94
:101E20001023114A02213020FFF7A6FF10230FA232
:101E300002215820FFF7A0FF092204210020FFF70C
:101E400031FF0A2204211020FFF72CFF0622042173
:101E50002020FFF727FF044A1023083A0421BDE899
:101E600010403020FFF788BF28000020430000000A
:101E700010B5FEF727FD00F057F81023184A062189
:101E80000020FFF779FF164A10232E3A062128205A
:101E9000FFF772FF124A10232B3A06213820FFF772
:101EA0006BFF0F4A1023283A06214820FFF764FFF2
:101EB0000B4A1023253A06215820FFF75DFF084AF8
:101EC0001023223A06216820FFF756FF044A102308
:101ED000303A0621BDE810407820FFF74DBF0000E2
:101EE0006800002010B50A4C0AA104F10800D4E9EA
:101EF000042300F06BF909A12046626800F066F93E
:101F00002246BDE8104006A1104600F05FB900006F
:101F100020000020252E316600000000256400000E
:101F200025732525000000001FB5254C04F1200075
:101F30000FC88DE80F0004F1140122A00EC900F0B3
:101F400035F900202086A11C84F8320008808870B2
:101F5000A4F80500E0712081A072A4F80B000C31F8
:101F60006073088088702080A0701FA104F1300089
:101F7000626900F02BF91CA1A01CA26900F026F9EF
:101F800019A1601DE26900F021F917A104F1080010
:101F9000226A00F01BF915A104F10B00626A00F03F
:101FA00015F912A104F10E00A26A00F00FF9E26A1D
:101FB00004B02046BDE810400BA100F007B90000B6
:101FC0003800002025642D25642D2530326420251D
:101FD000643A253032643A2530326420D0C7C6DAFC
:101FE00025640D0A000000002564000025303264DD
:101FF00000000000FFF774B830B58FB028216846A4
:10200000FEF7A7F814210AA8FEF7A3F80121080497
:10201000CDE900100024029402250491CDE9075077
:102020004FF4E01009906846FFF7D6F908B172B690
:10203000FEE70F20CDE90A054FF48060CDE90C40A2
:1020400002210AA80E94FFF7D5F8002801D072B635
:10205000FEE70FB030BD704770B5044600680169F7
:10206000E26821F44051114301612169A0680843ED
:10207000616908432168CA6841F20C639A430243CC
:10208000CA6020684169A26921F44071114341612D
:102090001E492068884202D1FFF758F901E0FFF796
:1020A00045F900EBC00101EB00126068642180007B
:1020B000B2FBF0F3B3FBF1F36FF018067343B2FB1E
:1020C000F0F5B2FBF0F605EB8305322303EB0515C3
:1020D000B5FBF1F5B6FBF1F605F0F00505EB0615DD
:1020E000B2FBF0F6B2FBF0F0B0FBF1F06FF01802CB
:1020F000504306EB800003EB0010B0FBF1F02168C9
:1021000000F00F002844886070BD000000380140D6
:102110002DE9F041984617460E460446069D1DE0FF
:10212000681C1BD02DB1FEF74BFEA0EB0800A842A7
:1021300014D92068C16821F4D071C1602068416958
:1021400021F001014161202084F83D0084F83E0027
:10215000002084F83C000320BDE8F081206800687E
:1021600036EA000004D00020B842D9D00020F3E7BE
:102170000120F9E7FEE70000FEB50024094F4FF407
:10218000807501263819CDE9000601230022782147
:1021900002950548FEF7DEFE641CE4B21B2CF1D369
:1021A000FEBD000000000020840000200FB4054B9D
:1021B00010B503A9044A029800F0FEF810BC5DF8BF
:1021C00014FB0000F12A0008800000200FB4084B27
:1021D00010B504A902AA039800F0EEF8044602A97B
:1021E000002000F080FC204610BC5DF814FB0000CD
:1021F000E72A00080907090E002804DB00F1E020A7
:1022000080F80014704700F00F0000F1E02080F823
:10221000141D704702E008C8121F08C1002AFAD135
:1022200070477047002001E001C1121F002AFBD156
:10223000704700002DE9FF5F82B00021DDE9043026
:10224000020DDDF840B0034318D044F61050A2F25E
:10225000FF3242431514119801281FD0A5EB0B0043
:10226000401C5FEA000A4FF000064E4FDFF838913D
:10227000B046504615D5CAF1000413E01198012468
:102280004AA3012801D16FEA0B010298119AC0E913
:102290000031C0E9024206B0BDE8F09FCBF100007A
:1022A000DFE704460021404A491842EB0450CDE9DB
:1022B000001012E0E00707D032463B464046494650
:1022C000FDF7F9FF8046894632463B4610461946DF
:1022D000FDF7F1FF06460F466410002CEAD1DDE958
:1022E0000401DDE90023BAF1000F06DAFDF7E3FF90
:1022F00042464B46FDF7DFFF05E0FEF720F9424678
:102300004B46FEF71CF904460E460022284BFEF70A
:102310009DF903D84FF0FF30014607E00022254B1E
:1023200020463146FDF720FFFEF778F9102409E03A
:10233000002C0ADB0A220023FEF752F8039B3032FE
:102340001A55641E50EA0102F2D1641C039AC4F1CA
:1023500011031444119A012A03D0012208430DD11C
:102360000AE0084304D000204FF0110B119072E7EF
:10237000A3EB0B056D1E0DE05B4504DD4FF0000285
:1023800005F1010504E003DA4FF00002A5F10105B3
:10239000002AECD002981199C0E90231C0E9004549
:1023A00079E70000000014400000F03F300000001A
:1023B0000000F0430000E03F2DE9FF4F95B09B4641
:1023C0008946064600250FE2252877D100242746B6
:1023D000F84A0121059400E0044316F8013F203B30
:1023E00001FA03F01042F7D130782A2811D06FF0AB
:1023F0002F033078A0F13002092A16D8059A44F04C
:10240000020402EB820203EB42021044761C0590A8
:10241000EFE759F8042B0592002A03DA504244F4FE
:102420000054059044F00204761C30782E2816D112
:1024300016F8010F44F004042A280DD06FF02F0283
:102440003078A0F13003092B09D807EB870302EBA2
:102450004303C718761CF3E759F8047B761C3078E1
:102460006C280FD006DC4C2817D068280DD06A28BD
:1024700014D104E0742810D07A280FD10DE044F470
:1024800000140AE044F4801401E044F4401472782B
:10249000824202D104F58014761C761C30786628BE
:1024A0000BD013DC582877D009DC002875D04528DC
:1024B000F6D04628F4D047281AD19DE118E06328C9
:1024C00035D0642879D0652812D195E1702873D071
:1024D00008DC6728F1D069286FD06E280DD06F28EE
:1024E00006D1B5E073282CD0752875D0782874D023
:1024F0005A46179990476D1C75E1C4F302500228A3
:1025000009D003280DD0D9F8001004280DD00D6093
:1025100009F1040967E1D9F80010EA17C1E900528E
:10252000F6E7D9F800100D80F2E70D70F0E719F822
:10253000041B8DF8001000208DF80100EA460120F0
:1025400003E059F804AB4FF0FF3061074FF0000192
:1025500002D40DE008F101018846B9420FDA804546
:10256000F8DB1AF808100029F4D108E008F101019D
:1025700088468142FADB1AF808100029F6D105983E
:102580005B46A0EB080721463846179A00F094FAFC
:10259000284400EB080507E04DE029E10DE01AF8BA
:1025A000010B5A4617999047B8F10108F7D25B46DC
:1025B00021463846179A13E142E00A220092C4F3FA
:1025C00002524FF0000A022A08D059F804CB032A1D
:1025D0004FEAEC710AD00DE029E02AE009F1070189
:1025E00021F00702F2E802C1914609E00FFA8CFCE3
:1025F0004FEAEC71042A03D14FFA8CFC4FEAEC71DC
:10260000002907DA0A460021DCF1000C61EB020127
:102610002D2202E0220504D52B228DF80420012270
:1026200003E0E20701D02022F7E7904659E00A21B3
:1026300002E010220DE010214FF0000A00910BE0A3
:1026400010224FF0000A44F004040827009203E02F
:1026500008224FF0000A0092C4F30252022A05D069
:1026600059F804CB0021032A08D009E009F1070139
:1026700021F00702F2E802C1914605E01FFA8CFC46
:10268000042A01D10CF0FF0C4FF00008220728D5D6
:10269000702806D0009B83F0100353EA0A0305D08C
:1026A0000EE040228DF80420012208E05CEA0102DD
:1026B00006D030228DF804208DF8050002229046C5
:1026C000009B83F0080353EA0A030AD15CEA010283
:1026D00001D1620705D530228DF804204FF00108A2
:1026E0007F1E582804D034A003900EA802900DE05D
:1026F00036A0F9E753466046009AFDF771FE84461E
:102700000398825C0298401E029002705CEA01000D
:10271000F0D1029806A9081A00F1200A600702D534
:1027200024F4803400E00127574502DDA7EB0A00BE
:1027300000E0002000EB0A01009005984144401A97
:102740000590E00306D45B462146179A059800F0F1
:10275000B3F90544002706E001A85A46C05D179961
:1027600090476D1C7F1C4745F6DBE0030CD55B46AC
:102770002146179A059800F09FF9054404E030209F
:102780005A46179990476D1C0099481E00900029E1
:10279000F5DC08E0029802995A460078491C02913B
:1027A000179990476D1CBAF10001AAF1010AF1DCFA
:1027B00065E1000009280100303132333435363705
:1027C000383961626364656600000000303132337D
:1027D000343536373839414243444546000000001D
:1027E00000F058F90544761C307800287FF4ECADF1
:1027F00019B02846BDE8F08F620700D4062709F11A
:10280000070222F0070CFCE80223E14603F000482F
:102810005FEA080C02D00FF2702C0DE05FEA045C56
:1028200002D50FF2682C07E05FEAC47C02D00FF2F9
:10283000602C01E0AFF2700C4FF0FF3823F0004342
:10284000CDF850C065280CD006DC452809D04628B4
:102850001DD047283DD13DE0662818D067287ED19D
:1028600038E00021112F01DB112000E0781CCDE9B8
:10287000000106A90EA8FFF7DDFCDDE90F010E9AA5
:1028800003910021009207F1010A04914DE04FF0FD
:1028900000400097CDE9011006A90EA8FFF7CAFC79
:1028A000DDE90F0203920E9B11990022DDF80CA0C6
:1028B0000093049211B9791C00EB010AB7EB0A00EE
:1028C00004D4C0F1FF3007F1010A0490AAEB07001D
:1028D000019044E0012F00DA01270021112F01DDD2
:1028E000112000E03846CDE9000106A90EA8FFF747
:1028F000A1FCDDE90F010E9A0391002104910092E1
:10290000BA4621070CD40399514500DA8A46BAF138
:10291000010F05DD009AAAF10101515C302908D0B0
:10292000B84202DA10F1040F06DA0121CDE90110F4
:1029300015E0AAF10101E9E7002805DC049901444A
:102940000491AAEB000102E0411C514500DD8A46DA
:102950000499401A401C01904FF00040029020075B
:1029600004D40198504501DBCDF8048000208DF897
:102970004F0002980DF14F07B0F1004F25D02B20EA
:102980000E9002984FF0020800280CDA40420290A4
:102990002D200E9007E00A210298FDF70BFD303143
:1029A000029007F8011DB8F10001A8F10108F2DC5E
:1029B00002980028EFD1791E0E980870307800F048
:1029C000200040F0450007F8020D12A8C01B00F1DE
:1029D00007081498007800B1012000EB0A01019863
:1029E00001EBE07105984144401A401E0590E00358
:1029F00006D45B462146179A059800F05DF8054419
:102A00001498007818B15A46179990476D1CE00346
:102A100024D55B462146179A059800F04DF80544E9
:102A20001CE00498002807DBDDE90301884203DD90
:102A30000098405C179901E0179930205A4690475A
:102A4000049805F10105401C04900198401E019076
:102A500004D12E205A46179990476D1CBAF10001F7
:102A6000AAF1010ADDDC05E017F8010B5A461799B7
:102A700090476D1CB8F10001A8F10108F4DC5B4639
:102A80002146179A0598ABE62D0000002B000000A8
:102A9000200000002DE9F041044600251E4617469F
:102AA000880404D405E039462020B0476D1C641E1C
:102AB000F9D52846BDE8F0812DE9F041044600250E
:102AC0001E469046C80301D5302700E02027880421
:102AD00004D505E041463846B0476D1C641EF9D563
:102AE0002846BDE8F0810A68531C0B6010707047DF
:102AF00013B54FF0FF33012269460248FEF77AFE14
:102B000000981CBDD80000200EB5FEF7F1FAFFF7C3
:102B100073FAFFF701F8FFF753F8FFF771F8FFF7C3
:102B2000A7F8FFF78BF85022592123208DE80700E2
:102B3000312312220721FDF7ADFFC020FDF712FF60
:102B400018B90121C020FDF7FFFF0A4CFDF7B8FDC1
:102B50000021102308A20846FFF70EF9FFF74EF9EF
:102B6000FFF786F920680028F0D1FFF767F8FFF734
:102B70007FF9EBE7600000206469706C6F6D612085
:102B800070726F6A6563740000000000000000004E
:102B9000002F000000000700070000147F147F14BE
:102BA00000242A7F2A120062640813230036495544
:102BB000225000000503000000001C22410000001C
:102BC00041221C000014083E08140008083E0808B2
:102BD000000000A06000000808080808000060600D
:102BE0000000002010080402003E5149453E00004C
:102BF000427F4000004261514946002141454B312E
:102C0000001814127F10002745454539003C4A49F9
:102C1000493000017109050300364949493600066B
:102C20004949291E000036360000000056360000D3
:102C3000000814224100001414141414000041224E
:102C4000140800020151090600324959513E007C26
:102C50001211127C007F49494936003E4141412210
:102C6000007F4141221C007F49494941007F0909F9
:102C70000901003E4149497A007F0808087F0000A9
:102C8000417F4100002040413F01007F0814224164
:102C9000007F40404040007F020C027F007F04081C
:102CA000107F003E4141413E007F09090906003E78
:102CB0004151215E007F09192946004649494931A1
:102CC0000001017F0101003F4040403F001F2040C4
:102CD000201F003F4038403F006314081463000782
:102CE0000870080700615149454300007F414100D9
:102CF00000552A552A55000041417F000004020179
:102D00000204004040404040000001020400002056
:102D100054545478007F4844443800384444442094
:102D200000384444487F00385454541800087E0941
:102D300001020018A4A4A47C007F08040478000009
:102D4000447D4000004080847D00007F10284400C6
:102D50000000417F4000007C04180478007C0804D7
:102D6000047800384444443800FC24242418001813
:102D7000242418FC007C08040408004854545420FF
:102D800000043F444020003C4040207C001C204088
:102D9000201C003C4030403C004428102844001CCB
:102DA000A0A0A07C004464544C44141414141414C3
:102DB0000000000000000000000000000000000013
:102DC000000000F8000000000000003330000000A8
:102DD00000100C06100C06000000000000000000AF
:102DE00040C07840C0784000043F04043F04040021
:102DF000007088FC08300000001820FF211E000031
:102E0000F008F000E018000000211C031E211E0045
:102E100000F00888700000001E21232419272110CB
:102E200010160E000000000000000000000000006E
:102E3000000000E018040200000000071820400015
:102E400000020418E0000000004020180700000005
:102E5000404080F0804040000202010F0102020069
:102E6000000000F0000000000101011F010101004D
:102E7000000000000000000080B0700000000000B2
:102E8000000000000000000000010101010101013B
:102E900000000000000000000030300000000000D2
:102EA00000000000806018040060180601000000A7
:102EB00000E010080810E000000F102020100F00A4
:102EC000001010F8000000000020203F202000002B
:102ED0000070080808887000003028242221300083
:102EE00000300888884830000018202020110E008B
:102EF0000000C02010F8000000070424243F240034
:102F000000F80888880808000019212020110E0008
:102F100000E0108888180000000F112020110E001A
:102F200000380808C83808000000003F0000000012
:102F30000070880808887000001C222121221C00D3
:102F400000E010080810E0000000312222110F00FC
:102F5000000000C0C0000000000000303000000091
:102F60000000008000000000000080600000000001
:102F7000000080402010080000010204081020001A
:102F80004040404040404000040404040404040065
:102F900000081020408000000020100804020100FA
:102FA000007048080808F0000000003036010000FA
:102FB000C030C828E810E0000718272423140B00AD
:102FC0000000C038E0000000203C23020227382027
:102FD00008F8888888700000203F202020110E000B
:102FE000C030080808083800071820202010080002
:102FF00008F808080810E000203F202020100F00EB
:1030000008F88888E8081000203F202023201800B6
:1030100008F88888E8081000203F2000030000001E
:10302000C03008080838000007182020221E0200BF
:1030300008F808000008F808203F210101213F207E
:10304000000808F8080800000020203F20200000A9
:1030500000000808F8080800C08080807F00000099
:1030600008F888C028180800203F200126382000D2
:1030700008F8080000000000203F20202020300039
:1030800008F8F800F8F80800203F003F003F200053
:1030900008F830C00008F808203F200007183F005B
:1030A000E01008080810E0000F10202020100F008A
:1030B00008F808080808F000203F2101010100007D
:1030C000E01008080810E0000F18242438504F00C2
:1030D00008F8888888887000203F2000030C302082
:1030E00000708808080838000038202121221C00C0
:1030F000180808F8080818000000203F2000000009
:1031000008F808000008F808001F202020201F00F1
:103110000878880000C83808000007380E01000051
:10312000F80800F80008F800033C0700073C03001B
:10313000081868808068180820302C03032C302081
:103140000838C800C83808000000203F20000000F0
:1031500010080808C8380800203826212020180048
:10316000000000FE020202000000007F404040001C
:10317000000C30C000000000000000010638C00054
:1031800000020202FE000000004040407F000000FC
:103190000000040202020400000000000000000021
:1031A000000000000000000080808080808080801F
:1031B0000002020400000000000000000000000007
:1031C00000008080808000000019242222223F20FD
:1031D00008F8008080000000003F112020110E0040
:1031E0000000008080800000000E112020201100CF
:1031F000000000808088F800000E112020103F2081
:103200000000808080800000001F22222222130004
:10321000008080F0888888180020203F202000004F
:103220000000808080808000006B94949493600004
:1032300008F8008080800000203F210000203F200F
:1032400000809898000000000020203F202000000F
:10325000000000809898000000C08080807F0000FF
:1032600008F8000080808000203F24022D302000DC
:10327000000808F8000000000020203F2020000087
:103280008080808080808000203F20003F20003FA1
:103290008080008080800000203F210000203F20AF
:1032A0000000808080800000001F202020201F0060
:1032B000808000808000000080FFA12020110E008F
:1032C0000000008080808000000E112020A0FF8080
:1032D000808080008080800020203F21200001002D
:1032E0000000808080808000003324242424190082
:1032F000008080E0808000000000001F202000008F
:103300008080000000808000001F202020103F20CF
:10331000808080000080808000010E30080601005F
:1033200080800080008080800F300C030C300F0004
:1033300000808000808080000020312E0E3120002F
:10334000808080000080808080818E70180601005F
:1033500000808080808080000021302C222130007D
:1033600000000000807C020200000000003F40409E
:103370000002027C800000000040403F000000008E
:1033800000000000FF00000000000000FF0000003F
:103390000000041464040CB4020242330200000072
:1033A000000000000000000000000000000000001D
:1033B00040412111090503FF030509112141400086
:1033C00000000000000000000000000000000000FD
:1033D0001010D0FF900010919690F09094931000F0
:1033E00000000000000000000000000000000000DD
:1033F000040300FF000104040404FF0404040400A7
:1034000000000000000000000000000000000000BC
:10341000008060F80704E4A4A4BFA4A4E4040000AE
:10342000000000000000000000000000000000009C
:10343000010000FF40407F4A4A4A4A4A7F4040001C
:10344000000000000000000000000000000000007C
:103450000000F888888888FF88888888F80000003D
:10346000000000000000000000000000000000005C
:1034700000001F080808087F888888889F80F0005F
:10348000000000000000000000000000000000003C
:103490000000FE0282828282FA828282828202009E
:1034A000000000000000000000000000000000001C
:1034B00080601F40404040407F40404458404000B2
:1034C00000000000000000000000000000000000FC
:1034D000008060F80704E4A4A4BFA4A4E4040000EE
:1034E00000000000000000000000000000000000DC
:1034F000010000FF40407F4A4A4A4A4A7F4040005C
:1035000000000000000000000000000000000000BB
:1035100000000000000000000000000000000000AB
:10352000000000000000000000000000000000009B
:10353000000036360000000000000000000000001F
:10354000000000000000000000000000000000007B
:103550001060028C0000FE9292929292FE00000097
:10356000000000000000000000000000000000005B
:1035700004047E01407E42427E427E42427E400002
:10358000000000000000000000000000000000003B
:103590000000FC242424FC252624FC2424240400EC
:1035A000000000000000000000000000000000001B
:1035B00040308F80844C55252525554C80808000D7
:1035C00000000000000000000000000000000000FB
:1035D0001060028C00FE929292929292FE00000085
:1035E00000000000000000000000000000000000DB
:1035F00004047E014448507F40407F5048444000CE
:1036000000000000000000000000000000000000BA
:103610000000FC242424FC252624FC24242404006B
:10362000000000000000000000000000000000009A
:1036300040308F80844C55252525554C8080800056
:10364000000000000000000000000000000000007A
:1036500000FC848484FC001010101010FF10100077
:10366000000000000000000000000000000000005A
:10367000003F1010103F0000010640807F00000056
:10368000000000000000000000000000000000003A
:1036900000F8010600F0121212F2020202FE00000F
:1036A000000000000000000000000000000000001A
:1036B00000FF0000001F1111111F0040807F00005B
:1036C00000000000000000000000000000000000FA
:1036D00000000000000000000102030406070809C2
:1036E0000000000001020304083700080000002069
:1036F00084000000142200088C3700088400002099
:103700009C04000024220008AE001040B081FFA1FC
:10371000A6A83FC8D300D580D805D9F1DA12D83091
:103720008D14AF0000000000000000000000000049
:103730000000000000000000000000000000000089
:103740000000000000000000000000000000000079
:103750000000000000000000000000000000000069
:103760000000000000000000000000000000000059
:103770000000000000000000010000001000000038
:0C378000000000000024F4000000000025
:04000005080000ED02
:00000001FF
